:020000040800F2
:1000000000000220CD660008B91A0008C11A0008D5
:10001000C91A0008D11A0008D91A00080000000007
:100020000000000000000000000000000164000863
:10003000E11A000800000000A1640008E31A0008AB
:100040001D6700081D6700081D6700081D67000880
:100050001D6700081D670008F91A00081D670008E1
:100060001D6700081D6700081D6700081D67000860
:100070001D6700081D6700081D6700081D67000850
:100080001D6700081D6700081D67000800000000CC
:100090000000000000000000000000001D670008D4
:1000A0001D6700081D6700081D6700081D67000820
:1000B0001D670008051B00081D6700081D67000874
:1000C0001D6700081D6700081D6700081D67000800
:1000D0001D6700081D6700081D670008000000007C
:1000E0001D6700081D6700081D670008000000006C
:1000F0000000000000000000000000001D67000874
:10010000000000001D6700081D6700081D6700084B
:1001100000000000000000000000000000000000DF
:100120001D6700081D6700081D6700081D6700089F
:100130001D67000800000000000000000000000033
:100140000000000000000000000000001D67000823
:100150001D6700081D6700081D6700081D6700086F
:100160001D6700081D670008000000000000000077
:10017000000000000000000000000000000000007F
:10018000000000001D6700080000000000000000E3
:080190001D6700081D6700084F
:1001A00010B5054C237833B9044B13B10448AFF3B1
:1001B00000800123237010BD6000002000000000BB
:1001C0000069000808B5034B1BB103490348AFF3AE
:1001D000008008BD000000006400002000690008E5
:1001E00053B94AB9002908BF00281CBF4FF0FF319E
:1001F0004FF0FF3000F088B9ADF1080C6DE904CE86
:1002000000F006F8DDF804E0DDE9022304B07047F1
:100210002DE9F047089D0F4604468C46002B48D137
:100220008A42164661D9B2FA82F34BB1C3F1200279
:1002300001FA03FC20FA02F29E4042EA0C0C9C40B8
:100240004FEA164EB7B2BCFBFEF1220C0EFB11CCEE
:1002500042EA0C4201FB07F0904209D9B21801F1C1
:10026000FF3C80F0EE80904240F2EB800239324455
:10027000121AA4B2B2FBFEF00EFB102244EA0244B2
:1002800000FB07F7A74209D9341900F1FF3280F0CB
:10029000DA80A74240F2D7803444023840EA014075
:1002A000E41B00211DB1DC400023C5E90043BDE88B
:1002B000F0878B4206D90DB1C5E90001002108463F
:1002C000BDE8F087B3FA83F1002948D1BB4202D3DD
:1002D000824200F20781841A67EB030201209446F0
:1002E000002DE4D0C5E9004CE1E7002A00F092803F
:1002F000B2FA82F3002B40F0A8808A1A4FEA164E19
:100300001FFA86FC0121200CB2FBFEF70EFB172220
:1003100040EA02420CFB07F0904207D9B21807F1FD
:10032000FF3802D2904200F2E2804746121AA4B28D
:10033000B2FBFEF00EFB102244EA02440CFB00FC70
:10034000A44507D9341900F1FF3202D2A44500F2C6
:10035000CB801046A4EB0C0440EA0740A2E7C1F1B1
:1003600020068B4022FA06FC4CEA030C07FA01F443
:1003700020FA06F3F7404FEA1C49234300FA01F83C
:100380001FFA8CFEB7FBF9F01C0C09FB107744EA4E
:10039000074400FB0EF7A74202FA01F20AD91CEB50
:1003A000040400F1FF3A80F09B80A74240F298805D
:1003B00002386444E41B9FB2B4FBF9F309FB134415
:1003C00047EA044403FB0EFEA64509D91CEB0404CE
:1003D00003F1FF3780F08280A6457FD9023B644459
:1003E00043EA0040A4EB0E04A0FB02E7BC427346C4
:1003F000B94663D360D05DB1B8EB030264EB090486
:1004000004FA06F622FA01F31E43CC40C5E9006463
:1004100000214CE76208480842EAC1710B0C43EA2C
:1004200000438AB242EA0342B3FBF6F1E407B44662
:100430003746B6461F23B0FBF6F0D21B41EA004117
:1004400061E7614614E7104628E7C3F1200120FA6E
:1004500001F29E4027FA01F19F403A434FEA164EBF
:100460001FFA86FCB1FBFEF70EFB1710110C41EAD8
:10047000004107FB0CF8884504FA03F43AD97118D7
:1004800007F1FF3001D288451FD8A1EB0801B1FB6D
:10049000FEF808FB0CF70EFB181192B242EA01427B
:1004A000BA422FD2B21808F1FF31C6D2BA42C4D232
:1004B000A8F102013244C0E7F0459CD2BEEB020332
:1004C00067EB0C070138B94695E7A6EB08084144ED
:1004D000B81EB1FBFEF808FB0CF7DCE73B467FE7F4
:1004E000504667E70846FBE63444023832E7023FED
:1004F00032441BE7A1EB08013846B1FBFEF808FBCC
:100500000CF7C8E7414698E7704700BF08B500F010
:1005100021FB72B6FEE7000010B594B008AC3022A3
:100520000021204606F0FBF8002303930493059373
:10053000069307930193204A116C41F08051116496
:10054000126C02F080520192019A02931B4B1A68BE
:1005500042F440421A601B6803F440430293029B3A
:10056000092308934FF48033099301230D93022349
:100570000E934FF480020F920C221092602211927F
:10058000129304231393204602F004F980B90F2339
:10059000039302230493002305934FF480520692A1
:1005A0000793032103A802F045FB18B914B010BD4E
:1005B000FFF7ACFFFFF7AAFF0038024000700040D1
:1005C00008B502F025FEFFF7A7FF00F023F800F0C2
:1005D0008DF800F0EDF800F0A5F902F063FE02F0EE
:1005E000D5FE0A4801F0B4FB00F0D8FA00F0D6FFBF
:1005F00000F0AAFB064B187002F0C8FE05F05CFB89
:1006000003F04EFE05F06AFBFEE700BF7C00002011
:10061000AA0200202DE9F04188B003AD0024039424
:10062000049405940694079400942D4B1A6B42F0A1
:1006300080021A631A6B02F080020092009A019401
:100640001A6B42F001021A631A6B02F00102019266
:10065000019A02941A6B42F002021A631B6B03F0B8
:1006600002030293029BDFF8808022463821404635
:1006700002F019FD1B4E01220221304602F013FD4B
:1006800022464FF47041304602F00DFD01270397DA
:100690004FF488130493022305932946404602F041
:1006A0008FFB38230393049705940694294640460C
:1006B00002F086FB4FF2020303930497059406941D
:1006C0002946304602F07CFB22460521062002F036
:1006D00051FD062002F05EFD08B0BDE8F08100BFCC
:1006E00000380240000402400000024000B58BB018
:1006F00000230693079308930993049305930093AB
:100700000193029303932848284A026063224260BF
:1007100083604FF6FF72C2600361836101F06EFC7B
:1007200060BB4FF48053069306A91F4801F02FFECB
:1007300038BB1D4801F0BAFC30BB0023049305937D
:1007400004A9194801F0E6FF08BB0022009201232A
:100750000193029203926946134801F0A5FDC8B9BE
:1007600004226946104801F09FFDB0B9082269468D
:100770000D4801F099FD98B90BB000BDFFF7C6FE1A
:10078000CFE7FFF7C3FED4E7FFF7C0FED5E7FFF7DB
:10079000BDFEDAE7FFF7BAFEE2E7FFF7B7FEE5E7EF
:1007A000FFF7B4FEE8E700BF0C01002000040040A2
:1007B00008B50948094B0360632343600023836045
:1007C0004FF6FF72C2600361836101F017FC00B94C
:1007D00008BDFFF79BFEFBE77C00002000480140BE
:1007E00070B58AB000230593069307930893099385
:1007F0000368314A934207D0304A934241D0304A8D
:1008000093424BD00AB070BD002400942D4B1A6C5B
:1008100042F002021A641A6C02F002020092009A7C
:1008200001941A6B42F001021A631A6B02F0010282
:100830000192019A02941A6B42F002021A631B6B36
:1008400003F002030293029BC02305930225069541
:10085000099505AE31461C4802F0B2FA0123059312
:1008600006950794089409953146184802F0A8FAAD
:10087000224605211D2002F07DFC1D2002F08AFC8D
:10088000C0E7002303930F4B1A6C42F004021A6472
:100890001B6C03F004030393039BB3E7002304934F
:1008A000084B5A6C42F480225A645B6C03F4802338
:1008B0000493049BA6E700BF00040040000800402A
:1008C000004801400038024000000240000402409D
:1008D00000B587B00023019302930393049305931B
:1008E00002680D4B9A4201D007B000BD002300936F
:1008F0000A4B1A6B42F002021A631B6B03F00203ED
:100900000093009BC023019302230293059301A946
:10091000034802F055FAE7E70008004000380240BB
:100920000004024000B58FB000230A930B930C9390
:100930000D930893099301930293039304930593F2
:10094000069307932548264A02606322426083602B
:1009500040F2E732C26003618023836101F04EFB05
:1009600050BB4FF480530A930AA91C4801F00FFDB5
:1009700028BB1A4801F06EFB20BB002308930993A3
:1009800008A9164801F0C6FEF8B9602301930022B9
:1009900002920392059201A9104801F0E1FBB8B957
:1009A00004220DEB02010D4801F0DAFB98B90B4867
:1009B000FFF78EFF0FB000BDFFF7A8FDD1E7FFF7EF
:1009C000A5FDD6E7FFF7A2FDD7E7FFF79FFDDCE720
:1009D000FFF79CFDE4E7FFF799FDE8E7C40000207E
:1009E00000080040034B1A6800235362536A834295
:1009F000FCD370477C000020642800D9642000EB01
:100A00008000400080B27047642800D9642040B262
:100A10007047000070B5E0B104460028CCBF012249
:100A2000002228DDC5B2164E4FF40041304602F0D8
:100A30003AFB002CCCBF002201224FF4804130460B
:100A400002F031FB2846FFF7D7FF0E4B1B68986377
:100A500070BD0B4C00224FF48041204602F023FB76
:100A600000224FF40041204602F01DFB054B1B689D
:100A700000229A63ECE7C5B26D42EDB2D3E700BF46
:100A800000040240C400002070B5E0B10446002814
:100A9000CCBF0122002228DDC5B2164E4FF4805192
:100AA000304602F000FB002CCCBF002201224FF4A4
:100AB0000051304602F0F7FA2846FFF79DFF0E4B33
:100AC0001B68586370BD0B4C00224FF480512046C8
:100AD00002F0E9FA00224FF40051204602F0E3FA56
:100AE000054B1B6800225A63ECE7C5B26D42EDB2BC
:100AF000D3E700BF00040240C400002010B5FFF798
:100B000083FF444264B22046FFF784FF2046FFF78C
:100B1000BBFF10BD10B504460846FFF775FFC3B212
:100B20005B4258B2FFF776FF2046FFF76DFFFFF7F5
:100B3000ABFF10BD10B50C46FFF766FFFFF76AFF6D
:100B40002046FFF761FFC0B2404240B2FFF79CFF72
:100B500010BD000010B50F4C00224FF4805120460C
:100B600002F0A1FA00224FF40051204602F09BFA55
:100B700000224FF48041204602F095FA00224FF403
:100B80000041204602F08FFA034B1B6800225A6393
:100B90009A6310BD00040240C400002010B5064C4A
:100BA0000021204601F082FC0421204601F07EFC59
:100BB000FFF7D0FF10BD00BFC400002010B5104CDF
:100BC00000224FF48051204602F06DFA00224FF4CB
:100BD0000051204602F067FA00224FF4804120467F
:100BE00002F061FA00224FF40041204602F05BFA65
:100BF000044B1B684FF47A725A639A6310BD00BFAE
:100C000000040240C400002070B586B001AD00248D
:100C100001940294039404940594214802F032FF55
:100C20004FF44073019311230293039404941D4ED7
:100C30002946304602F0C4F801224FF400713046D4
:100C400002F031FA13E0174D00224FF4807128466C
:100C500002F029FA0520FFF7C5FE01224FF480714A
:100C6000284602F020FA0520FFF7BCFE0134082CCC
:100C7000E9DD0C4C00224FF40071204602F013FA1B
:100C80000520FFF7AFFE01224FF40071204602F06D
:100C90000AFA0520FFF7A6FE02F004FB06B070BDBD
:100CA000E80100200004024010B584B00A2302933A
:100CB000019200910123024650210C4802F0ACFF42
:100CC000044628B90A4B00221A70204604B010BD11
:100CD000074A13780133DBB21370092BF5D9FFF7FC
:100CE00093FF034B00221A70EFE700BFE8010020DA
:100CF0005401002000B587B002468DF817100A2372
:100D00000293012301930DF1170100915021024834
:100D100002F0D2FE07B000BDE801002010B5094C7A
:100D200000220221204602F0BEF9012002F09CFAC6
:100D300001220221204602F0B6F94FF42F7002F092
:100D400093FA10BD0004024010B582B000248DF863
:100D50000740FFF7E3FF03E00A2002F085FA0134C1
:100D6000092C0BDC01220DF107010020FFF79CFF8D
:100D70000028F1D19DF80730A02BEDD19DF8073068
:100D8000A02B02D0002002B010BD00213D20FFF7B3
:100D9000B1FF08B10020F6E7142002F065FA002147
:100DA0000720FFF7A7FF00213E20FFF7A3FF08B1B0
:100DB0000020E8E70A2002F057FA00213F20FFF761
:100DC00099FF0A2002F050FA00213B20FFF792FF22
:100DD00008213D20FFF78EFF08B10020D3E7142043
:100DE00002F042FA0120CEE710B582B00446062296
:100DF00069461A20FFF758FF88BB9DF801301B0297
:100E00001BB29DF80020134306EE903A9DF8033084
:100E10001B021BB29DF80220134307EE103A9DF807
:100E200005301B021BB29DF80420134307EE903AD5
:100E3000F8EEE66A9FED0B6A66EE866AC4ED006A1C
:100E4000B8EEC77A27EE067A84ED017AF8EEE77AF3
:100E500067EE867AC4ED027A012002B010BD002050
:100E6000FBE700BF0000803D00B583B000238DF894
:100E7000073001220DF107013520FFF715FF9DF81E
:100E8000070003B000BD000003E0DFED0C7A30EE98
:100E9000670ADFED0B7AB4EEE70AF1EE10FAF4DC44
:100EA00003E0DFED067A30EE270ADFED067AB4EED6
:100EB000E70AF1EE10FAF4D9704700BF0000B4431E
:100EC00000003443000034C3B4EEE00AF1EE10FA3F
:100ED00005D4B4EEC10AF1EE10FA03DC7047B0EEAF
:100EE000600A7047B0EE410A704710B1502802D82E
:100EF0007047502070475020704700231A4604E086
:100F000030F813C062440133DBB28B42F8D307EEF2
:100F1000902AF8EE677A07EE101AB8EE470A87EEC5
:100F2000800A7047024B1870024B1960704700BF6F
:100F3000A4010020A001002008B5034682680949E9
:100F40000A600949002008600849FF200870002055
:100F50000749087007490A601969074B1960FFF7CC
:100F6000E1FF08BD940100208801002084010020D9
:100F70009D010020800100207C01002008B54388ED
:100F8000828802F1050C634513DD114B00221A70B3
:100F90000023104A1370104A137083680F4A1360BD
:100FA0000F4A136001690F4B19600220FFF7BAFF67
:100FB00008BD05339A4203DD054B01221A70E7E7AD
:100FC0000029E5D0024A137883F001031370DFE7AC
:100FD0009F0100209E0100209C010020980100201C
:100FE000900100208C01002008B5428883889A4235
:100FF00007D2074B01221A7001690520FFF792FF03
:1010000008BD9A42F8D9024B00221A70F4E700BFDB
:101010009F01002010B50446FFF79CFD21690420C4
:10102000FFF780FF10BD10B50446FFF7C7FD21692B
:101030000120FFF777FF10BD08B5837953B9036925
:101040000B4A12689B1A40F2DC5293420BD8FFF70E
:1010500081FD08BD0388132B02D8FFF7E4FFF8E7F2
:10106000FFF76AFFF5E70021FFF788FFF1E700BF10
:10107000A001002070B52DED068B82B00546784E9C
:1010800034784088FFF731FF764B23F81400A888A6
:10109000FFF72BFF744B23F814000134734BA3FBB1
:1010A000042303F4FE7202EB9303E41A3470704BD2
:1010B0001B78042B02D801336D4A13706C4B1C78DB
:1010C00021466848FFF719FFF0EE408A214666483E
:1010D000FFF713FF78EEC08A2B88362B00F285804D
:1010E00007EE903AF8EE677A9FED620A70EE677A43
:1010F000B7EE001ADFED600A9FED600A87EE800A06
:10110000FFF7E2FEF0EE409AB3EE0C9A29EE899AD0
:10111000F2EE047A39EE279AF0EEE87AB0EE007A31
:10112000F4EEC77AF1EE10FA62D89FED538A544B71
:1011300083ED008A2A69534B1A60B0EEC87AC7EE75
:10114000097AB2EE0A7A67EE877A9FED4F1A71EE4E
:10115000677ADFED4E0A37EEE00A20EE290A37EE15
:10116000C00AFFF7B1FEF0EE408A9FED49AADFED1D
:10117000429AB0EE4A1AF0EE690A30EE480AFFF7DA
:10118000A3FEB0EE409AB0EE4A1AF0EE690A38EECD
:10119000280AFFF799FEF0EE408AF6EE009A39EE43
:1011A000299AFDEEC97ACDED007A9DF90000FFF78E
:1011B00031FC78EEA98AFDEEE87ACDED017A9DF951
:1011C0000400FFF761FC334B83ED008A324B0022B1
:1011D0001A70BDF90030314A1380BDF90430304A2D
:1011E000138002B0BDEC068B70BDDFED239A8BE758
:1011F000244B1B6893B12A6993422DD2D21A07EE71
:10120000902AF8EE677A9FED271ADFED270A9FED07
:10121000270A87EE800AFFF757FE01E09FED240AB8
:10122000174C94ED007A38EEC77AC7EE007A9FED3E
:10123000210A28EE800A9FED207A67EE877AB0EEC9
:10124000491AF1EE490A30EE270AFFF73DFEB0EEEB
:10125000408AC4ED008A6DE79FED150AE0E700BF04
:101260007A0100207001002064010020CDCCCCCC9C
:101270006001002000005C420000000000000C4201
:101280005C010020580100200000344200000042B0
:101290000000C842B0010020B4010020AE010020CF
:1012A000AC010020CDCCCC3D0AD7A33B00007A4452
:1012B0000AD7A33CCDCC4C3F295C0F3D08B5C37980
:1012C000042B0CD80388132B0CD9838842889342B3
:1012D00028BF1346042B08D9FFF7CCFE08BDFFF743
:1012E00099FEFBE7FFF79FFEF8E7FFF77DFEF5E7C6
:1012F00010B504462020FFF701FC064B1B78FF2B9E
:1013000002D00133034A137021690320FFF70AFE5C
:1013100010BD00BF9D0100200369124A12689B1A8C
:10132000772B00D8704710B50446FFF713FC2388CD
:101330000B2B09D86388052B06D8A388052B03D867
:10134000094B1B78022B08D9074B1978003918BFB5
:1013500001212046FFF712FE10BD2046FFF7C8FF0F
:10136000FAE700BFA00100209D01002008B5036935
:10137000054A12689B1A772B03D82020FFF7BEFB83
:1013800008BDFFF750FEFBE7A001002070B52DED72
:10139000028B044603880B2B09D84388052B06D8FB
:1013A0008388052B03D85C4B1B78022B63D9257BE4
:1013B000002D63D12269594B1B68D31A40F6C41122
:1013C0008B420ED9544B1B78022B40F28880544933
:1013D0000B7883F001030B70504B1A60A168514BDE
:1013E00019604E4B1B68D31A952B1CD94E4B1B789A
:1013F000CBB94B490878002875D16188002874D191
:10140000A68805290FD8053189B2B1420BD280F0E8
:10141000010043490870013343490B703F4B1A6088
:10142000A268404B1A602388252B60D9A279002A34
:101430005DD03E4B1B78FF2B02D001333B4A13702B
:101440003A4B1B78022B57D98DB194ED020A354BDC
:10145000D3ED007A30EE670AFFF716FDB0EEC00A52
:10146000F3EE097AB4EEE70AF1EE10FA44DB204617
:10147000FFF762FD47E0FFF73BFF44E094ED028A8F
:10148000284B93ED000A38EE400AFFF7FDFC284B8D
:1014900083ED000A2669274B1B68F31AB3F5C87F52
:1014A00088D3254B93ED000A38EE400AFFF7ECFC99
:1014B000B0EEC00AF2EE007AB4EEE70AF1EE10FAEE
:1014C00003D5154B1B78022B05D91B4B83ED008AE6
:1014D000184B1E606EE72046FFF70AFF13E0204618
:1014E000FFF706FF0FE0A18888E7668889E7252BCC
:1014F00002D80E4B00221A70094B1B7833B91E21FB
:101500002820FFF707FBBDEC028B70BD1E212820B1
:10151000FFF710FBF7E700BF9D010020A0010020AE
:101520009F010020980100209E0100209C010020C6
:10153000A80100208C0100209001002008B503883C
:10154000132B1CD983884288934228BF1346072B4C
:1015500018D802690F4B1B68D31AB3F5167F06D94A
:101560000D490B7883F001030B700A4B1A600A4B8C
:101570001B7853B91E212820FFF7CCFA08BDFFF7CE
:1015800052FDFBE7FFF7D8FCF8E71E212820FFF704
:10159000D1FAF3E7A00100209F0100200023094AAF
:1015A0001370094A1360094A1370094A1370094AF3
:1015B0001370094A1370094B00221A60084BFF226E
:1015C0001A707047A4010020A00100209F01002094
:1015D0009E0100209D0100209C0100208801002028
:1015E0008401002008B5174B1B78052B23D8DFE8B2
:1015F00003F0031316191C1FFFF760FE114B1B7835
:10160000DBB2114A1370114B1A78114B1A70114B3F
:101610001A78114B1A7008BDFFF77EFEEEE7FFF750
:10162000B5FEEBE7FFF7A2FEE8E7FFF705FDE5E70C
:10163000FFF784FFE2E7FFF78DFA024B00221A70F2
:10164000DCE700BFA4010020B50100209F010020BD
:10165000A60100209D010020A5010020014B187863
:10166000704700BFA40100200268844B9A4200D05A
:10167000704710B5037F012B05D0022B56D0042BE9
:1016800000F0A78010BD7E4B1B78002B39D07C4B1F
:101690001B78012BF6D100217A4800F091FB80B233
:1016A000794B18801B889BB2784A128892B29B1A99
:1016B0009BB2774A1380128892B2764BA3FB021337
:1016C0005B09392A0DD9C82B28BFC823724A138059
:1016D000724B01221A70724B186810B1114604F057
:1016E00078FB674B00221A70664B1B681A6A22F05F
:1016F0000A021A621A6A1A62DA6822F00202DA60D0
:10170000C0E7604C0021204600F05AFB80B25F4BDE
:1017100018805B4B01221A7023681A6A22F00A02B1
:101720001A621A6A42F002021A62ABE7544B5B7803
:10173000002B39D0524B5B78012BA3D104215148A7
:1017400000F03EFB83B2504A538053889BB24F4A0D
:10175000528892B29B1A9BB24D4A5380528892B2E1
:101760004C4BA3FB02135B09392A0DD9C82B28BFA8
:10177000C823494A5380494B01225A70484B186884
:1017800010B1022104F025FB3D4B00225A703D4B65
:101790001B681A6A22F0A0021A621A6A1A62DA68D0
:1017A00022F00402DA606DE7364C0421204600F096
:1017B00007FB80B2354B5880314B01225A702368A9
:1017C0001A6A22F0A0021A621A6A42F020021A6211
:1017D00058E72B4B9B78002B3AD0294B9B78012B59
:1017E0007FF450AF0821274800F0EAFA83B2264A76
:1017F000938093889BB2254A928892B29B1A9BB29F
:10180000234A9380928892B2224BA3FB02135B0976
:10181000392A0DD9C82B28BFC8231F4A93801F4BD4
:1018200001229A701E4B186810B1042104F0D1FAFD
:10183000134B00229A70134B1B681A6A22F4206221
:101840001A621A6A1A62DA6822F00802DA6019E784
:101850000C4C0821204600F0B3FA80B20B4B988064
:10186000074B01229A7023681A6A22F420621A62D6
:101870001A6A42F400721A6204E700BF00040040D2
:10188000C80100200C010020D4010020DC01002050
:10189000CC01002009CB3D8DC0010020BC010020FF
:1018A000B801002010B5084B1860084C00212046F4
:1018B00000F06EFE0421204600F06AFE082120465A
:1018C00000F066FE10BD00BFB80100200C01002032
:1018D0002DE9F84F04460F461546434BC82223F81E
:1018E0001020424B00221A54414B33F81010414B48
:1018F00053F8200001F0D0FB012850D03E4B1B686C
:10190000DA683E4951F8246022EA0602DA603C4A6D
:10191000002111553B4A52F82420002A43D1196A6C
:1019200021F00A011962002A50D11A6A1A62364A55
:1019300052F82420D2431A614FF0010B0BFA04F83D
:10194000404604F07FFA314B53F82490304B33F883
:1019500014A05A465146484601F0A5FB0A20FFF75D
:1019600041F800225146484601F09DFB224B1B687E
:10197000DA681643DE603A460021404604F08DFAEC
:1019800004F050FD194B1E5DF6B2174B33F81440AE
:10199000A4B204F069FD2C803046BDE8F88FC8235E
:1019A0002B800026F8E7042A06D0082A09D0196AF5
:1019B00021F420411962B6E7196A21F0A0011962E9
:1019C000B1E7196A21F420611962ACE7042A04D056
:1019D000082A05D01A6A1A62A9E71A6A1A62A6E7E3
:1019E0001A6A1A62A3E700BFC0010020BC010020F0
:1019F00018690008206900080C01002038690008F7
:101A0000C8010020446900082C69000858690008D2
:101A10005069000810B588B0102900D910210023A2
:101A200008E030F813C008AA02EB430222F820CCE9
:101A30000133DBB29942F4D84FF0010E1AE05A1C80
:101A400008AC04EB420222F8200C013B5BB2002BF5
:101A500006DB08AA02EB430232F8200C6045EED800
:101A6000013308AA02EB430323F820CC0EF1010E48
:101A70005FFA8EFE714508D908AB03EB4E0333F8CD
:101A800020CC0EF1FF335BB2E1E701F0FE0320331F
:101A90006B4433F8200C08B010BD84460088012345
:101AA00001E00133DBB28B4205D23CF813208242C5
:101AB000F7D21046F5E7704708B5FFF74BF8FEE799
:101AC00008B5FFF747F8FEE708B5FFF743F8FEE76C
:101AD00008B5FFF73FF8FEE708B5FFF73BF8FEE76C
:101AE000704708B501F0AEFB03F0F4FC012800D10B
:101AF00008BD04F007FDFBE708B5012001F0DAFAA4
:101B000008BD000008B5024800F077F908BD00BF25
:101B10000C01002000B583B0002200920D4B596CDF
:101B200041F480415964596C01F48041009100995D
:101B30000192196C41F0805119641B6C03F08053C1
:101B40000193019B0F216FF0010001F013FB03B023
:101B500000BD00BF0038024030B4026A036A23F0BF
:101B6000010303624568836923F073030C681C4317
:101B700022F002028B6813430B4A904206D0456064
:101B800084614A684263036230BC704723F00803F3
:101B9000CA681A4322F0040325F440754A692A43AF
:101BA0008D691543EBE700BF0000014030B4036AC4
:101BB000026A22F4807202624468C26922F07302EF
:101BC0000D68154323F400738A6843EA02230D4A23
:101BD000904206D04460C5614A68C263036230BC6B
:101BE000704723F40063CA6843EA022323F4806346
:101BF00024F440544A6944EA02148A6944EA02140B
:101C0000E8E700BF0000014030B4036A026A22F432
:101C1000805202624468C26922F4E6420D6842EAD8
:101C2000052223F400538D6843EA0533074DA8428B
:101C300006D04460C2614A680264036230BC7047E7
:101C400024F480444D6944EA8514F2E70000014021
:101C500010B4036A046A24F001040462846924F065
:101C6000F00C4CEA021223F00A030B438261036278
:101C70005DF8044B704730B4056A046A24F0100420
:101C80000462846924F4407C4CEA022C2CF4704CED
:101C90001B039BB243EA0C0325F0A005090101F0E8
:101CA000A00129438361016230BC704710B4036A0C
:101CB000046A24F010040462846924F4704C4CEA31
:101CC000023223F0A00343EA0113826103625DF84C
:101CD000044B704730B4056A046A24F480740462CB
:101CE000C46924F0030C4CEA020C2CF0F00C1B012C
:101CF000DBB243EA0C0325F42065090201F42061FC
:101D00002943C361016230BC704730B4056A046A7C
:101D100024F480540462C46924F4407C4CEA022C0C
:101D20002CF4704C1B039BB243EA0C0325F42045B2
:101D3000090301F420412943C361016230BC7047AB
:101D4000836823F070030B4343F0070383607047FD
:101D500090F83D30012B2AD1022380F83D300368F2
:101D6000154A934218D0B3F1804F15D0A2F57C42AA
:101D7000934211D002F5806293420DD002F5806249
:101D8000934209D002F59A32934205D01A6842F084
:101D900001021A60002070479A6802F00702062AC2
:101DA00007D01A6842F001021A6000207047012033
:101DB00070470020704700BF000001407047704727
:101DC0000C2914D8DFE801F0071313130A131313B7
:101DD0000D13131310000368586B70470368986B5A
:101DE00070470368D86B70470368186C7047002011
:101DF0007047704770477047704770B50446036876
:101E0000DE681D6915F0020F10D016F0020F0DD01C
:101E10006FF002021A610123037703689B6913F0D4
:101E2000030F5ED0FFF720FC0023237715F0040F8B
:101E300012D016F0040F0FD023686FF004021A615D
:101E40000223237723689B6913F4407F4FD02046F9
:101E5000FFF70AFC0023237715F0080F12D016F0C5
:101E6000080F0FD023686FF008021A61042323774C
:101E70002368DB6913F0030F40D02046FFF7F4FB23
:101E80000023237715F0100F12D016F0100F0FD08B
:101E900023686FF010021A61082323772368DB6937
:101EA00013F4407F31D02046FFF7DEFB0023237779
:101EB00015F0010F02D016F0010F2DD115F0800F93
:101EC00002D016F0800F2FD115F0400F02D016F07F
:101ED000400F31D115F0200F02D016F0200F33D172
:101EE00070BDFFF787FF2046FFF785FF9CE7204680
:101EF000FFF780FF2046FFF77EFFABE72046FFF7A6
:101F000079FF2046FFF777FFBAE72046FFF772FF19
:101F10002046FFF770FFC9E723686FF001021A61DE
:101F20002046FFF766FFC9E723686FF080021A6159
:101F3000204600F02EFCC7E723686FF040021A61CC
:101F40002046FFF759FFC5E723686FF020021A61AA
:101F5000204600F01DFCC3E70368274A90420ED0DC
:101F6000B0F1804F0BD0A2F57C42904207D002F531
:101F70008062904203D002F58062904203D123F048
:101F800070034A6813431C4A90421AD0B0F1804F44
:101F900017D0A2F57C42904213D002F580629042A5
:101FA0000FD002F5806290420BD002F59A32904237
:101FB00007D002F58062904203D002F58062904221
:101FC00003D123F44073CA68134323F080034A69A2
:101FD00013438A68C2620A688262074A904207D045
:101FE000026842F00402026001224261036070470D
:101FF0000A690263F4E700BF0000014040B310B576
:10200000044690F83D30F3B1022384F83D30214678
:1020100051F8040BFFF7A0FF012384F8463084F841
:102020003E3084F83F3084F8403084F8413084F802
:10203000423084F8433084F8443084F8453084F8E2
:102040003D30002010BD80F83C30FEF7C9FBDBE7D7
:102050000120704740B310B5044690F83D30F3B10D
:10206000022384F83D30214651F8040BFFF774FF3A
:10207000012384F8463084F83E3084F83F3084F8F9
:10208000403084F8413084F8423084F8433084F89A
:10209000443084F8453084F83D30002010BD80F88D
:1020A0003C30FFF78BFEDBE70120704740B310B5F3
:1020B000044690F83D30F3B1022384F83D302146C8
:1020C00051F8040BFFF748FF012384F8463084F8E9
:1020D0003E3084F83F3084F8403084F8413084F852
:1020E000423084F8433084F8443084F8453084F832
:1020F0003D30002010BD80F83C30FFF760FEDBE78C
:102100000120704730B4036A026A22F010020262B2
:102110004468826922F4E6420D6842EA052223F00F
:1021200020038D6843EA05130C4DA84206D0446095
:1021300082614A688263036230BC704723F0800387
:10214000CD6843EA051323F0400324F440644D694D
:1021500044EA85048D6944EA8504E8E7000001400B
:1021600038B590F83C30012B66D004460D4601236B
:1021700080F83C300C2A5AD8DFE802F00759595948
:102180001B5959593059595944000068FFF7E4FC6C
:102190002268936943F0080393612268936923F0EE
:1021A000040393612268936929690B4393610020BA
:1021B0003EE00068FFF7A6FF2268936943F40063DE
:1021C00093612268936923F4806393612268936921
:1021D000296943EA01239361002029E00068FFF7A1
:1021E000E5FC2268D36943F00803D3612268D36910
:1021F00023F00403D3612268D36929690B43D361B7
:10220000002015E00068FFF7FFFC2268D36943F463
:102210000063D3612268D36923F48063D3612268A9
:10222000D369296943EA0123D361002000E001203A
:10223000002384F83C3038BD0220FCE770B494469B
:10224000066A046A24F0010404628469144DA842F9
:1022500014D0B0F1804F11D0124A90420ED002F546
:10226000806290420AD002F58062904206D002F568
:102270009A32904202D044F0010203E024F00302BB
:1022800042EA0C0222F0F0021B01DBB2134326F0FB
:102290000A0201F00A0111438361016270BC7047B8
:1022A000000001400004004038B590F83C30012B9C
:1022B0005ED004460D46012380F83C300C2A52D8EB
:1022C000DFE802F007515151195151512C51515130
:1022D0003E00CB684A6809680068FFF7AFFF2268D4
:1022E000936923F00C03936122689369A9680B43F7
:1022F0009361002038E0CB684A6809680068FFF7FE
:10230000BAFC2268936923F440639361226893695D
:10231000A96843EA01239361002025E0CB684A685D
:1023200009680068FFF7D6FC2268D36923F00C0324
:10233000D3612268D369A9680B43D361002013E0FD
:10234000CB684A6809680068FFF7DFFC2268D36938
:1023500023F44063D3612268D369A96843EA012367
:10236000D361002000E00120002384F83C3038BD18
:102370000220FCE710B4846824F47F4C42EA032274
:102380000A4342EA0C0282605DF8044B704790F801
:102390003C30012B78D010B50446012380F83C3046
:1023A000022380F83D300268936823F47F4323F0D2
:1023B000770393600B68602B4CD023D8402B54D00C
:1023C00011D8202B03D00AD80BB1102B05D11946F8
:1023D0002068FFF7B5FC002028E0012026E0302B24
:1023E000F5D0012022E0502B0AD1CA684968006864
:1023F000FFF72EFC50212068FFF7A2FC002015E01B
:10240000012013E0B3F5805F3AD0B3F5005F14D03C
:10241000702B37D1CB684A6889680068FFF7AAFF3C
:102420002268936843F0770393600020012384F8C7
:102430003D30002384F83C3010BDCB684A68896881
:102440000068FFF797FF2268936843F48043936026
:102450000020EBE7CA6849680068FFF727FC6021A5
:102460002068FFF76DFC0020E0E7CA684968006853
:10247000FFF7EEFB40212068FFF762FC0020D5E764
:102480000020D3E70120D1E70220704701F01F01AF
:102490004FF0010C0CFA01FC036A23EA0C030362FF
:1024A000036A8A40134303627047000010B5044674
:1024B000084689BB94F83E30013B18BF0123002B2E
:1024C00060D100283ED1022384F83E30012201462B
:1024D0002068FFF7DBFF23682C4A934242D0236831
:1024E0002A4A934243D0B3F1804F40D0A2F57C42B8
:1024F00093423CD002F58062934238D002F580626C
:10250000934234D002F59A32934230D01A6842F0A6
:1025100001021A60002034E0042907D008290BD0FA
:1025200094F84130013B18BF0123C8E794F83F30CD
:10253000013B18BF0123C2E794F84030013B18BFAC
:102540000123BCE7042805D0082807D0022384F81B
:102550004130BBE7022384F83F30B7E7022384F819
:102560004030B3E75A6C42F400425A64B7E79A68C5
:1025700002F00702062A07D01A6842F001021A6028
:10258000002010BD0120FCE70020FAE70000014018
:1025900010B504460B4600293BD190F83E00C0B26E
:1025A00094F84220D2B2012840F0AB80012A40F0DA
:1025B000A980002B4CD1022284F83E2084F84220CE
:1025C0002168CA6842F00202CA60012219462068E6
:1025D000FFF75CFF23684E4A934200F08780B3F117
:1025E000804F00F08380A2F57C4293427ED002F5BA
:1025F000806293427AD002F58062934276D002F5EF
:102600009A32934272D01A6842F001021A60002096
:1026100078E004290CD008290ED090F84100C0B20F
:10262000042B0DD0082B0FD094F84520D2B2BAE776
:1026300090F83F00C0B2F3E790F84000C0B2EFE777
:1026400094F84320D2B2AEE794F84420D2B2AAE77D
:10265000042B2BD0082B2DD0022184F84110042B01
:102660002CD0082B33D0022184F845100C2B4AD8EB
:1026700001A151F823F000BFC12500080727000879
:102680000727000807270008C326000807270008B7
:102690000727000807270008D52600080727000895
:1026A0000727000807270008E1260008022184F810
:1026B0003F10D4E7022184F84010D0E7022284F8CA
:1026C00043202168CA6842F00402CA607DE7022202
:1026D00084F844202168CA6842F00802CA6074E79E
:1026E0002168CA6842F01002CA606EE79A6802F078
:1026F0000702062A09D01A6842F001021A60002077
:1027000000E0012010BD1046FCE70020FAE700BF02
:102710000000014090F83C20012A35D010B4034657
:10272000012280F83C20022280F83D200268506897
:10273000946820F0700C086840EA0C0050601A6839
:102740001248824212D0B2F1804F0FD0A0F57C40E7
:1027500082420BD000F58060824207D000F5806095
:10276000824203D000F59A30824204D124F08004E2
:10277000496821439160012283F83D20002083F8BD
:102780003C005DF8044B7047022070470000014098
:1027900070477047002800F0E08170B582B00446B1
:1027A000036813F0010F3BD09F4B9B6803F00C03B1
:1027B000042B2CD09C4B9B6803F00C03082B21D0DE
:1027C0006368B3F5803F4FD0B3F5A02F52D0964B3E
:1027D0001A6822F480321A601A6822F480221A6081
:1027E0006368002B50D000F039FD05468E4B1B6806
:1027F00013F4003F14D100F031FD401B6428F5D9DB
:102800000320B1E1884B5B6813F4800FD8D0864B6E
:102810001B6813F4003F03D06368002B00F09F8116
:10282000236813F0020F54D07F4B9B6813F00C0FFA
:102830003ED07D4B9B6803F00C03082B33D0E3683C
:10284000002B68D0794B01221A6000F007FD054685
:10285000754B1B6813F0020F54D100F0FFFC401BB6
:102860000228F5D903207FE16F4A136843F48033CF
:102870001360B5E76C4B1A6842F480221A601A683C
:1028800042F480321A60ABE700F0E8FC0546664B84
:102890001B6813F4003FC3D000F0E0FC401B642829
:1028A000F5D9032060E1604B5B6813F4800FC6D15B
:1028B0005D4B1B6813F0020F03D0E368012B40F05F
:1028C0005081594A136823F0F803216943EAC10390
:1028D0001360236813F0080F42D063696BB3534B46
:1028E0000122C3F8802E00F0B9FC05464E4B5B6F09
:1028F00013F0020F34D100F0B1FC401B0228F5D9CF
:10290000032031E1484A136823F0F803216943EAC0
:10291000C1031360DDE7454B00221A6000F09EFC06
:102920000546414B1B6813F0020FD2D000F096FC15
:10293000401B0228F5D9032016E13C4B0022C3F8C6
:10294000802E00F08BFC0546374B5B6F13F0020FB7
:1029500006D000F083FC401B0228F5D9032003E1D8
:10296000236813F0040F77D02F4B1B6C13F0805F9C
:1029700033D1002301932C4B1A6C42F080521A641D
:102980001B6C03F080530193019B0125284B1B68AE
:1029900013F4807F23D0A368012B34D0052B38D0CB
:1029A000214B1A6F22F001021A671A6F22F00402FB
:1029B0001A67A368002B3DD000F050FC06461A4B66
:1029C0001B6F13F0020F46D100F048FC801B41F250
:1029D00088339842F3D90320C6E00025D6E7144A8D
:1029E000136843F48073136000F038FC0646104B04
:1029F0001B6813F4807FCED100F030FC801B0228CE
:102A0000F5D90320B0E0084A136F43F001031367C0
:102A1000CFE7054B1A6F42F004021A671A6F42F0B3
:102A200001021A67C5E700BF0038024000004742B4
:102A30000070004000F012FC0646524B1B6F13F072
:102A4000020F08D000F00AFC801B41F28833984244
:102A5000F3D9032088E0EDB9A369002B00F083804F
:102A6000484A926802F00C02082A51D0022B17D073
:102A7000454B00221A6600F0F1FB0446414B1B68EF
:102A800013F0007F42D000F0E9FB001B0228F5D9CB
:102A9000032069E03B4A136C23F080531364DBE7A7
:102AA000394B00221A6600F0D9FB0546354B1B68EE
:102AB00013F0007F06D000F0D1FB401B0228F5D9AF
:102AC000032051E0E369226A1343626A43EA8213F6
:102AD000A26A5208013A43EA0243E26A43EA026305
:102AE000284A5360284B01221A6600F0B7FB0446BF
:102AF000244B1B6813F0007F06D100F0AFFB001BD6
:102B00000228F5D903202FE000202DE000202BE043
:102B1000012B2BD01B4B5B6803F48001E2699142CF
:102B200026D103F03F02216A8A4223D1616A47F627
:102B3000C0721A40B2EB811F1ED103F44031A26A69
:102B40005208013AB1EB024F18D103F07063E26A08
:102B5000B3EB026F14D1002006E001207047012082
:102B600002E0012000E0002002B070BD0120FBE780
:102B70000120F9E70120F7E70120F5E70120F3E75D
:102B80000120F1E7003802400000474208B5264B1B
:102B90009B6803F00C03042B41D0082B41D1224B3E
:102BA0005A6802F03F025B6813F4800F12D01E4B8C
:102BB0005968C1F388111D480023A1FB0001FDF7EE
:102BC0000FFB194B5B68C3F3014301335B00B0FBA0
:102BD000F3F008BD144B5868C0F388104FEA401C4E
:102BE000BCEB000C6EEB0E0E4FEA8E1343EA9C63B7
:102BF0004FEA8C11B1EB0C0163EB0E03DB0043EAEF
:102C00005173C90011EB000C43F10003990200233A
:102C10004FEA8C2041EA9C51FDF7E2FAD1E70348E4
:102C2000D7E70348D5E700BF0038024040787D0170
:102C30000024F400002800F09B8070B50D46044687
:102C40004F4B1B6803F007038B4208D2CBB24C4AB0
:102C50001370136803F007038B4240F08B802368E6
:102C600013F0020F17D013F0040F04D0454A9368F5
:102C700043F4E0539360236813F0080F04D0414AF3
:102C8000936843F4604393603E4A936823F0F003F3
:102C9000A1680B439360236813F0010F32D063687F
:102CA000012B21D09A1E012A25D9364A126812F02A
:102CB000020F61D033498A6822F0030213438B600C
:102CC00000F0CCFA06462F4B9B6803F00C036268B9
:102CD000B3EB820F16D000F0C1FA801B41F28833AB
:102CE0009842F0D9032042E0264A126812F4003FCD
:102CF000E0D101203BE0234A126812F0007FD9D1D5
:102D0000012034E01E4B1B6803F00703AB4207D9D8
:102D1000EAB21B4B1A701B6803F00703AB422DD1BC
:102D2000236813F0040F06D0164A936823F4E05387
:102D3000E1680B439360236813F0080F07D0114A32
:102D4000936823F46043216943EAC1039360FFF76A
:102D50001DFF0C4B9B68C3F303130B4AD35CD84095
:102D60000A4B18600A4B186800F02CFA002070BD5E
:102D7000012070470120FAE70120F8E70120F6E77B
:102D8000003C0240003802406C6900080800002046
:102D900004000020014B1868704700BF08000020A5
:102DA00008B5FFF7F7FF044B9B68C3F38223034A80
:102DB000D35CD84008BD00BF0038024064690008F9
:102DC00000230F2B00F2D78070B582B065E08568D4
:102DD0004FEA430E032404FA0EF425EA0405CC68F6
:102DE00004FA0EF42C438460446824EA02044A681E
:102DF000C2F300129A40224342605CE0DC080834CF
:102E000050F8242003F00705AD004FF00F0E0EFA26
:102E100005FE22EA0E0E0A69AA4042EA0E0240F8B6
:102E200024205CE0042200E0002202FA0EF22A4391
:102E30000234514D45F82420504A94686FEA0C0240
:102E400024EA0C054E6816F4801F01D04CEA0405F4
:102E50004A4CA560E46802EA04054E6816F4001FB7
:102E600001D04CEA0405454CE560646802EA0405BB
:102E70004E6816F4003F01D04CEA04053F4C6560F3
:102E8000246822404D6815F4803F01D04CEA0402CA
:102E90003A4C226001330F2B6BD801229A400C6808
:102EA00004EA020C32EA0404F4D14C6804F003048E
:102EB000013C012C8BD94A6802F00302032A09D095
:102EC000C4685D000322AA4024EA02048A68AA407A
:102ED0002243C2604A6802F00302022A8ED00468CC
:102EE0004FEA430E032202FA0EF224EA02044A6871
:102EF00002F0030202FA0EF2224302604A6812F460
:102F0000403FC7D0002201921D4A546C44F48044D3
:102F10005464526C02F480420192019A9C08A51CF0
:102F2000154A52F8255003F0030E4FEA8E0E0F2279
:102F300002FA0EF225EA0205124A90423FF474AFFB
:102F400002F5806290420ED002F5806290420CD071
:102F500002F5806290420AD002F5806290423FF40E
:102F600061AF072261E701225FE702225DE70322EA
:102F70005BE702B070BD704700380140003C014083
:102F8000003802400000024000230F2B7CD8F0B52F
:102F90002DE0042500E0002505FA0CF5A54257D0E8
:102FA00004685D004FF0030C0CFA05FC24EA0C04E5
:102FB00004604FEAD30E0EF1080E50F82E4003F0D5
:102FC0000706B6000F25B54024EA050440F82E4058
:102FD000C46824EA0C04C460446824EA0202426023
:102FE000826822EA0C02826001330F2B4BD8012247
:102FF0009A4002EA010632EA0104F5D14FEA930E43
:103000000EF10205214C54F8254003F0030C4FEA61
:103010008C0C0F2505FA0CF73C401D4DA842BAD088
:1030200005F58065A8420DD005F58065A8420BD056
:1030300005F58065A84209D005F58065A842A8D0AD
:103040000725A9E70125A7E70225A5E70325A3E7AB
:10305000104C256825EA06052560656825EA060501
:103060006560E56825EA0605E560A56825EA0605C8
:10307000A560064E0EF1020456F8245025EA070515
:1030800046F824508CE7F0BD704700BF003801407F
:1030900000000240003C01400369194201D00120B8
:1030A0007047002070470AB181617047090481614F
:1030B0007047000008B5054B5B69034200D108BDAD
:1030C000024B586101F012F9F9E700BF003C0140E2
:1030D000002807DB00F01F02400901239340024A49
:1030E00042F82030704700BF00E100E0002808DB14
:1030F0000901C9B200F1604000F5614080F8001399
:10310000704700F00F000901C9B2014B1954704714
:1031100014ED00E000B500F00700C0F1070CBCF1B1
:10312000040F28BF4FF0040C031D062B0ED9C31E3D
:103130004FF0FF3E0EFA0CF021EA000199400EFA22
:1031400003FE22EA0E0241EA020000BD0023EFE77F
:10315000074AD36823F4E0631B041B0C000200F44D
:10316000E060034343F0BF6343F40033D360704730
:1031700000ED00E010B50446054BD868C0F302200E
:10318000FFF7C8FF01462046FFF7B0FF10BD00BFA4
:1031900000ED00E008B5FFF79BFF08BD0138B0F176
:1031A000807F0BD24FF0E0235861054AF02182F86E
:1031B00023100020986107221A6170470120704790
:1031C00000ED00E010B504460E4B18680E4B1A785F
:1031D0004FF47A73B3FBF2F3B0FBF3F0FFF7DEFFCB
:1031E00068B90F2C01D901200AE0002221464FF0D6
:1031F000FF30FFF7BFFF054B1C60002000E00120FF
:1032000010BD00BF080000200000002004000020C6
:1032100008B50B4B1A6842F400721A601A6842F43F
:1032200080621A601A6842F480721A600320FFF705
:103230008FFF0F20FFF7C6FFFEF76CFC002008BDD4
:10324000003C0240034A1168034B1B780B44136097
:10325000704700BFE401002000000020014B186807
:10326000704700BFE401002038B50446FFF7F6FFC1
:103270000546B4F1FF3F02D0044B1B781C44FFF716
:10328000EDFF401BA042FAD338BD00BF0000002074
:10329000034AD2F8883043F47003C2F8883070478C
:1032A00000ED00E008B50B480B4B03600B4B43608F
:1032B00000238360C3604FF48042026143618361F5
:1032C000C361036200F000FB00B908BDFDF71EF901
:1032D000FBE700BFE801002000540040A086010089
:1032E00030B589B0002303930493059306930793A5
:1032F0000268144B9A4201D009B030BD00250195F7
:10330000114C236B43F002032363236B03F002038E
:103310000193019B4FF440730393122304930323FF
:1033200006930423079303A90848FFF749FD029574
:10333000236C43F400132364236C03F400130293FF
:10334000029BD9E7005400400038024000040240CC
:1033500002680B4B9A4200D0704710B5094A136CB3
:1033600023F400131364084C4FF480712046FFF7D8
:103370000BFE4FF400712046FFF706FE10BD00BFA4
:1033800000540040003802400004024008B50748DD
:10339000074B03600223436040F6FF73836000F035
:1033A000B7FD00B908BDFDF7B1F8FBE73C0200200E
:1033B0000030004003685A6912F4806F01D1002088
:1033C00070476FF480625A6100230363202280F803
:1033D0003D2080F83E30026C42F00402026480F826
:1033E0003C30012070472DE9F04106460C46174657
:1033F00098463BE0FFF732FF069BC01A404502D8D3
:10340000B8F1000F32D1012D18D033689B6924EA3E
:1034100003039BB2B3FA83F35B099F4226D10023D7
:103420003363202286F83D2086F83E30326C42F02D
:103430002002326486F83C30012027E033685B6963
:1034400024EA03039BB2B3FA83F35B09E5E733682D
:103450005B6924EA030C1FFA8CFCBCFA8CFC4FEA73
:103460005C1C674511D1B8F1FF3FC3D1C4F30745D8
:10347000012DECD033689B6924EA030C1FFA8CFC05
:10348000BCFA8CFC4FEA5C1CEBE70020BDE8F08145
:103490002DE9F84305460E469046994653E01A68D2
:1034A00042F400721A602B686FF480625A61002344
:1034B0002B63202285F83D2085F83E302A6C42F0AF
:1034C00004022A6485F83C3001204AE0FFF7C6FE7A
:1034D000A0EB0900404502D8B8F1000F33D1012F0D
:1034E00017D02B689B6926EA03039BB2003B18BFE9
:1034F000012343B300232B63202285F83D2085F868
:103500003E302A6C42F020022A6485F83C300120CB
:1035100027E02B685B6926EA03039BB2003B18BFD8
:103520000123E6E72B689C6926EA0404A4B2003C68
:1035300018BF0124A4B12B685A6912F4806FAED170
:10354000B8F1FF3FC2D1C6F30747012FEAD12B687C
:103550005C6926EA0404A4B2003C18BF0124E9E730
:103560000020BDE8F88370B504460D461646236872
:103570005B6913F0800F21D12046FFF71BFFF8B9DC
:10358000B5F1FF3FF3D0FFF769FE801BA84201D8D9
:10359000002DECD123685B6913F0800FE7D1002385
:1035A0002363202284F83D2084F83E30226C42F0D0
:1035B0002002226484F83C30012000E0002070BD2D
:1035C0000120FCE72DE9F04385B004460D46914605
:1035D0001F46DDF830800D9E0368196841F4807144
:1035E00019600096434600224FF00111FFF7FBFEE1
:1035F00060B9236805F0FE051D6133464246264941
:103600002046FFF745FF68B1012008E023681B68EA
:1036100013F4807F02D04FF400732364032005B0BD
:10362000BDE8F0830023039323685A6903929B69E2
:103630000393039B324641462046FFF794FF30B97F
:10364000012F0FD123685FFA89F61E61E7E7236C2B
:10365000042B01D00120E2E72268136843F40073D1
:103660001360F7E723684FEA19221A613246414690
:103670002046FFF778FF20B923685FFA89F61E61BC
:10368000CDE7236C042B01D00120C8E72268136822
:1036900043F400731360F7E7020001002DE9F047DF
:1036A00084B004460D46164699460C9FDDF83480DA
:1036B0000268136843F4806313600368196841F477
:1036C00080711960CDF800803B4600224FF0011157
:1036D000FFF789FE70B95FFA85FA236805F0FE05E9
:1036E0001D6143463A4641492046FFF7D1FE68B185
:1036F000012008E023681B6813F4807F02D04FF498
:1037000000732364032004B0BDE8F0870023039313
:1037100023685A6903929B690393039B4246394687
:103720002046FFF720FF80B9B9F1010F18D12368B7
:10373000F6B21E61424639462046FFF714FF68B3D1
:10374000236C042B24D00120DDE7236C042B01D053
:103750000120D8E72268136843F400731360F7E789
:103760002368320A1A61424639462046FFF7FBFEBB
:1037700018B92368F6B21E61DCE7236C042B01D074
:103780000120C0E72268136843F400731360F7E771
:103790002268136843F400731360D4E72268136847
:1037A00043F480731360CDF800803B4600224FF055
:1037B00001112046FFF717FE68B922684AF001039D
:1037C000136143463A4609492046FFF761FE002847
:1037D00099D0012097E723681B6813F4807F02D0FB
:1037E0004FF40073236403208DE700BF0200010043
:1037F00070B504460D46164623685B6913F0040F46
:1038000021D12046FFF7D6FDF8B9B5F1FF3FF3D03F
:10381000FFF724FD801BA84201D8002DECD12368BE
:103820005B6913F0040FE7D100232363202284F89F
:103830003D2084F83E30226C42F02002226484F85D
:103840003C30012000E0002070BD0120FCE770B595
:1038500004460D46164614E06FF010025A6100232C
:103860002363202284F83D2084F83E30226C2264B9
:1038700084F83C30012025E023685B6913F0400F99
:1038800010D02368586910F0400F1AD1586910F011
:10389000100FE1D1FFF7E2FC801BA842ECD8002D0D
:1038A000EFD1E9E700232363202284F83D2084F848
:1038B0003E30226C42F02002226484F83C30012029
:1038C00000E0002070BD0000002800F0CC8070B542
:1038D000044690F83D30002B77D0242384F83D3007
:1038E0002268136823F0010313602268136843F40D
:1038F000004313602268136823F400431360FFF74A
:103900004FFA62685A4B9A4264D85A4B98428CBF1D
:1039100000230123002B40F0A8805749A1FB003170
:103920008B0C25686A6822F03F0242EA91426A6085
:1039300021680A6A22F03F0266684D4DAE424FD8B8
:10394000013313430B622168CA6922F44F4222F00B
:10395000FF026568464B9D424CD8431E6D00B3FB89
:10396000F5F3013340F6FC70034278D0C3F30B0348
:103970001A43CA6121680B6823F0C003E269206A18
:10398000024313430B6021688B6823F4034323F045
:10399000FF032269E068024313438B602168CB6810
:1039A00023F0FF036269A06902431343CB602268DE
:1039B000136843F00103136000202064202384F87F
:1039C0003D30206384F83E0070BD80F83C30FFF746
:1039D00087FC82E7294B98428CBF0023012399E79B
:1039E0004FF4967505FB03F3254DA5FB03539B0987
:1039F0000133A6E7A668BEB9431E05EB450CB3FB31
:103A0000FCF30133C3F30B03B3FA83F35B0943BB4A
:103A1000C6B9431E05EB4505B3FBF5F30133C3F30C
:103A20000B0343F40043A3E7431E05EB850C0CEBAB
:103A30008C0CB3FBFCF30133C3F30B03B3FA83F336
:103A40005B09E4E7431E05EB850505EB8505B3FB44
:103A5000F5F30133C3F30B0343F4404388E7042336
:103A600086E7012384E7012070470120ACE700BF0F
:103A7000A08601007F841E0083DE1B43FF083D00FB
:103A8000D34D6210A8B110B50446242380F83D3010
:103A90000268136823F001031360FFF759FC00204C
:103AA000206484F83D00206384F83E0084F83C00E4
:103AB00010BD0120704700002DE9F04383B004469B
:103AC0000F46904699460C9EFFF7C8FB94F83D20A0
:103AD000202A03D0022003B0BDE8F0830546009001
:103AE000192301224A492046FFF77DFC002840F0B7
:103AF000898094F83C30012B00F08680012384F803
:103B00003C3023681A6812F0010F03D11A6842F0A2
:103B100001021A602268136823F4006313602123F2
:103B200084F83D30402384F83E30002323640A9B10
:103B30006362BDF82C306385638D2385354BE3626A
:103B4000019500964B46424639462046FFF73AFD1E
:103B500000285BD1238D002B35D02A4631462046E4
:103B6000FFF701FD20BB626A236812781A61626A5E
:103B7000531C6362218D013989B22185638D9BB20B
:103B8000013B9BB263852368586910F0040FE1D0B4
:103B90000029DFD052781A61636A01336362238D92
:103BA000013B2385638D9BB2013B9BB26385D1E7CB
:103BB000236C042B01D001208DE72268136843F4A5
:103BC00000731360F7E72A4631462046FFF710FEE0
:103BD00050B1236C042B01D001207CE722681368CC
:103BE00043F400731360F7E72268136843F400732B
:103BF0001360202384F83D30002384F83E3084F89D
:103C00003C3068E7022066E7022064E7012062E7B3
:103C1000020010000000FFFF2DE9F04387B00446CA
:103C20000F4690469946109EFFF718FB94F83D20EA
:103C3000202A04D00227384607B0BDE8F0830546A5
:103C400000901923012289492046FFF7CCFB002868
:103C500040F04E8194F83C30012B00F04B81012361
:103C600084F83C3023681A6812F0010F03D11A68F7
:103C700042F001021A602268136823F400631360A3
:103C8000222384F83D30402384F83E30002323640F
:103C90000E9B6362BDF83C306385638D2385744B56
:103CA000E362019500964B46424639462046FFF7AF
:103CB000F5FC0746002840F01F81238D5BB9029375
:103CC00023685A6902929A690292029A1A6842F427
:103CD00000721A6075E0012B0AD0022B1AD0002363
:103CE000059323685A6905929B690593059B68E0D3
:103CF0002268136823F4806313600023039323680E
:103D00005A6903929A690392039A1A6842F40072FC
:103D10001A6056E02268136823F4806313602268F7
:103D2000136843F4006313600023049323685A6903
:103D300004929B690493049B43E02A463146204643
:103D4000FFF785FD002840F0D98023681A69636A6F
:103D50001A70636A01336362238D013B2385638D8F
:103D60009BB2013B9BB263852BE00095334600225A
:103D700040492046FFF737FB002840F0C180226809
:103D8000136843F40073136023681A69636A1A7036
:103D9000626A531C6362238D013B2385638D9BB252
:103DA000013B9BB2638523681B695370636A0133CF
:103DB0006362238D013B2385638D9BB2013B9BB2E4
:103DC0006385238D002B00F08A80032B54D8012BB0
:103DD000B3D0022BC9D00095334600222549204696
:103DE000FFF701FB002840F08D802268136823F460
:103DF0008063136023681A69636A1A70636A013307
:103E00006362238D013B2385638D9BB2013B9BB293
:103E1000638500953346002216492046FFF7E3FAF2
:103E2000002871D12268136843F40073136023687B
:103E30001A69636A1A70626A531C6362238D013BBC
:103E40002385638D9BB2013B9BB2638523681B690D
:103E50005370636A01336362238D013B2385638D55
:103E60009BB2013B9BB26385ABE700BF0200100031
:103E70000000FFFF040001002A4631462046FFF7FC
:103E8000E6FC002842D123681A69636A1A70636AE3
:103E900001336362228D013A92B22285638D9BB217
:103EA000013B9BB263852368596911F0040F88D0E8
:103EB000032A0FD023681A69636A1A70636A013390
:103EC0006362238D013B2385638D9BB2013B9BB2D3
:103ED000638576E71A6822F480621A60EAE7202395
:103EE00084F83D30002384F83E3084F83C30A2E66C
:103EF0000227A0E602279EE601279CE601279AE614
:103F0000012798E6012796E6012794E6012792E625
:103F100050B338B5044603684CF6CC421A600368C7
:103F200045F255521A60036842685A600368826815
:103F30009A60FFF793F905462368DA6812F0030FD9
:103F40000DD0FFF78BF9401B41F601039842F3D9DE
:103F50002368DB6813F0030FEED0032003E04AF67A
:103F6000AA221A60002038BD0120704703684AF673
:103F7000AA221A600020704700B587B00AE00D48F9
:103F8000FFF7F4FF01A8FDF72DFB002001F090FAE8
:103F9000094B18609623002201A90848006802F026
:103FA0005EF80028EBD0064A136801331360FCF773
:103FB000D1FDEAE73C02002094020020C402002068
:103FC0009C0200202DE9F04188B000210AE001EBBD
:103FD00081021A449B48C82420F812400133042B64
:103FE000F5DD0131022901DC0023F8E701F0EDFEE7
:103FF000FDF758FC944B1A78944B1A70C827B846B2
:10400000ACE0934B1B78FF2B00F0BF800133904A4C
:104010001370BAE05A1E8B4931F8120021F81300D0
:104020001346002BF6DCBDF81820864B1A80B3E04F
:104030000423F6E7ADF80060ADF80280ADF8047037
:104040008DF80640824B1B788DF80730814B1B683A
:1040500002937E4B1B788DF80C30FFF7FFF804902D
:1040600000231A4669467C48006801F0B6FF002824
:1040700000F09D80794A13680133136097E001F1E5
:10408000FF3C704803EB830202EB0C0730F817701B
:104090000A4420F8127061460029F0DC08AA02EBFD
:1040A000430232F8080C03EB8302664921F8120040
:1040B0000133022B08DC03F120026A4412F80C2CB5
:1040C000002AF5D00421E7E7654F05213846FDF7C2
:1040D000A1FC8046052107F10A00FDF79BFC07467D
:1040E000604B1E80604BA3F80080604B1880574BDC
:1040F0001B78002B6CD1544B1B7833B15C4B1B6885
:10410000EB1AB3F5FA7F80F08E80504B1B78594A3A
:104110001370ADF80060ADF80280ADF804708DF852
:1041200006404B4A12788DF807204A4A12680292DC
:104130008DF80C30FFF792F8049000231A46694678
:104140004548006801F049FF18B1444A136801333B
:104150001360002001F0ACF9474B1860FFF77EF8C0
:104160000546464A1368C31A45490B60106006AA03
:1041700019210020FDF7ACFB04468DF8140000283F
:104180003FF43FAF324B00221A70314B1A783D4B4F
:104190001A70002C7FF44CAF03212A48FDF77DFCF8
:1041A0000646FDF75BFA10B9132E7FF643AF0DF10B
:1041B0001A0206210120FDF78BFB8DF8150007AAD6
:1041C00006210220FDF784FB8DF81600012370E71D
:1041D0002048FCF709FEC8B12B4B00221A701D4B7A
:1041E00019682A4A11605968294A11609A68294B4E
:1041F0001A60294B1B68EB1AB3F5FA7F85D3264B5F
:104200001D60FCF731FE254B18707EE71E4A1378BF
:104210000133DBB21370042BEBD90C4B00221A7064
:10422000134B1D60E5E7124B1D600A48FCF7DCFDEF
:1042300000283FF46AAF054B01221A70124B00228E
:104240001A7062E76C020020AA02002068020020B7
:104250006002002054020020C4020020A0020020BE
:1042600076020020C2020020C0020020BE02002010
:104270004C020020A90200209802002064020020C5
:10428000B8020020BC02002050020020B40200202E
:10429000B0020020AC02002048020020A80200204A
:1042A00008B500221421022001F04CFE084B1860D2
:1042B000084A0021084801F02DFD084B1860084A03
:1042C0000021084801F026FD074B186008BD00BF1B
:1042D000C4020020D0690008793F00089002002045
:1042E000AC690008C53F00088C020020012800D0FE
:1042F0007047024A136801331360F9E7A4020020F3
:1043000000F1080343604FF0FF328260C360036135
:1043100000230360704700230361704743684B60CC
:104320009A688A605160996008610368013303608C
:10433000704730B40D68B5F1FF3F11D000F10803AC
:104340001C465B681A68AA42FAD963684B60996098
:104350008C606160086103680133036030BC7047A2
:104360000469F2E70369416882688A6041685160C4
:104370005A68824206D0002202611A68013A1A6025
:104380001868704782685A60F5E710B5044602F075
:1043900049F8A26BE36B9A4204D0002402F064F85F
:1043A000204610BD0124F9E710B5044602F03AF8A2
:1043B000A36B23B9012402F057F8204610BD002456
:1043C000F9E770B504461546866B026C5AB9036866
:1043D0001BB100200136A66370BD806801F08AF829
:1043E0000023A360F6E76DB9406802F025FA636820
:1043F000226C13446360A268934219D323686360FC
:104400002846E7E7C06802F017FAE368226C5142D9
:104410009B1AE3602268934202D2A3680B44E360D4
:10442000022D01D00020D5E726B1013E0020D1E7C2
:104430002846CFE70020CDE70346026C6AB110B5ED
:104440000846D9681144D9609C68A14201D3196813
:10445000D960D96802F0F0F910BD704738B505464B
:1044600001F0E0FF95F8454064B201E0013C64B220
:10447000002C0ADD6B6A43B105F1240000F07CFFDB
:104480000028F3D001F00EF8F0E7FF2385F845305F
:1044900001F0EAFF01F0C6FF95F8444064B201E084
:1044A000013C64B2002C0ADD2B6943B105F1100018
:1044B00000F062FF0028F3D000F0F4FFF0E7FF23E4
:1044C00085F8443001F0D0FF38BD38B5E0B10D4675
:1044D000044601F0A7FF2368E26B216C01FB023068
:1044E000A0600020A0636360013A02FB0133E36037
:1044F000FF2384F8443084F84530FDB9236963B95B
:1045000001F0B2FF012038BD4FF0500383F3118852
:10451000BFF36F8FBFF34F8FFEE704F1100000F081
:104520002BFF0028ECD04FF0E0234FF08052C3F86F
:10453000042DBFF34F8FBFF36F8FE1E704F110003D
:10454000FFF7DEFE04F12400FFF7DAFED8E738B506
:104550001D46049C0B4649B92460E0632364012195
:104560002046FFF7B2FF84F84C5038BD2260F4E7D4
:1045700040B94FF0500383F31188BFF36F8FBFF33F
:104580004F8FFEE710B584B01C46844653B192B1FC
:1045900089B94FF0500383F31188BFF36F8FBFF3D6
:1045A0004F8FFEE74FF0500383F31188BFF36F8FF7
:1045B000BFF34F8FFEE76AB150230393039B502B49
:1045C00013D04FF0500383F31188BFF36F8FBFF305
:1045D0004F8FFEE70029EFD04FF0500383F311888F
:1045E000BFF36F8FBFF34F8FFEE7039B012384F868
:1045F000463000949DF818306046FFF7A8FF20462B
:1046000004B010BD40B94FF0500383F31188BFF3DD
:104610006F8FBFF34F8FFEE7F0B583B00D461446A2
:10462000064601FB00F0503001F0D6FD074650B1C0
:10463000002380F846300090234600F150022946BE
:104640003046FFF784FF384603B0F0BDF0B585B0C3
:10465000019288B10F461D460446B1B1022D20D10A
:10466000E36B012B1DD04FF0500383F31188BFF390
:104670006F8FBFF34F8FFEE74FF0500383F3118826
:10468000BFF36F8FBFF34F8FFEE7036C002BE5D0B6
:104690004FF0500383F31188BFF36F8FBFF34F8F39
:1046A000FEE700F017FF064658B9019B002B48D0E3
:1046B0004FF0500383F31188BFF36F8FBFF34F8F19
:1046C000FEE700263DE02A4639462046FFF779FE00
:1046D000636A7BB948B14FF0E0234FF08052C3F8D2
:1046E000042DBFF34F8FBFF36F8F01F0BDFE01208C
:1046F00005B0F0BD04F1240000F03EFE0028F4D027
:104700004FF0E0234FF08052C3F8042DBFF34F8FDA
:10471000BFF36F8FE9E701F0A7FE0020E8E702A8EA
:1047200000F070FE012619E0002384F8443021E0F7
:10473000002384F8453023E02046FFF78FFE00F089
:1047400019FD01F06FFEA26BE36B9A42BBD3022D01
:10475000B9D0019B002BDED0002EE0D001F084FE0A
:1047600000F06EFC01F05EFE94F8442052B2B2F10B
:10477000FF3FD9D094F8452052B2B2F1FF3FD7D0D5
:1047800001F072FE01A902A800F048FED8B9204647
:10479000FFF7FBFD0028CFD0019904F1100000F0D5
:1047A000B7FD2046FFF75AFE00F0E4FC0028C8D110
:1047B0004FF0E0234FF08052C3F8042DBFF34F8F2A
:1047C000BFF36F8FBDE72046FFF748FE00F0D2FC35
:1047D00000208DE72DE9F84390B10F4616461C46A0
:1047E0000546B1B1022C20D1EB6B012B1DD04FF04F
:1047F000500383F31188BFF36F8FBFF34F8FFEE732
:104800004FF0500383F31188BFF36F8FBFF34F8FC7
:10481000FEE7036C002BE5D04FF0500383F31188C3
:10482000BFF36F8FBFF34F8FFEE701F021FFEFF370
:1048300011884FF0500383F31188BFF36F8FBFF3DC
:104840004F8FAA6BEB6B9A4206D3022C04D0002048
:1048500088F31188BDE8F88395F845904FFA89F9F7
:10486000AB6B224639462846FFF7ABFDB9F1FF3F57
:1048700006D009F101035BB285F845300120E7E776
:104880006B6A0BB90120E3E705F1240000F074FD29
:1048900018B126B101203060DAE70120D8E7012005
:1048A000D6E7F0B585B0019290B10F460446C1B18C
:1048B00000F010FE064600BB019B002B5ED04FF0BF
:1048C000500383F31188BFF36F8FBFF34F8FFEE761
:1048D0004FF0500383F31188BFF36F8FBFF34F8FF7
:1048E000FEE7036C002BE3D04FF0500383F31188F5
:1048F000BFF36F8FBFF34F8FFEE700263EE03946D0
:104900002046FFF799FD013DA563236923B901F016
:10491000ABFD012005B0F0BD04F1100000F02CFD4E
:104920000028F4D04FF0E0234FF08052C3F8042D5C
:10493000BFF34F8FBFF36F8FE9E701F095FD0020C4
:10494000E8E702A800F05EFD012621E0002384F8DC
:10495000443029E0002384F845302BE02046FFF75F
:104960007DFD00F007FC09E02046FFF777FD00F031
:1049700001FC2046FFF718FD00283FD101F052FD51
:10498000A56B002DBBD1019B002BD6D0002ED8D01B
:1049900001F06AFD00F054FB01F044FD94F844304E
:1049A0005BB2B3F1FF3FD1D094F845305BB2B3F1C5
:1049B000FF3FCFD001F058FD01A902A800F02EFD65
:1049C0000028D1D12046FFF7EFFC0028C6D001997E
:1049D00004F1240000F09CFC2046FFF73FFD00F0AE
:1049E000C9FB0028CAD14FF0E0234FF08052C3F832
:1049F000042DBFF34F8FBFF36F8FBFE7002089E710
:104A00002DE9F843B0B10D4690460446D9B101F006
:104A10002FFEEFF311874FF0500383F31188BFF39C
:104A20006F8FBFF34F8FA66BCEB9002087F311882D
:104A3000BDE8F8834FF0500383F31188BFF36F8F05
:104A4000BFF34F8FFEE7036C002BE0D04FF0500315
:104A500083F31188BFF36F8FBFF34F8FFEE794F896
:104A600044904FFA89F929462046FFF7E5FC731E6A
:104A7000A363B9F1FF3F06D009F101035BB284F8EB
:104A800044300120D2E723690BB90120CEE704F1BD
:104A9000100000F071FC30B1B8F1000F05D001201A
:104AA000C8F80000C2E70120C0E70120BEE700000F
:104AB0000023072B0CD8074A52F833200AB10133E0
:104AC000F7E7044A42F8331002EBC3025060704724
:104AD000704700BFC802002070B504460D46164658
:104AE00001F0A0FC94F844305BB2B3F1FF3F0DD06D
:104AF00094F845305BB2B3F1FF3F0BD001F0B4FC4A
:104B0000A36B5BB12046FFF7A9FC70BD002384F8BE
:104B10004430EDE7002384F84530EFE7324629467C
:104B200004F1240000F00CFCECE7002301E001306C
:104B300001330278A52AFAD0C3F38F007047000032
:104B4000084B1B681B6823B9074B4FF0FF321A60F4
:104B50007047044B1B68DB68DB685A68024B1A60BD
:104B6000704700BF78030020100300202DE9F047B4
:104B700080460D4617469946089EDDF824A00A9CFB
:104B80009200A521206B01F0CAFD236B07F1804242
:104B9000013A03EB820727F00707002D61D04FF0A1
:104BA000000CBCF10F0F09D815F80C3004EB0C0207
:104BB00082F8343013B10CF1010CF2E7002384F8D1
:104BC0004330372E00D93726E662E6640025256596
:104BD000201DFFF7A0FB04F11800FFF79CFB2461E8
:104BE000C6F13806A6616462C4F8785184F87C5135
:104BF0004FF49072294604F1580001F090FD1B4BD0
:104C0000E36503F168022266D03363660122002364
:104C1000C4E93C2343F20E33A4F8F8304AF6CD330E
:104C2000A4F8FA3041F23423A4F8FC304EF26D635C
:104C3000A4F8FE304DF6EC63A4F800310523A4F887
:104C400002310B23A4F804314A464146384601F0AC
:104C5000C1FB2060BAF1000F01D0CAF80040BDE8E6
:104C6000F087002384F83430ABE700BF644E0020A7
:104C700038B5002407E004EB840293000E48184482
:104C8000FFF73EFB0134372CF5D90C4D2846FFF7D2
:104C900037FB0B4C2046FFF733FB0A48FFF730FB8E
:104CA0000948FFF72DFB0948FFF72AFB084B1D6059
:104CB000084B1C6038BD00BFA403002090030020F7
:104CC0007C030020600300204C03002034030020FC
:104CD000780300207403002010B5044601F0A2FB05
:104CE000224A136801331360214B1B685BB1214BCF
:104CF0001B686BB91E4B1B68DA6AE36A9A4207D8D5
:104D00001B4B1C6004E01A4B1C601368012B29D05C
:104D1000194A1368013313606364E06A174B1B6818
:104D2000984201D9154B186000EB8000211D144BEF
:104D300003EB8000FFF7F2FA01F096FB0D4B1B68C6
:104D40007BB10B4B1B68DA6AE36A9A4209D24FF0D7
:104D5000E0234FF08052C3F8042DBFF34F8FBFF311
:104D60006F8F10BDFFF784FFD2E700BF3003002034
:104D7000040800202403002014030020280300203E
:104D8000A403002010B50446583001F0D1FC94F87B
:104D90007D3163B1012B11D0022B0ED04FF05003A7
:104DA00083F31188BFF36F8FBFF34F8FFEE7206B44
:104DB00001F094FA204601F091FA10BD204601F06E
:104DC0008DFAFAE70F4B1B68D3B110B501F02AFB3F
:104DD0000D4BDB68DC68201DFFF7C4FA0B4A136833
:104DE000013B1360074A1368013B136001F03CFB71
:104DF0002046FFF7C7FF034B1B68002BE6D110BD11
:104E0000704700BF480300204C03002030030020FF
:104E100008B5FFF7D7FF074B1B68012BF9D94FF0F7
:104E2000E0234FF08052C3F8042DBFF34F8FBFF340
:104E30006F8FEEE7A403002070B504460D46174BB4
:104E40001E68174B18680430FFF78CFAB4F1FF3F67
:104E50000DD03444124B1B685C60A64210D9114B34
:104E600018680F4B19680431FFF763FA70BD002D05
:104E7000EFD00B4B196804310B48FFF74FFAF5E7F9
:104E80000A4B1868064B19680431FFF752FA084BB1
:104E90001B68A342EAD9064B1C60E7E72C030020FD
:104EA000040800207403002034030020780300204D
:104EB0001003002030B587B00B9C8CB10C9DC5B1A0
:104EC0004FF4C0750495049DB5F5C07F1AD04FF01E
:104ED000500383F31188BFF36F8FBFF34F8FFEE74B
:104EE0004FF0500383F31188BFF36F8FBFF34F8FE1
:104EF000FEE74FF0500383F31188BFF36F8FBFF3CA
:104F00004F8FFEE7049D0C9D2C63022485F87D41A4
:104F100000240394029505AC01940A9C0094FFF7C9
:104F200025FE0C98FFF7D8FE059807B030BD2DE997
:104F3000F04385B00746884614461E46900001F0AF
:104F40004BF910B381464FF4C07001F045F90546A6
:104F5000A8B1C0F83090002380F87D31039302900F
:104F60000D9B01930C9B00933346224641463846E5
:104F7000FFF7FCFD2846FFF7AFFE012007E048469B
:104F800001F0ACF94FF0FF3001E04FF0FF3005B019
:104F9000BDE8F08310B588B000240594069407AAF4
:104FA00006A905A801F09CF8059B0293069B0193B6
:104FB00000942346079A1A491A48FFF77BFF1A4BB9
:104FC0001860E8B100F0BAFC01281AD14FF0500384
:104FD00083F31188BFF36F8FBFF34F8F134B1B68A1
:104FE0005833134A1360134B4FF0FF321A60124BC1
:104FF00001221A60114B00221A6001F0ADFA03E0A1
:105000000020B0F1FF3F01D008B010BD4FF05003B9
:1050100083F31188BFF36F8FBFF34F8FFEE700BF9D
:1050200094690008114E00080C03002004080020B9
:105030001000002010030020240300202C03002077
:10504000024A136801331360704700BF0803002051
:10505000014B1868704700BF2C030020F8B53A4B8D
:105060001B68002B69D1394B1D6801351D60C5B91E
:10507000374B1B681B6843B14FF0500383F3118813
:10508000BFF36F8FBFF34F8FFEE7314A1168314B8B
:10509000186810601960304A136801331360FFF715
:1050A0004FFD2E4B1B68AB423DD900272C4B1B6894
:1050B000DB6A03EB83039A002A4B9B58012B00D930
:1050C0000127294B1B68002B3CD001273AE0012720
:1050D0001F4B1B681B6843B31D4B1B68DB68DC68F8
:1050E00063689D4226D3261D3046FFF73BF9A36A2D
:1050F0001BB104F11800FFF735F9E36A1B4A126887
:10510000934201D9194A136003EB83039A00314695
:1051100014481044FFF702F9E26A114B1B68DB6A7E
:105120009A42D4D2D4E70027D2E70C4B4FF0FF329B
:105130001A60BBE7094A1360B8E70D4A13680133E8
:10514000136000273846F8BD080300202C03002018
:1051500078030020740300201803002010030020AF
:1051600004080020A40300201C03002028030020C2
:105170002003002038B5354B1B6843B94FF050036E
:1051800083F31188BFF36F8FBFF34F8FFEE701F0FA
:1051900049F92E4B1A68013A1A601B68002B4FD14F
:1051A0002B4B1B680BB900244BE00024294B1B68D8
:1051B0001BB3284BDB68DC6804F11800FFF7D2F85A
:1051C000251D2846FFF7CEF8E06A234B1B6898425E
:1051D00001D9214B186000EB800029461F4B03EBDF
:1051E0008000FFF79BF8E26A1D4B1B68DB6A9A425E
:1051F000DCD31C4B01221A60D8E70CB1FFF7A0FCEE
:10520000194B1C6884B9174B1C68D4B14FF0E023CC
:105210004FF08052C3F8042DBFF34F8FBFF36F8F51
:1052200001240EE0013C07D0FFF718FF0028F9D059
:105230000C4B01221A60F5E70B4B00221A60E2E7E3
:10524000002401F011F9204638BD00BF08030020FA
:10525000300300206003002028030020A403002066
:10526000040800201C03002020030020224B1B68A0
:105270001BB1224B01221A607047204B00221A609A
:105280001F4B1B6803EB83018A001E498A585AB9D9
:105290000BB1013BF6E74FF0500383F31188BFF3E6
:1052A0006F8FBFF34F8FFEE7084603EB83018A0041
:1052B000024451684968516003EB830C4FEA8C0249
:1052C0000832024491420FD003EB830291000D4A51
:1052D0000A445268D1680C4A116009490B6013688E
:1052E00058330A4A13607047486862469100054A7D
:1052F0000A445060E8E700BF080300201C030020B8
:1053000028030020A403002004080020100000202F
:1053100058B110B50C46094A11681831FFF709F861
:1053200001212046FFF788FD10BD4FF0500383F3A5
:105330001188BFF36F8FBFF34F8FFEE70408002083
:1053400038B570B10D4614460A4A11681831FEF797
:10535000E5FF0CB14FF0FF3521462846FFF76CFD05
:1053600038BD4FF0500383F31188BFF36F8FBFF345
:105370004F8FFEE70408002038B5C368DC6824B30B
:1053800004F118052846FEF7EDFF184B1B682BBBF0
:10539000251D2846FEF7E6FFE06A154B1B6898427C
:1053A00001D9134B186000EB80002946114B03EB29
:1053B0008000FEF7B3FFE26A0F4B1B68DB6A9A427C
:1053C00011D901200D4B186038BD4FF0500383F305
:1053D0001188BFF36F8FBFF34F8FFEE72946084850
:1053E000FEF79CFFE7E70020EEE700BF0803002080
:1053F00028030020A4030020040800201C03002030
:1054000060030020034B1B680360034B1B68436071
:10541000704700BF180300202C030020E0B170B5D6
:105420000C46054609B300F0FDFF1C4B19686B687C
:10543000C81A2268B2F1FF3F28D0DFF864C0DCF858
:1054400000C02E68664501D08B4224D9824215D80F
:105450000023236001241AE04FF0500383F31188E6
:10546000BFF36F8FBFF34F8FFEE74FF0500383F30F
:105470001188BFF36F8FBFF34F8FFEE75B1A1344A2
:1054800023602846FFF7BEFF002400E0002400F060
:10549000EBFF204670BD0124F9E700BF2C0300207C
:1054A00018030020014B01221A6070471C030020E2
:1054B00008B5034618B1186BFFF737FB08BD014B61
:1054C0001B68F8E704080020014B1868704700BF0C
:1054D00004080020054B1B6833B1054B1B680BB15A
:1054E00000207047022070470120704724030020ED
:1054F0000803002000283BD038B504461E4B1B682B
:10550000834208D04FF0500383F31188BFF36F8FAD
:10551000BFF34F8FFEE7036D43B94FF0500383F3A2
:105520001188BFF36F8FBFF34F8FFEE7013B036519
:10553000C16AC26C91421DD00BB1002038BD051D5F
:105540002846FEF70FFFE06CE062C0F13803A3616C
:105550000A4B1B68984201D9084B186000EB800089
:105560002946074B03EB8000FEF7D8FE0120E5E754
:10557000002070470020E1E70408002028030020F5
:10558000A4030020F8B506460F4614461D4600F059
:1055900049FF234B1B6893F87C31022B0CD0204A27
:1055A0001168D1F8783123EA0603C1F8783113681D
:1055B000012283F87C21CDB900F056FF00F032FFC4
:1055C00024B1174B1B68D3F878312360144B1B6848
:1055D00093F87C31022B18D00024114B1B68002259
:1055E00083F87C2100F040FF2046F8BD1146284694
:1055F000FFF722FC4FF0E0234FF08052C3F8042D58
:10560000BFF34F8FBFF36F8FD6E7054B1A68D2F801
:10561000783123EA0703C2F878310124DDE700BFBF
:1056200004080020F8B5B0B10F4614461D460646E2
:1056300000F0F8FE15B1D6F878312B6096F87C3181
:10564000DBB2022286F87C21042C27D8DFE804F0A4
:10565000110C181E21004FF0500383F31188BFF383
:105660006F8FBFF34F8FFEE7D6F878213A43C6F825
:105670007821012B20D0012400F0F6FE2046F8BD51
:10568000D6F878210132C6F87821F2E7C6F87871A9
:10569000EFE7022B40D0C6F87871EAE7D6F8782118
:1056A000B2F1FF3FE5D04FF0500383F31188BFF311
:1056B0006F8FBFF34F8FFEE7341D2046FEF752FE7B
:1056C000F06A174B1B68984201D9154B186000EB24
:1056D00080002146134B03EB8000FEF71FFEB36AE8
:1056E00043B14FF0500383F31188BFF36F8FBFF3C3
:1056F0004F8FFEE7F26A0C4B1B68DB6A9A420DD9AA
:105700004FF0E0234FF08052C3F8042DBFF34F8FCA
:10571000BFF36F8F0124AFE70024ADE70124ABE7AF
:1057200028030020A40300200408002018B32DE95A
:10573000F0410F4614461D46064600F099FFEFF370
:1057400011834FF0500282F31188BFF36F8FBFF3C4
:105750004F8F984615B1D6F878312B6096F87C318A
:10576000DBB2022286F87C21042C27D8DFE804F083
:10577000110C181E21004FF0500383F31188BFF362
:105780006F8FBFF34F8FFEE7D6F878213A43C6F804
:105790007821012B20D0012088F31188BDE8F08109
:1057A000D6F878210132C6F87821F2E7C6F8787188
:1057B000EFE7022B46D0C6F87871EAE7D6F87821F1
:1057C000B2F1FF3FE5D04FF0500383F31188BFF3F0
:1057D0006F8FBFF34F8FFEE7B36A43B14FF05003B3
:1057E00083F31188BFF36F8FBFF34F8FFEE7174B23
:1057F0001B680BBB341D2046FEF7B4FDF06A144B4A
:105800001B68984201D9124B186000EB80002146BA
:10581000104B03EB8000FEF781FDF26A0E4B1B6814
:10582000DB6A9A4210D9069B13B10123069A1360D2
:1058300001200A4B1860AFE706F118010848FEF78F
:105840006DFDEAE70020A7E70120A5E70803002097
:1058500028030020A4030020040800201C030020CB
:1058600060030020064B1A6813682BB901230360FC
:1058700023B9D368186870470023F8E70020704701
:105880000809002008B54160006191420CD8D21A85
:1058900083699A4201D3012008BD011D094B186894
:1058A000FEF747FD0020F7E79A4201D2994206D25F
:1058B000011D054B1868FEF73CFD0020ECE70120B8
:1058C000EAE700BF040900200809002030B583B0D2
:1058D00000F0A8FD114B1B681BB100F0C5FD03B023
:1058E00030BD0F4D2846FEF70BFD0E4C2046FEF74F
:1058F00007FD0D4B1D600D4B1C60002300930C4BEE
:105900000C4A10210A20FEF733FE044B18600028D1
:10591000E3D00949FFF7CCF8DFE700BF000900201A
:10592000200900200C09002008090020040900209B
:1059300008080020580800209C69000810B588B0AD
:10594000FFF7C4FF124B1B68CBB1002405940694EB
:1059500007AA06A905A800F0CFFB059B0293069BAA
:105960000193022300932346079A0A490A48FFF746
:10597000A1FA0A4B186010B1012008B010BD4FF019
:10598000500383F31188BFF36F8FBFF34F8FFEE790
:1059900000090020A4690008A15C0008FC080020A0
:1059A000B8B19C4603461848006850B300B585B0AE
:1059B00000910192029305291CDCFFF78BFD022860
:1059C00010D000231A4669460F480068FEF73EFED5
:1059D00015E04FF0500383F31188BFF36F8FBFF3CF
:1059E0004F8FFEE70023069A694607480068FEF7D6
:1059F0002DFE04E0002362466946FEF7EBFE05B08B
:105A000000BD0020704700BF0009002070B582B0C3
:105A10001B4B1B681A6862B3DB681E68DC68251DB7
:105A20002846FEF79FFC236A2046984794F82830C2
:105A300013F0040FECD0A36933449E4207D2636095
:105A4000246129460E4B1868FEF773FCE0E700213D
:105A500000910B4632462046FFF7A2FF0028D7D11F
:105A60004FF0500383F31188BFF36F8FBFF34F8F55
:105A7000FEE7044A106802490860136002B070BD76
:105A8000080900200409002038B50546FFF7E0FAB0
:105A90000446074B1B68834205D800232B60044B48
:105AA0001C60204638BDFFF7B1FF01232B60F6E7ED
:105AB000F808002070B582B006460D4617490968FF
:105AC000C968CC68201DFEF74DFC94F828C01CF076
:105AD000040F08D12CF0010C84F828C0236A20465A
