:020000040800F2
:100000000000022079790008812200088922000876
:100010009122000899220008A12200080000000097
:10002000000000000000000000000000C16F000898
:10003000A92200080000000061700008AB2200083F
:10004000C9790008C9790008C9790008C979000888
:10005000C9790008C9790008C1220008C9790008D7
:10006000C9790008C9790008C9790008C979000868
:10007000C9790008C9790008C9790008C979000858
:10008000C9790008C9790008C97900080000000092
:10009000000000000000000000000000C979000816
:1000A000C9790008C9790008C9790008C979000828
:1000B000C9790008CD220008C9790008C97900086B
:1000C000C9790008C9790008C9790008C979000808
:1000D000C9790008DD220008C97900080000000085
:1000E000C9790008C9790008C97900080000000032
:1000F000000000000000000000000000C9790008B6
:1001000000000000C9790008C9790008C979000811
:1001100000000000000000000000000000000000DF
:10012000C9790008C9790008C9790008C9790008A7
:10013000C979000800000000000000000000000075
:10014000000000000000000000000000C979000865
:10015000C9790008C9790008C9790008C979000877
:10016000C9790008C97900080000000000000000FB
:10017000000000000000000000000000000000007F
:1001800000000000C9790008000000000000000025
:08019000C9790008C9790008D3
:1001A00010B5054C237833B9044B13B10448AFF3B1
:1001B00000800123237010BD80000020000000009B
:1001C000AC7B000808B5034B1BB103490348AFF3F0
:1001D000008008BD0000000084000020AC7B000807
:1001E00053B94AB9002908BF00281CBF4FF0FF319E
:1001F0004FF0FF3000F088B9ADF1080C6DE904CE86
:1002000000F006F8DDF804E0DDE9022304B07047F1
:100210002DE9F047089D0F4604468C46002B48D137
:100220008A42164661D9B2FA82F34BB1C3F1200279
:1002300001FA03FC20FA02F29E4042EA0C0C9C40B8
:100240004FEA164EB7B2BCFBFEF1220C0EFB11CCEE
:1002500042EA0C4201FB07F0904209D9B21801F1C1
:10026000FF3C80F0EE80904240F2EB800239324455
:10027000121AA4B2B2FBFEF00EFB102244EA0244B2
:1002800000FB07F7A74209D9341900F1FF3280F0CB
:10029000DA80A74240F2D7803444023840EA014075
:1002A000E41B00211DB1DC400023C5E90043BDE88B
:1002B000F0878B4206D90DB1C5E90001002108463F
:1002C000BDE8F087B3FA83F1002948D1BB4202D3DD
:1002D000824200F20781841A67EB030201209446F0
:1002E000002DE4D0C5E9004CE1E7002A00F092803F
:1002F000B2FA82F3002B40F0A8808A1A4FEA164E19
:100300001FFA86FC0121200CB2FBFEF70EFB172220
:1003100040EA02420CFB07F0904207D9B21807F1FD
:10032000FF3802D2904200F2E2804746121AA4B28D
:10033000B2FBFEF00EFB102244EA02440CFB00FC70
:10034000A44507D9341900F1FF3202D2A44500F2C6
:10035000CB801046A4EB0C0440EA0740A2E7C1F1B1
:1003600020068B4022FA06FC4CEA030C07FA01F443
:1003700020FA06F3F7404FEA1C49234300FA01F83C
:100380001FFA8CFEB7FBF9F01C0C09FB107744EA4E
:10039000074400FB0EF7A74202FA01F20AD91CEB50
:1003A000040400F1FF3A80F09B80A74240F298805D
:1003B00002386444E41B9FB2B4FBF9F309FB134415
:1003C00047EA044403FB0EFEA64509D91CEB0404CE
:1003D00003F1FF3780F08280A6457FD9023B644459
:1003E00043EA0040A4EB0E04A0FB02E7BC427346C4
:1003F000B94663D360D05DB1B8EB030264EB090486
:1004000004FA06F622FA01F31E43CC40C5E9006463
:1004100000214CE76208480842EAC1710B0C43EA2C
:1004200000438AB242EA0342B3FBF6F1E407B44662
:100430003746B6461F23B0FBF6F0D21B41EA004117
:1004400061E7614614E7104628E7C3F1200120FA6E
:1004500001F29E4027FA01F19F403A434FEA164EBF
:100460001FFA86FCB1FBFEF70EFB1710110C41EAD8
:10047000004107FB0CF8884504FA03F43AD97118D7
:1004800007F1FF3001D288451FD8A1EB0801B1FB6D
:10049000FEF808FB0CF70EFB181192B242EA01427B
:1004A000BA422FD2B21808F1FF31C6D2BA42C4D232
:1004B000A8F102013244C0E7F0459CD2BEEB020332
:1004C00067EB0C070138B94695E7A6EB08084144ED
:1004D000B81EB1FBFEF808FB0CF7DCE73B467FE7F4
:1004E000504667E70846FBE63444023832E7023FED
:1004F00032441BE7A1EB08013846B1FBFEF808FBCC
:100500000CF7C8E7414698E7704700BF08B500F010
:100510003BFB72B6FEE7000010B594B008AC302289
:100520000021204607F051FA00230393049305931A
:10053000069307930193204A116C41F08051116496
:10054000126C02F080520192019A02931B4B1A68BE
:1005500042F440421A601B6803F440430293029B3A
:10056000092308934FF48033099301230D93022349
:100570000E934FF480020F920C221092602211927F
:10058000129304231393204602F0F0FC80B90F234A
:10059000039302230493002305934FF480520692A1
:1005A0000793032103A802F031FF18B914B010BD5E
:1005B000FFF7ACFFFFF7AAFF0038024000700040D1
:1005C00008B503F07DFAFFF7A7FF00F025F800F06B
:1005D0008FF800F0EFF800F0A7F903F0BBFA03F092
:1005E0002DFB06F053FE0A4801F09EFF00F0F0FAE2
:1005F00001F098FB00F0C2FB064B83F83C0003F0CF
:100600001DFB06F039F904F0AFFB06F047F9FEE7F1
:100610009C000020AC0100202DE9F04188B003AD22
:1006200000240394049405940694079400942D4B9D
:100630001A6B42F080021A631A6B02F08002009279
:10064000009A01941A6B42F001021A631A6B02F0CD
:1006500001020192019A02941A6B42F002021A639B
:100660001B6B03F002030293029BDFF8808022469B
:100670003821404603F013F91B4E01220221304677
:1006800003F00DF922464FF47041304603F007F9AC
:10069000012703974FF488130493022305932946F7
:1006A000404602F089FF382303930497059406948B
:1006B0002946404602F080FF4FF20203039304975D
:1006C000059406942946304602F076FF224605211D
:1006D000062003F0A7F9062003F0B4F908B0BDE83E
:1006E000F08100BF003802400004024000000240D8
:1006F00000B58BB0002306930793089309930493E6
:10070000059300930193029303932848284A0260BB
:100710006322426083604FF6FF72C26003618361AF
:1007200002F058F860BB4FF48053069306A91F48A7
:1007300002F019FA38BB1D4802F0A4F830BB0023C0
:100740000493059304A9194802F0D0FB08BB0022CA
:10075000009201230193029203926946134802F02A
:100760008FF9C8B904226946104802F089F9B0B976
:10077000082269460D4802F083F998B90BB000BD14
:10078000FFF7C4FECFE7FFF7C1FED4E7FFF7BEFED9
:10079000D5E7FFF7BBFEDAE7FFF7B8FEE2E7FFF7C2
:1007A000B5FEE5E7FFF7B2FEE8E700BF2C01002049
:1007B0000004004008B50948094B03606323436007
:1007C000002383604FF6FF72C2600361836102F011
:1007D00001F800B908BDFFF799FEFBE79C00002077
:1007E0000048014070B58AB0002305930693079333
:1007F000089309930368314A934207D0304A9342E1
:1008000041D0304A93424BD00AB070BD00240094CE
:100810002D4B1A6C42F002021A641A6C02F00202AA
:100820000092009A01941A6B42F001021A631A6B4B
:1008300002F001020192019A02941A6B42F0020244
:100840001A631B6B03F002030293029BC023059300
:1008500002250695099505AE31461C4802F0ACFE0E
:100860000123059306950794089409953146184885
:1008700002F0A2FE224605211D2003F0D3F81D2020
:1008800003F0E0F8C0E7002303930F4B1A6C42F02B
:1008900004021A641B6C03F004030393039BB3E785
:1008A00000230493084B5A6C42F480225A645B6C18
:1008B00003F480230493049BA6E700BF00040040D8
:1008C000000800400048014000380240000002409B
:1008D0000004024000B587B0002301930293039304
:1008E0000493059302680D4B9A4201D007B000BDF6
:1008F000002300930A4B1A6B42F002021A631B6B2F
:1009000003F002030093009BC02301930223029390
:10091000059301A9034802F04FFEE7E700080040F5
:10092000003802400004024000B58FB000230A9353
:100930000B930C930D9308930993019302930393E4
:1009400004930593069307932548264A0260632281
:100950004260836040F2E732C260036180238361BA
:1009600001F038FF50BB4FF480530A930AA91C488A
:1009700002F0F9F828BB1A4801F058FF20BB002309
:100980000893099308A9164802F0B0FAF8B9602351
:100990000193002202920392059201A9104801F0EE
:1009A000CBFFB8B904220DEB02010D4801F0C4FFE2
:1009B00098B90B48FFF78EFF0FB000BDFFF7A6FDFB
:1009C000D1E7FFF7A3FDD6E7FFF7A0FDD7E7FFF7D5
:1009D0009DFDDCE7FFF79AFDE4E7FFF797FDE8E709
:1009E000E400002000080040034B1A680023536213
:1009F000536A8342FCD370479C000020642800D9CE
:100A0000642000EB8000400080B27047642800D969
:100A1000642040B27047000070B5E0B10446002881
:100A2000CCBF0122002228DDC5B2164E4FF4004192
:100A3000304602F034FF002CCCBF002201224FF4DC
:100A40008041304602F02BFF2846FFF7D7FF0E4BC0
:100A50001B68986370BD0B4C00224FF48041204608
:100A600002F01DFF00224FF40041204602F017FF64
:100A7000054B1B6800229A63ECE7C5B26D42EDB2EC
:100A8000D3E700BF00040240E400002070B5E0B1ED
:100A900004460028CCBF0122002228DDC5B2164E34
:100AA0004FF48051304602F0FAFE002CCCBF0022F9
:100AB00001224FF40051304602F0F1FE2846FFF7C4
:100AC0009DFF0E4B1B68586370BD0B4C00224FF40A
:100AD0008051204602F0E3FE00224FF400512046F0
:100AE00002F0DDFE054B1B6800225A63ECE7C5B23D
:100AF0006D42EDB2D3E700BF00040240E4000020E5
:100B000010B5FFF783FF444264B22046FFF784FF2D
:100B10002046FFF7BBFF10BD10B504460846FFF79F
:100B200075FFC3B25B4258B2FFF776FF2046FFF76E
:100B30006DFFFFF7ABFF10BD10B50C46FFF766FF6A
:100B4000FFF76AFF2046FFF761FFC0B2404240B2A4
:100B5000FFF79CFF10BD10B504460846FFF756FF8F
:100B6000FFF75AFF2046FFF751FFFFF78FFF10BD39
:100B700010B50C46FFF74AFFFFF74EFF2046FFF780
:100B800045FFFFF783FF10BD10B50F4C00224FF457
:100B90008051204602F083FE00224FF4005120468F
:100BA00002F07DFE00224FF48041204602F077FEE5
:100BB00000224FF40041204602F071FE034B1B68F7
:100BC00000225A639A6310BD00040240E400002032
:100BD00010B5064C0021204602F054F804212046AE
:100BE00002F050F8FFF7D0FF10BD00BFE400002076
:100BF00010B5104C00224FF48051204602F04FFEF9
:100C000000224FF40051204602F049FE00224FF42A
:100C10008041204602F043FE00224FF4004120466E
:100C200002F03DFE044B1B684FF47A725A639A63DC
:100C300010BD00BF00040240E400002070B586B083
:100C400001AD002401940294039404940594214876
:100C500003F070FB4FF4407301931123029303944C
:100C600004941D4E2946304602F0A6FC01224FF4A2
:100C70000071304602F013FE13E0174D00224FF4CE
:100C80008071284602F00BFE0520FFF7ADFE012221
:100C90004FF48071284602F002FE0520FFF7A4FE03
:100CA0000134082CE9DD0C4C00224FF40071204681
:100CB00002F0F5FD0520FFF797FE01224FF40071C9
:100CC000204602F0ECFD0520FFF78EFE02F042FF09
:100CD00006B070BD340200200004024010B584B09C
:100CE0000A230293019200910123024650210C48ED
:100CF00003F0EAFB044628B90A4B00221A7020468A
:100D000004B010BD074A13780133DBB21370092B0E
:100D1000F5D9FFF793FF034B00221A70EFE700BFEE
:100D2000340200207401002000B587B002468DF81F
:100D300017100A230293012301930DF1170100916B
:100D40005021024803F010FB07B000BD3402002020
:100D500010B5094C00220221204602F0A0FD01201E
:100D600002F0DAFE01220221204602F098FD4FF443
:100D70002F7002F0D1FE10BD0004024010B582B009
:100D800000248DF80740FFF7E3FF03E00A2002F09C
:100D9000C3FE0134092C0BDC01220DF107010020F8
:100DA000FFF79CFF0028F1D19DF80730A02BEDD173
:100DB0009DF80730A02B02D0002002B010BD00210A
:100DC0003D20FFF7B1FF08B10020F6E7142002F044
:100DD000A3FE00210720FFF7A7FF00213E20FFF719
:100DE000A3FF08B10020E8E70A2002F095FE0021E9
:100DF0003F20FFF799FF0A2002F08EFE00213B20E2
:100E0000FFF792FF08213D20FFF78EFF08B1002079
:100E1000D3E7142002F080FE0120CEE710B582B0A7
:100E20000446062269461A20FFF758FF88BB9DF842
:100E300001301B021BB29DF80020134306EE903ACE
:100E40009DF803301B021BB29DF80220134307EEEE
:100E5000103A9DF805301B021BB29DF80420134385
:100E600007EE903AF8EEE66A9FED0B6A66EE866A48
:100E7000C4ED006AB8EEC77A27EE067A84ED017AEF
:100E8000F8EEE77A67EE867AC4ED027A012002B0C6
:100E900010BD0020FBE700BF0000803D00B583B01F
:100EA00000238DF8073001220DF107013520FFF7EF
:100EB00015FF9DF8070003B000BDB4EEE00AF1EEA7
:100EC00010FA05D4B4EEC10AF1EE10FA03DC704753
:100ED000B0EE600A7047B0EE410A704710B150287A
:100EE00002D87047502070475020704700231A46A0
:100EF00004E030F813C062440133DBB28B42F8D314
:100F000007EE902AF8EE677A07EE101AB8EE470A55
:100F100087EE800A70470023037343730022026147
:100F200043618261C373012383737047024B18705E
:100F3000024B1960704700BFA8010020A4010020E7
:100F400010B50446C368094A1360094A136009488A
:100F5000FFF7E1FF0020084B1870084B1870E2689B
:100F6000074B1A606169FFF7E1FF10BD880100209F
:100F700078010020000000209E0100209C0100203C
:100F80007C01002008B54388828802F1050C634586
:100F900018DD144B00221A700023134A1370134AF1
:100FA0001370C368124A1360124A1360027C124B1A
:100FB0001A704169114B1960114B19600220FFF73B
:100FC000B5FF08BD05339A4203DD064B01221A70B6
:100FD000E2E70029E0D0034A137883F0010313709D
:100FE000DAE700BFA00100209F0100209D01002042
:100FF00090010020840100208C010020800100204D
:101000009401002008B5428883889A4207D2074B92
:1010100001221A7041690520FFF788FF08BD9A4236
:10102000F8D9024B00221A70F4E700BFA00100209B
:1010300003468288418810468A4228BF08468A4271
:1010400038BF0A4600F10C0189B291423CD907EE43
:10105000900AF8EE677A1A8807EE102AB8EE477AF7
:10106000DFED1C6A27EE267AF4EEC77AF1EE10FA6D
:101070002CD9187C68B3D3ED037A174B93ED007A23
:1010800077EEC77A9FED157AF4EEC77AF1EE10FA93
:101090000EDD9FED137A77EEC77AF0EEE77AB3EEC6
:1010A000097AF4EEC77AF1EE10FA11DC00207047ED
:1010B0009FED0C7AF4EEC77AF1EE10FAEDD89FEDC1
:1010C000087A77EE877AE8E70020704701207047BA
:1010D00001207047B81E853E88010020000034437F
:1010E0000000B443000034C308B543888288511D12
:1010F0008B4210DD0B4B00221A700B4B00221A7032
:10110000C2680A4B1A60027C094B1A7041690620BA
:10111000FFF70CFF08BD05339A42EEDD014B0122BB
:101120001A70EAE7A00100209D0100209001002034
:101130008C01002010B50446FFF726FD61690420EC
:10114000FFF7F4FE10BD0000F0B52DED068B83B067
:101150000446C04B9B7B63B1037C3BB1C368BE4A72
:101160001360BE4A1360BB4B0122DA73B94B0022F5
:101170009A73277C3FB1B74BDB7B23B9E368B64A50
:101180001360B64A1360B34E357B6088FFF7A6FE46
:1011900026F81500A088FFF7A1FE06EB4503D880CE
:1011A0000135AF4BA3FB052303F4FF7202EB53039E
:1011B000ED1A3573737B022B01D801337373A54D80
:1011C0006E7B31462846FFF791FEF0EE408A3146AD
:1011D000A81DFFF78BFEB0EE409A38EEC08A6D690D
:1011E00095B163699D4235D25B1B00EE103AB8EEB3
:1011F000400A9FED9C1ADFED9C0ADFED9C7A80EEA1
:10120000270AFFF75AFE01E09FED990A2DB3914B93
:10121000D3ED047A78EE677A87EE807A67B38D4BE8
:10122000DB7B002B58D0002D59D0D4ED037A8B4BAB
:10123000D3ED006A77EEE67ADFED8E6AF4EEE67AB9
:10124000F1EE10FA0CDDDFED966A77EEE67AC7EE86
:10125000809A13E09FED860AD8E79FED877ADDE755
:10126000DFED8E6AF4EEE67AF1EE10FAEFD8DFEDFC
:101270008C6A77EEA67AEAE7DFED7F9A754B83ED0D
:10128000048A62695A61237C13B1E168734A116070
:10129000704AD373DFED797AF4EEE78AF1EE10FA53
:1012A00020D5B4EEE79AF1EE10FA1BD5F0EEC87A2D
:1012B000F0EE086AF4EEE67AF1EE10FA40F2C18040
:1012C000DFED6F7A28EE270ADFED6B7A27EE277ABB
:1012D00030EE070A002620E0DFED679ACEE7DFED6B
:1012E000669ACBE7002B00F0B08094ED030A5A4ACF
:1012F000D2ED007A30EE670ADFED5E7AB4EEE70AEF
:10130000F1EE10FA40F39080DFED657A30EE670A77
:10131000DFED5C7A20EE270A03262BB1DFED5A7A47
:1013200069EEA77A30EE270AB2EE0A1AFAEE0A0A36
:10133000FFF7C3FD474DD5ED060AF1EE007A30EE1A
:10134000A71A70EEE70AFFF7B8FDB0EE409A85EDF8
:10135000060AB0EEC07AF2EE0A7A87EE270A9FED0F
:101360004B1ADFED4B0A31EE400AFFF7A6FDB0EE57
:10137000408A30EE490ADFED47AA9FED3FAAB0EE62
:101380006A1AF0EE4A0A30EE0A0AFFF796FDF0EE0E
:10139000408AB0EE6A1AF0EE4A0A39EE080AFFF700
:1013A0008CFDB0EE408AB6EE00AA78EE8A8AFDEE99
:1013B000E87ACDED017A9DF90400FFF72DFB38EEB8
:1013C0000A8AFDEEC87ACDED017A9DF90400FFF797
:1013D0005DFB314B83ED019A5E70C3ED049AD4ED51
:1013E000037A1D4B93ED007A77EEC77A9FED217A51
:1013F000F4EEC77AF1EE10FA54DD9FED297A77EE1C
:10140000C77A254AC2ED037AFDEEE88A18EE903AD3
:101410001BB21381BDEEC88A18EE103A1BB253817D
:1014200003B0BDEC068BF0BDDFED1C7AB4EEE70A2D
:10143000F1EE10FA3FF66CAFDFED197A30EE270AC5
:1014400066E700269FED0C0A67E704269FED0A0A6F
:1014500063E700BF00000020880100207C0100201D
:10146000ABAAAAAACDCCCC3D0AD7A33B00007A44B4
:101470000AD7A33C00003443000000000000A04253
:101480009A99193ECDCC4C3F9A99993E0000304232
:1014900000002C420000C842AC010020000034C310
:1014A0000000B4431FED037AF4EEC77AF1EE10FAB0
:1014B000A7D81FED057A77EE877AA2E710B5044624
:1014C000FFF796FB61690120FFF730FD10BD0000BA
:1014D00030B52DED028B83B00446037A042B13D86C
:1014E000644B1B785BB3644B1B6813B94269624B56
:1014F0001A606369604A12689A1A23881D2B06D8FD
:10150000A3792BB1012303E0FFF714FEA7E000232A
:10151000D9B2E37943B1A3886088834228BF0346E8
:10152000032B8CBF00230123B2F5487F01D201B900
:1015300023B300234F4A1370504A82F82230238885
:10154000362B47D8A379002B44D0E07900284FD11F
:101550004A4B83F82000E379002B3FD000283DD18F
:101560006288A18801F10C039BB29A4244D202F135
:101570000C039BB299424BD301233EE0237C23B161
:10158000E3683F4A13603F4A13603C4C012384F8F0
:1015900022309FED3D8A9FED3D1AF0EE480A9FED07
:1015A0003C0AFFF78AFCF6EE007A30EE270AFDEEE1
:1015B000C07ACDED017A9DF904502846FFF72CFA48
:1015C0002846FFF763FA84ED018ABDF904302381D0
:1015D000638144E00020294B83F8200023881D2BE1
:1015E00029D8A3793BB3A8B12A4B00221A7025E071
:1015F0002046FFF71DFDABE70123DBB21B2A03D812
:101600001B2901D8002BE9D02046FFF76DFD26E00D
:101610000023F2E71F4B1B78FF2B0FD00133DBB207
:101620001C4A1370022B09D9144A82F82130204633
:10163000FFF744FF13E0174B00221A70154B1A787E
:101640000E4B83F82120E3796BB1A3886288934223
:1016500028BF1346032B09D92046FFF775FD03B0B9
:10166000BDEC028B30BDFFF78FFAF8E72046FFF79D
:10167000C9FCF4E71C00002098010020AC01002008
:10168000880100207C010020000000000000C8420A
:10169000000030429C01002008B5837953B94369AA
:1016A0000B4A12689B1A40F2DC5293420BD8FFF7A8
:1016B0006BFA08BD0388132B02D8FFF7FFFEF8E78B
:1016C000FFF73EFCF5E70021FFF75CFCF1E700BF08
:1016D000A401002010B504462820FFF711FA064B9C
:1016E0001B78FF2B02D00133034A1370616903207A
:1016F000FFF71CFC10BD00BF9E0100204369134A88
:1017000012689B1A772B00D8704710B50446FFF774
:101710003BFAE379A3B12388072B09D86388032B0D
:1017200006D8A388032B03D8094B1B78022B08D9B2
:10173000074B1978003918BF01212046FFF722FC1A
:1017400010BD2046FFF7C6FFFAE700BFA401002046
:101750009E01002008B54369064A12689B1AB3F53A
:10176000AF7F03D22820FFF7CBF908BDFFF7A6FE15
:10177000FBE700BFA401002038B5C3796BB1038833
:10178000072B0AD84388032B07D88388032B04D858
:10179000A54B1B78022B40F2BA80037C002B50D063
:1017A000A24B1B7853B9C368A14A1360A14A1360C6
:1017B0004269A14B1A609D4B01221A70D0ED037A49
:1017C0009B4B93ED007A77EEC77A9FED9C7AF4EE0F
:1017D000C77AF1EE10FA40F39D809FED997A77EE8B
:1017E000C77A984BC3ED057A4269934B1B68D31AAD
:1017F000B3F5C87F25D390ED037A8E4BD3ED007AF5
:1018000077EE677ADFED8D6AF4EEE67AF1EE10FAA4
:1018100040F38D80DFED8A6A77EEE67AF0EEE77AC4
:10182000F2EE006AF4EEE67AF1EE10FA04D57E4BA1
:101830001B78022B40F288807E4B83ED007A7E4B32
:101840001A604169804B1B68CB1A40F6C412934260
:1018500010D9754B1B78022B79D97C4A137883F009
:1018600001031370784B1960C268714B1A60027CD7
:101870006E4B1A70C37923B3734B1B68CB1A952B2D
:101880001FD9734B1B78E3B9704A1478002C61D1CF
:101890004288002C60D18588032A12D8053292B282
:1018A000AA420ED284F00104684A14700133684AD7
:1018B0001370654B1960C2685D4B1A60027C5B4B0C
:1018C0001A70037C002B55D0D0ED037A614B93ED59
:1018D000007A77EEC77A9FED597AF4EEC77AF1EE87
:1018E00010FA3BDD9FED567A77EEC77AF0EEE77A95
:1018F000544BC3ED077A037C002B3ED09FED567A04
:10190000F4EEC77AF1EE10FA45DA002236E0FFF77E
:10191000E1FE05E19FED517AF4EEC77AF1EE10FA9F
:101920003FF65FAF9FED467A77EE877A59E7DFEDB6
:101930004B6AF4EEE67AF1EE10FA3FF66FAFDFEDA8
:10194000406A77EEA67A69E7FFF7C4FEE8E0FFF7A2
:10195000C1FEE5E082889CE745889DE79FED3F7AE0
:10196000F4EEC77AF1EE10FAC0D89FED357A77EE33
:10197000877ABBE7DFED3A7ABAE70022314B9A76F5
:10198000037C53B19FED347AF4EEC77AF1EE10FA8E
:101990003BD5012202E00122F0E70122D1B2028808
:1019A000252A63D98479002C60D02E4C2478FF2C12
:1019B00002D001342B4D2C702A4C2478042C5CD995
:1019C00000295AD0F3B1194C2478002C55D0D0ED11
:1019D000037A174C94ED007A77EEC77A9FED177A69
:1019E000F4EEC77AF1EE10FA11DD9FED157A77EE7D
:1019F000C77AF0EEE77A9FED1C7AF4EEC77AF1EE43
:101A000010FA3ADBFFF79CFA8AE00022C6E79FED66
:101A1000137AF4EEC77AF1EE10FAEAD89FED087A5D
:101A200077EE877AE5E700BF9E0100208C01002059
:101A30009001002084010020800100200000344338
:101A40000000B443AC010020A4010020A00100204C
:101A50009F0100207801002000000743000034C3EC
:101A6000000000009D01002000007042252A04D8DB
:101A70003F4C4FF0000C84F800C013B33D4C247869
:101A8000FCB18479ECB1E1B1D0ED037A3A4C94ED3C
:101A9000007A77EEC77A9FED397AF4EEC77AF1EEE5
:101AA00010FA3EDD9FED367A77EEC77AF0EEE77AF0
:101AB0009FED347AF4EEC77AF1EE10FA01DB1D2ABD
:101AC0003BD8F3B12B4B1B78DBB1D1B1D0ED037A0E
:101AD000294B93ED007A77EEC77A9FED287AF4EEE2
:101AE000C77AF1EE10FA2BDD9FED257A77EEC77AF3
:101AF000F0EEE77A9FED247AF4EEC77AF1EE10FA71
:101B00002ADA4369214A12689B1AB3F5487F00D349
:101B100029BB1F4B1B782BBB36212C20FEF7FCFF6B
:101B200038BD9FED1C7AF4EEC77AF1EE10FABDD8FD
:101B30009FED137A77EE877AB8E7FFF701FAEFE7C0
:101B40009FED147AF4EEC77AF1EE10FAD0D89FED3B
:101B50000C7A77EE877ACBE7FFF7F2F9E0E7FFF749
:101B6000EFF9DDE736212C20FEF7E6FFD8E700BFCE
:101B70009D0100208C0100209001002000003443D2
:101B80000000B4430000AA420000C84294010020B3
:101B9000A0010020000034C308B50388132B1ED910
:101BA000C37933B183884288934228BF1346052BFB
:101BB00018D842690F4B1B68D31AB3F5167F06D9A4
:101BC0000D490B7883F001030B700A4B1A600A4B26
:101BD0001B7853B936212C20FEF79EFF08BDFFF776
:101BE0006DFCFBE7FFF7ACF9F8E736212C20FEF798
:101BF000A3FFF3E7A4010020A001002010B5017CA1
:101C000041B13F4B1B782BB9C2683E4B1A603C4B2D
:101C100001221A700388132B02D88279002A45D139
:101C2000C2793AB1072B05D84288032A02D88288A4
:101C3000032A3ED94269344C2468121BB2F5FA6F6C
:101C40003AD809B32E4A1278F2B18279E2B1D0EDD6
:101C5000037A2C4A92ED007A77EEC77A9FED2B7AC1
:101C6000F4EEC77AF1EE10FA29DD9FED297A77EECE
:101C7000C77AF0EEE77A9FED277AF4EEC77AF1EEB5
:101C800010FA01DB1D2B26D8252B27D982792AB300
:101C9000214B1B78FF2B02D001331F4A13701E4BC0
:101CA0001B78042B1FD9FFF74BF923E0FFF706FC45
:101CB00020E0FFF703FC1DE0FFF700FC1AE09FEDBA
:101CC000177AF4EEC77AF1EE10FAD2D89FED107AB7
:101CD00077EE877ACDE7FFF733F90BE0252B02D8B3
:101CE0000D4B00221A700E4B1B7823B92021372090
:101CF000FEF731FF10BD20213720FEF739FFF9E74D
:101D00008C01002090010020A40100200000344339
:101D10000000B4430000AA429D010020000034C32B
:101D2000A001002010B500240F4B1C700F4B1C604D
:101D30000F4B1C700F4B1C700F4B1C700F4B1C700B
:101D40000F4B1C700F48FFF7E6F80F4B01221A707B
:101D50000E4B1C600E4B1C600E4B1C700E4B002279
:101D60001A600E4B1C7010BDA8010020A4010020B9
:101D7000A00100209F0100209E0100209D01002065
:101D80009C010020000000201C0000209801002081
:101D9000940100208C0100207C01002075010020AE
:101DA00008B51D4B1B783BB9037C2BB1C2681B4B9C
:101DB0001A60194B01221A70194B1B78062B24D874
:101DC000DFE803F0041114171A1D2000FFF780FB51
:101DD000134B1A78134B1A70134A12781A76134A57
:101DE00012785A7608BDFFF789FCF1E7FFF7C4FCCB
:101DF000EEE7FFF7AFFCEBE7FFF74EFCE8E7FFF796
:101E0000CBFEE5E7FFF7FAFEE2E7FEF7BDFE044B87
:101E100000221A70DCE700BF750100207801002065
:101E2000A8010020AC010020A00100209E0100209C
:101E30000268844B9A4200D0704710B5037F012B93
:101E400005D0022B56D0042B00F0A78010BD7E4B8E
:101E50001B78002B39D07C4B1B78012BF6D100214D
:101E60007A4800F099FB80B2794B18801B889BB2AE
:101E7000784A128892B29B1A9BB2774A13801288D2
:101E800092B2764BA3FB02135B09392A0DD9C82BFA
:101E900028BFC823724A1380724B01221A70724BFA
:101EA000186810B1114604F074FD674B00221A70D7
:101EB000664B1B681A6A22F00A021A621A6A1A62D0
:101EC000DA6822F00202DA60C0E7604C00212046A6
:101ED00000F062FB80B25F4B18805B4B01221A70EE
:101EE00023681A6A22F00A021A621A6A42F002028F
:101EF0001A62ABE7544B5B78002B39D0524B5B78BE
:101F0000012BA3D10421514800F046FB83B2504A73
:101F1000538053889BB24F4A528892B29B1A9BB20D
:101F20004D4A5380528892B24C4BA3FB02135B097B
:101F3000392A0DD9C82B28BFC823494A5380494B99
:101F400001225A70484B186810B1022104F021FD9B
:101F50003D4B00225A703D4B1B681A6A22F0A002CA
:101F60001A621A6A1A62DA6822F00402DA606DE70D
:101F7000364C0421204600F00FFB80B2354B5880D0
:101F8000314B01225A7023681A6A22F0A0021A62A9
:101F90001A6A42F020021A6258E72B4B9B78002BFA
:101FA0003AD0294B9B78012B7FF450AF082127486A
:101FB00000F0F2FA83B2264A938093889BB2254AB6
:101FC000928892B29B1A9BB2234A9380928892B2D3
:101FD000224BA3FB02135B09392A0DD9C82B28BF5A
:101FE000C8231F4A93801F4B01229A701E4B18680A
:101FF00010B1042104F0CDFC134B00229A70134B56
:102000001B681A6A22F420621A621A6A1A62DA6873
:1020100022F00802DA6019E70C4C0821204600F093
:10202000BBFA80B20B4B9880074B01229A70236851
:102030001A6A22F420621A621A6A42F400721A6260
:1020400004E700BF00040040140200202C0100201F
:1020500020020020280200201802002009CB3D8D1C
:102060000C020020080200200402002010B5084BDA
:102070001860084C0021204600F076FE042120461E
:1020800000F072FE0821204600F06EFE10BD00BF79
:10209000040200202C0100202DE9F84F04460F46D1
:1020A0001546434BC82223F81020424B00221A54F5
:1020B000414B33F81010414B53F8200001F0E8FB7E
:1020C000012850D03E4B1B68DA683E4951F8246025
:1020D00022EA0602DA603C4A002111553B4A52F8D6
:1020E0002420002A43D1196A21F00A011962002A2A
:1020F00050D11A6A1A62364A52F82420D2431A6121
:102100004FF0010B0BFA04F8404604F07BFC314B16
:1021100053F82490304B33F814A05A4651464846A1
:1021200001F0BDFB0A20FEF75FFC00225146484645
:1021300001F0B5FB224B1B68DA681643DE603A46B5
:102140000021404604F089FC04F04CFF194B1E5D51
:10215000F6B2174B33F81440A4B204F065FF2C809C
:102160003046BDE8F88FC8232B800026F8E7042A04
:1021700006D0082A09D0196A21F420411962B6E76D
:10218000196A21F0A0011962B1E7196A21F42061EE
:102190001962ACE7042A04D0082A05D01A6A1A6228
:1021A000A9E71A6A1A62A6E71A6A1A62A3E700BFC9
:1021B0000C02002008020020C47B0008CC7B000831
:1021C0002C010020E47B000814020020F07B0008B2
:1021D000D87B0008047C0008FC7B000810B588B0A0
:1021E000102900D91021002308E030F813C008AAF4
:1021F00002EB430222F820CC0133DBB29942F4D83F
:102200004FF0010E1AE05A1C08AC04EB420222F80F
:10221000200C013B5BB2002B06DB08AA02EB430259
:1022200032F8200C6045EED8013308AA02EB4303D4
:1022300023F820CC0EF1010E5FFA8EFE714508D90D
:1022400008AB03EB4E0333F820CC0EF1FF335BB247
:10225000E1E701F0FE0320336B4433F8200C08B0B3
:1022600010BD84460088012301E00133DBB28B42BC
:1022700005D23CF813208242F7D21046F5E77047AA
:1022800008B5FEF781FCFEE708B5FEF77DFCFEE72A
:1022900008B5FEF779FCFEE708B5FEF775FCFEE72A
:1022A00008B5FEF771FCFEE7704708B501F022FCA7
:1022B00003F0F0FE012800D108BD04F003FFFBE7A6
:1022C00008B5012001F0F2FA08BD000008B5024887
:1022D00000F07FF908BD00BF2C01002008B50248BE
:1022E00005F0CCF908BD00BF844E002000B583B0D6
:1022F000002200920D4B596C41F480415964596C95
:1023000001F48041009100990192196C41F08051D3
:1023100019641B6C03F080530193019B0F216FF034
:10232000010001F07FFB03B000BD00BF0038024098
:1023300030B4026A036A23F00103036245688369CB
:1023400023F073030C681C4322F002028B681343D2
:102350000B4A904206D0456084614A68426303623A
:1023600030BC704723F00803CA681A4322F0040304
:1023700025F440754A692A438D691543EBE700BF90
:102380000000014030B4036A026A22F480720262E3
:102390004468C26922F073020D68154323F4007388
:1023A0008A6843EA02230D4A904206D04460C56120
:1023B0004A68C263036230BC704723F40063CA6892
:1023C00043EA022323F4806324F440544A6944EA34
:1023D00002148A6944EA0214E8E700BF00000140E1
:1023E00030B4036A026A22F4805202624468C2690D
:1023F00022F4E6420D6842EA052223F400538D6878
:1024000043EA0533074DA84206D04460C2614A68DA
:102410000264036230BC704724F480444D6944EA8E
:102420008514F2E70000014010B4036A046A24F046
:1024300001040462846924F0F00C4CEA021223F0D7
:102440000A030B43826103625DF8044B704730B4AA
:10245000056A046A24F010040462846924F4407C50
:102460004CEA022C2CF4704C1B039BB243EA0C0385
:1024700025F0A005090101F0A00129438361016253
:1024800030BC704710B4036A046A24F0100404627C
:10249000846924F4704C4CEA023223F0A00343EA2E
:1024A0000113826103625DF8044B704730B4056A22
:1024B000046A24F480740462C46924F0030C4CEAB6
:1024C000020C2CF0F00C1B01DBB243EA0C0325F4E8
:1024D0002065090201F420612943C361016230BC17
:1024E000704730B4056A046A24F480540462C469F5
:1024F00024F4407C4CEA022C2CF4704C1B039BB25D
:1025000043EA0C0325F42045090301F42041294343
:10251000C361016230BC7047836823F070030B43D2
:1025200043F007038360704790F83D30012B2AD1B8
:10253000022380F83D300368154A934218D0B3F166
:10254000804F15D0A2F57C42934211D002F58062F3
:1025500093420DD002F58062934209D002F59A327F
:10256000934205D01A6842F001021A6000207047B9
:102570009A6802F00702062A07D01A6842F00102A0
:102580001A6000207047012070470020704700BF8C
:1025900000000140704770470C2914D8DFE801F0B3
:1025A000071313130A1313130D13131310000368E7
:1025B000586B70470368986B70470368D86B704717
:1025C0000368186C70470020704770477047704769
:1025D000704770B504460368DE681D6915F0020F88
:1025E00010D016F0020F0DD06FF002021A61012315
:1025F000037703689B6913F0030F5ED0FFF718FCA5
:102600000023237715F0040F12D016F0040F0FD01B
:1026100023686FF004021A610223237723689B6901
:1026200013F4407F4FD02046FFF702FC00232377AE
:1026300015F0080F12D016F0080F0FD023686FF0B6
:1026400008021A61042323772368DB6913F0030F60
:1026500040D02046FFF7ECFB0023237715F0100F46
:1026600012D016F0100F0FD023686FF010021A610D
:10267000082323772368DB6913F4407F31D0204699
:10268000FFF7D6FB0023237715F0010F02D016F0D9
:10269000010F2DD115F0800F02D016F0800F2FD131
:1026A00015F0400F02D016F0400F31D115F0200F79
:1026B00002D016F0200F33D170BDFFF787FF204600
:1026C000FFF785FF9CE72046FFF780FF2046FFF7D6
:1026D0007EFFABE72046FFF779FF2046FFF777FF45
:1026E000BAE72046FFF772FF2046FFF770FFC9E701
:1026F00023686FF001021A612046FFF766FFC9E701
:1027000023686FF080021A61204600F02EFCC7E7B4
:1027100023686FF040021A612046FFF759FFC5E7B2
:1027200023686FF020021A61204600F01DFCC3E709
:102730000368274A90420ED0B0F1804F0BD0A2F52B
:102740007C42904207D002F58062904203D002F5AD
:102750008062904203D123F070034A6813431C4AFD
:1027600090421AD0B0F1804F17D0A2F57C4290422F
:1027700013D002F5806290420FD002F58062904241
:102780000BD002F59A32904207D002F58062904257
:1027900003D002F58062904203D123F44073CA68EB
:1027A000134323F080034A6913438A68C2620A68AC
:1027B0008262074A904207D0026842F00402026037
:1027C00001224261036070470A690263F4E700BFB7
:1027D0000000014040B310B5044690F83D30F3B11D
:1027E000022384F83D30214651F8040BFFF7A0FF87
:1027F000012384F8463084F83E3084F83F3084F872
:10280000403084F8413084F8423084F8433084F812
:10281000443084F8453084F83D30002010BD80F805
:102820003C30FDF7DFFFDBE70120704740B310B518
:10283000044690F83D30F3B1022384F83D30214640
:1028400051F8040BFFF774FF012384F8463084F835
:102850003E3084F83F3084F8403084F8413084F8CA
:10286000423084F8433084F8443084F8453084F8AA
:102870003D30002010BD80F83C30FFF78BFEDBE7D9
:102880000120704740B310B5044690F83D30F3B1D5
:10289000022384F83D30214651F8040BFFF748FF2E
:1028A000012384F8463084F83E3084F83F3084F8C1
:1028B000403084F8413084F8423084F8433084F862
:1028C000443084F8453084F83D30002010BD80F855
:1028D0003C30FFF760FEDBE70120704730B4036A4D
:1028E000026A22F0100202624468826922F4E6421F
:1028F0000D6842EA052223F020038D6843EA0513A0
:102900000C4DA84206D0446082614A68826303622B
:1029100030BC704723F08003CD6843EA051323F0F1
:10292000400324F440644D6944EA85048D6944EA17
:102930008504E8E70000014038B590F83C30012BF1
:1029400066D004460D46012380F83C300C2A5AD844
:10295000DFE802F0075959591B595959305959594B
:1029600044000068FFF7E4FC2268936943F0080321
:1029700093612268936923F0040393612268936949
:1029800029690B43936100203EE00068FFF7A6FF32
:102990002268936943F4006393612268936923F486
:1029A0008063936122689369296943EA01239361F3
:1029B000002029E00068FFF7E5FC2268D36943F0B6
:1029C0000803D3612268D36923F00403D36122682A
:1029D000D36929690B43D361002015E00068FFF734
:1029E000FFFC2268D36943F40063D3612268D36992
:1029F00023F48063D3612268D369296943EA012300
:102A0000D361002000E00120002384F83C3038BD71
:102A10000220FCE770B49446066A046A24F00104BC
:102A200004628469144DA84214D0B0F1804F11D0D3
:102A3000124A90420ED002F5806290420AD002F50E
:102A40008062904206D002F59A32904202D044F061
:102A5000010203E024F0030242EA0C0222F0F00239
:102A60001B01DBB2134326F00A0201F00A011143F5
:102A70008361016270BC70470000014000040040A7
:102A800038B590F83C30012B5ED004460D4601234A
:102A900080F83C300C2A52D8DFE802F0075151513F
:102AA000195151512C5151513E00CB684A68096867
:102AB0000068FFF7AFFF2268936923F00C0393616E
:102AC00022689369A9680B439361002038E0CB68C2
:102AD0004A6809680068FFF7BAFC2268936923F422
:102AE0004063936122689369A96843EA0123936173
:102AF000002025E0CB684A6809680068FFF7D6FC2B
:102B00002268D36923F00C03D3612268D369A968D2
:102B10000B43D361002013E0CB684A680968006862
:102B2000FFF7DFFC2268D36923F44063D361226896
:102B3000D369A96843EA0123D361002000E00120A2
:102B4000002384F83C3038BD0220FCE710B48468D0
:102B500024F47F4C42EA03220A4342EA0C028260D8
:102B60005DF8044B704790F83C30012B78D010B5DD
:102B70000446012380F83C30022380F83D3002688F
:102B8000936823F47F4323F0770393600B68602BF3
:102B90004CD023D8402B54D011D8202B03D00AD8A6
:102BA0000BB1102B05D119462068FFF7B5FC0020AA
:102BB00028E0012026E0302BF5D0012022E0502B28
:102BC0000AD1CA6849680068FFF72EFC50212068C6
:102BD000FFF7A2FC002015E0012013E0B3F5805FB1
:102BE0003AD0B3F5005F14D0702B37D1CB684A6868
:102BF00089680068FFF7AAFF2268936843F07703AB
:102C000093600020012384F83D30002384F83C3099
:102C100010BDCB684A6889680068FFF797FF226893
:102C2000936843F4804393600020EBE7CA684968E7
:102C30000068FFF727FC60212068FFF76DFC00208B
:102C4000E0E7CA6849680068FFF7EEFB40212068AA
:102C5000FFF762FC0020D5E70020D3E70120D1E791
:102C60000220704701F01F014FF0010C0CFA01FC2B
:102C7000036A23EA0C030362036A8A401343036274
:102C80007047000010B50446084689BB94F83E30F2
:102C9000013B18BF0123002B60D100283ED1022345
:102CA00084F83E30012201462068FFF7DBFF2368ED
:102CB0002C4A934242D023682A4A934243D0B3F12C
:102CC000804F40D0A2F57C4293423CD002F5806216
:102CD000934238D002F58062934234D002F59A32A2
:102CE000934230D01A6842F001021A60002034E0AA
:102CF000042907D008290BD094F84130013B18BFB4
:102D00000123C8E794F83F30013B18BF0123C2E715
:102D100094F84030013B18BF0123BCE7042805D0DC
:102D2000082807D0022384F84130BBE7022384F847
:102D30003F30B7E7022384F84030B3E75A6C42F4DF
:102D400000425A64B7E79A6802F00702062A07D0E1
:102D50001A6842F001021A60002010BD0120FCE751
:102D60000020FAE70000014010B504460B46002998
:102D70003BD190F83E00C0B294F84220D2B2012874
:102D800040F0AB80012A40F0A980002B4CD10222F8
:102D900084F83E2084F842202168CA6842F002028A
:102DA000CA60012219462068FFF75CFF23684E4A7B
:102DB000934200F08780B3F1804F00F08380A2F54A
:102DC0007C4293427ED002F5806293427AD002F533
:102DD0008062934276D002F59A32934272D01A689A
:102DE00042F001021A60002078E004290CD0082982
:102DF0000ED090F84100C0B2042B0DD0082B0FD09C
:102E000094F84520D2B2BAE790F83F00C0B2F3E799
:102E100090F84000C0B2EFE794F84320D2B2AEE79A
:102E200094F84420D2B2AAE7042B2BD0082B2DD043
:102E3000022184F84110042B2CD0082B33D002211E
:102E400084F845100C2B4AD801A151F823F000BF9B
:102E5000992D0008DF2E0008DF2E0008DF2E000865
:102E60009B2E0008DF2E0008DF2E0008DF2E000852
:102E7000AD2E0008DF2E0008DF2E0008DF2E000830
:102E8000B92E0008022184F83F10D4E7022184F80B
:102E90004010D0E7022284F843202168CA6842F03B
:102EA0000402CA607DE7022284F844202168CA68CF
:102EB00042F00802CA6074E72168CA6842F0100252
:102EC000CA606EE79A6802F00702062A09D01A68FB
:102ED00042F001021A60002000E0012010BD1046FF
:102EE000FCE70020FAE700BF0000014090F83C201A
:102EF000012A35D010B40346012280F83C2002227A
:102F000080F83D2002685068946820F0700C0868D2
:102F100040EA0C0050601A681248824212D0B2F1A6
:102F2000804F0FD0A0F57C4082420BD000F580602E
:102F3000824207D000F58060824203D000F59A30CB
:102F4000824204D124F08004496821439160012227
:102F500083F83D20002083F83C005DF8044B704767
:102F6000022070470000014070477047002800F0C1
:102F7000E08170B582B00446036813F0010F3BD0C6
:102F80009F4B9B6803F00C03042B2CD09C4B9B683D
:102F900003F00C03082B21D06368B3F5803F4FD0BA
:102FA000B3F5A02F52D0964B1A6822F480321A60E3
:102FB0001A6822F480221A606368002B50D000F057
:102FC000A5FD05468E4B1B6813F4003F14D100F09D
:102FD0009DFD401B6428F5D90320B1E1884B5B6857
:102FE00013F4800FD8D0864B1B6813F4003F03D036
:102FF0006368002B00F09F81236813F0020F54D008
:103000007F4B9B6813F00C0F3ED07D4B9B6803F009
:103010000C03082B33D0E368002B68D0794B0122D6
:103020001A6000F073FD0546754B1B6813F0020F24
:1030300054D100F06BFD401B0228F5D903207FE13D
:103040006F4A136843F480331360B5E76C4B1A681A
:1030500042F480221A601A6842F480321A60ABE7A8
:1030600000F054FD0546664B1B6813F4003FC3D0C7
:1030700000F04CFD401B6428F5D9032060E1604B53
:103080005B6813F4800FC6D15D4B1B6813F0020F11
:1030900003D0E368012B40F05081594A136823F0B4
:1030A000F803216943EAC1031360236813F0080F92
:1030B00042D063696BB3534B0122C3F8802E00F0FA
:1030C00025FD05464E4B5B6F13F0020F34D100F027
:1030D0001DFD401B0228F5D9032031E1484A136841
:1030E00023F0F803216943EAC1031360DDE7454B90
:1030F00000221A6000F00AFD0546414B1B6813F0E0
:10310000020FD2D000F002FD401B0228F5D90320A7
:1031100016E13C4B0022C3F8802E00F0F7FC054678
:10312000374B5B6F13F0020F06D000F0EFFC401B33
:103130000228F5D9032003E1236813F0040F77D0A8
:103140002F4B1B6C13F0805F33D1002301932C4B6A
:103150001A6C42F080521A641B6C03F08053019386
:10316000019B0125284B1B6813F4807F23D0A368A3
:10317000012B34D0052B38D0214B1A6F22F00102DD
:103180001A671A6F22F004021A67A368002B3DD059
:1031900000F0BCFC06461A4B1B6F13F0020F46D121
:1031A00000F0B4FC801B41F288339842F3D903202D
:1031B000C6E00025D6E7144A136843F48073136011
:1031C00000F0A4FC0646104B1B6813F4807FCED1A0
:1031D00000F09CFC801B0228F5D90320B0E0084ACF
:1031E000136F43F001031367CFE7054B1A6F42F0EB
:1031F00004021A671A6F42F001021A67C5E700BF9E
:1032000000380240000047420070004000F07EFCA1
:103210000646524B1B6F13F0020F08D000F076FCED
:10322000801B41F288339842F3D9032088E0EDB93E
:10323000A369002B00F08380484A926802F00C02D8
:10324000082A51D0022B17D0454B00221A6600F0F5
:103250005DFC0446414B1B6813F0007F42D000F038
:1032600055FC001B0228F5D9032069E03B4A136C8A
:1032700023F080531364DBE7394B00221A6600F019
:1032800045FC0546354B1B6813F0007F06D000F067
:103290003DFC401B0228F5D9032051E0E369226A76
:1032A0001343626A43EA8213A26A5208013A43EA6C
:1032B0000243E26A43EA0263284A5360284B012230
:1032C0001A6600F023FC0446244B1B6813F0007FB1
:1032D00006D100F01BFC001B0228F5D903202FE0CB
:1032E00000202DE000202BE0012B2BD01B4B5B6836
:1032F00003F48001E269914226D103F03F02216A82
:103300008A4223D1616A47F6C0721A40B2EB811F2C
:103310001ED103F44031A26A5208013AB1EB024FC8
:1033200018D103F07063E26AB3EB026F14D100208E
:1033300006E001207047012002E0012000E00020AB
:1033400002B070BD0120FBE70120F9E70120F7E79B
:103350000120F5E70120F3E70120F1E70038024002
:103360000000474208B5264B9B6803F00C03042B72
:1033700041D0082B41D1224B5A6802F03F025B68D2
:1033800013F4800F12D01E4B5968C1F388111D48E9
:103390000023A1FB0001FCF723FF194B5B68C3F37B
:1033A000014301335B00B0FBF3F008BD144B5868D8
:1033B000C0F388104FEA401CBCEB000C6EEB0E0E05
:1033C0004FEA8E1343EA9C634FEA8C11B1EB0C0178
:1033D00063EB0E03DB0043EA5173C90011EB000CF1
:1033E00043F10003990200234FEA8C2041EA9C51EB
:1033F000FCF7F6FED1E70348D7E70348D5E700BF5F
:103400000038024040787D010024F400002800F0DC
:103410009B8070B50D4604464F4B1B6803F00703B5
:103420008B4208D2CBB24C4A1370136803F00703E7
:103430008B4240F08B80236813F0020F17D013F0FB
:10344000040F04D0454A936843F4E0539360236823
:1034500013F0080F04D0414A936843F4604393602B
:103460003E4A936823F0F003A1680B4393602368FE
:1034700013F0010F32D06368012B21D09A1E012A6C
:1034800025D9364A126812F0020F61D033498A6892
:1034900022F0030213438B6000F038FB06462F4BEB
:1034A0009B6803F00C036268B3EB820F16D000F048
:1034B0002DFB801B41F288339842F0D9032042E073
:1034C000264A126812F4003FE0D101203BE0234A73
:1034D000126812F0007FD9D1012034E01E4B1B6826
:1034E00003F00703AB4207D9EAB21B4B1A701B6803
:1034F00003F00703AB422DD1236813F0040F06D06D
:10350000164A936823F4E053E1680B439360236801
:1035100013F0080F07D0114A936823F46043216920
:1035200043EAC1039360FFF71DFF0C4B9B68C3F395
:1035300003130B4AD35CD8400A4B18600A4B186837
:1035400000F098FA002070BD012070470120FAE7D2
:103550000120F8E70120F6E7003C02400038024075
:10356000187C00082400002020000020014B18686F
:10357000704700BF2400002008B5FFF7F7FF044B99
:103580009B68C3F38223034AD35CD84008BD00BFC5
:1035900000380240107C000808B5FFF7E7FF044B35
:1035A0009B68C3F34233034AD35CD84008BD00BFD5
:1035B00000380240107C000800230F2B00F2D78057
:1035C00070B582B065E085684FEA430E032404FAC3
:1035D0000EF425EA0405CC6804FA0EF42C4384604A
:1035E000446824EA02044A68C2F300129A40224363
:1035F00042605CE0DC08083450F8242003F0070542
:10360000AD004FF00F0E0EFA05FE22EA0E0E0A690B
:10361000AA4042EA0E0240F824205CE0042200E0C6
:10362000002202FA0EF22A430234514D45F82420BA
:10363000504A94686FEA0C0224EA0C054E6816F4AE
:10364000801F01D04CEA04054A4CA560E46802EAF8
:1036500004054E6816F4001F01D04CEA0405454CE1
:10366000E560646802EA04054E6816F4003F01D084
:103670004CEA04053F4C6560246822404D6815F40F
:10368000803F01D04CEA04023A4C226001330F2BF8
:103690006BD801229A400C6804EA020C32EA040456
:1036A000F4D14C6804F00304013C012C8BD94A6826
:1036B00002F00302032A09D0C4685D000322AA4075
:1036C00024EA02048A68AA402243C2604A6802F0DF
:1036D0000302022A8ED004684FEA430E032202FA44
:1036E0000EF224EA02044A6802F0030202FA0EF221
:1036F000224302604A6812F4403FC7D00022019280
:103700001D4A546C44F480445464526C02F4804268
:103710000192019A9C08A51C154A52F8255003F005
:10372000030E4FEA8E0E0F2202FA0EF225EA020570
:10373000124A90423FF474AF02F5806290420ED07C
:1037400002F5806290420CD002F5806290420AD06D
:1037500002F5806290423FF461AF072261E70122E7
:103760005FE702225DE703225BE702B070BD7047AE
:1037700000380140003C0140003802400000024097
:1037800000230F2B7CD8F0B52DE0042500E00025A8
:1037900005FA0CF5A54257D004685D004FF0030C04
:1037A0000CFA05FC24EA0C0404604FEAD30E0EF177
:1037B000080E50F82E4003F00706B6000F25B5405E
:1037C00024EA050440F82E40C46824EA0C04C460CE
:1037D000446824EA02024260826822EA0C028260A3
:1037E00001330F2B4BD801229A4002EA010632EA3C
:1037F0000104F5D14FEA930E0EF10205214C54F865
:10380000254003F0030C4FEA8C0C0F2505FA0CF74A
:103810003C401D4DA842BAD005F58065A8420DD0A8
:1038200005F58065A8420BD005F58065A84209D052
:1038300005F58065A842A8D00725A9E70125A7E7D7
:103840000225A5E70325A3E7104C256825EA060510
:103850002560656825EA06056560E56825EA0605D0
:10386000E560A56825EA0605A560064E0EF102048E
:1038700056F8245025EA070546F824508CE7F0BD99
:10388000704700BF0038014000000240003C01408A
:103890000369194201D001207047002070470AB126
:1038A00081617047090481617047000008B5054BCC
:1038B0005B69034200D108BD024B586101F0A4FAD4
:1038C000F9E700BF003C014070B50446866D00F08A
:1038D0001DF994F83530022B06D080236365002350
:1038E00084F83430012070BD05462268136823F047
:1038F000160313602268536923F080035361236C1D
:10390000E3B12268136823F0080313602268136888
:1039100023F00103136023681B6813F0010F11D01B
:1039200000F0F4F8431B052BF5D920236365032031
:1039300084F83500002384F83430D4E7A36C002BDE
:10394000DFD1E3E7E26D3F239340B360012384F8C6
:103950003530002084F83400C5E790F83530022B6C
:1039600003D08023436501207047052380F835305C
:103970000268136823F00103136000207047000001
:10398000002807DB00F01F02400901239340024A90
:1039900042F82030704700BF00E100E0002808DB5B
:1039A0000901C9B200F1604000F5614080F80013E0
:1039B000704700F00F000901C9B2014B195470475C
:1039C00014ED00E000B500F00700C0F1070CBCF1F9
:1039D000040F28BF4FF0040C031D062B0ED9C31E85
:1039E0004FF0FF3E0EFA0CF021EA000199400EFA6A
:1039F00003FE22EA0E0241EA020000BD0023EFE7C7
:103A0000074AD36823F4E0631B041B0C000200F494
:103A1000E060034343F0BF6343F40033D360704777
:103A200000ED00E010B50446054BD868C0F3022055
:103A3000FFF7C8FF01462046FFF7B0FF10BD00BFEB
:103A400000ED00E008B5FFF79BFF08BD0138B0F1BD
:103A5000807F0BD24FF0E0235861054AF02182F8B5
:103A600023100020986107221A61704701207047D7
:103A700000ED00E010B504460E4B18680E4B1A78A6
:103A80004FF47A73B3FBF2F3B0FBF3F0FFF7DEFF12
:103A900068B90F2C01D901200AE0002221464FF01D
:103AA000FF30FFF7BFFF054B1C60002000E0012046
:103AB00010BD00BF240000201D00002020000020B9
:103AC00008B50B4B1A6842F400721A601A6842F487
:103AD00080621A601A6842F480721A600320FFF74D
:103AE0008FFF0F20FFF7C6FFFEF700FC002008BD88
:103AF000003C0240034A1168034B1B780B441360DF
:103B0000704700BF300200201D000020014B1868E4
:103B1000704700BF3002002038B50446FFF7F6FFBB
:103B20000546B4F1FF3F02D0044B1B781C44FFF75D
:103B3000EDFF401BA042FAD338BD00BF1D0000209E
:103B4000034AD2F8883043F47003C2F888307047D3
:103B500000ED00E008B50B480B4B03600B4B4360D6
:103B600000238360C3604FF480420261436183613C
:103B7000C361036200F000FB00B908BDFCF7C6FC9E
:103B8000FBE700BF3402002000540040A086010083
:103B900030B589B0002303930493059306930793EC
:103BA0000268144B9A4201D009B030BD002501953E
:103BB000114C236B43F002032363236B03F00203D6
:103BC0000193019B4FF44073039312230493032347
:103BD00006930423079303A90848FFF7EDFC029519
:103BE000236C43F400132364236C03F40013029347
:103BF000029BD9E700540040003802400004024014
:103C000002680B4B9A4200D0704710B5094A136CFA
:103C100023F400131364084C4FF480712046FFF71F
:103C2000AFFD4FF400712046FFF7AAFD10BD00BFA5
:103C300000540040003802400004024008B5074824
:103C4000074B03600223436040F6FF73836000F07C
:103C5000B7FD00B908BDFCF759FCFBE7880200205E
:103C60000030004003685A6912F4806F01D10020CF
:103C700070476FF480625A6100230363202280F84A
:103C80003D2080F83E30026C42F00402026480F86D
:103C90003C30012070472DE9F04106460C4617469E
:103CA00098463BE0FFF732FF069BC01A404502D81A
:103CB000B8F1000F32D1012D18D033689B6924EA86
:103CC00003039BB2B3FA83F35B099F4226D100231F
:103CD0003363202286F83D2086F83E30326C42F075
:103CE0002002326486F83C30012027E033685B69AB
:103CF00024EA03039BB2B3FA83F35B09E5E7336875
:103D00005B6924EA030C1FFA8CFCBCFA8CFC4FEABA
:103D10005C1C674511D1B8F1FF3FC3D1C4F307451F
:103D2000012DECD033689B6924EA030C1FFA8CFC4C
:103D3000BCFA8CFC4FEA5C1CEBE70020BDE8F0818C
:103D40002DE9F84305460E469046994653E01A6819
:103D500042F400721A602B686FF480625A6100238B
:103D60002B63202285F83D2085F83E302A6C42F0F6
:103D700004022A6485F83C3001204AE0FFF7C6FEC1
:103D8000A0EB0900404502D8B8F1000F33D1012F54
:103D900017D02B689B6926EA03039BB2003B18BF30
:103DA000012343B300232B63202285F83D2085F8AF
:103DB0003E302A6C42F020022A6485F83C30012013
:103DC00027E02B685B6926EA03039BB2003B18BF20
:103DD0000123E6E72B689C6926EA0404A4B2003CB0
:103DE00018BF0124A4B12B685A6912F4806FAED1B8
:103DF000B8F1FF3FC2D1C6F30747012FEAD12B68C4
:103E00005C6926EA0404A4B2003C18BF0124E9E777
:103E10000020BDE8F88370B504460D4616462368B9
:103E20005B6913F0800F21D12046FFF71BFFF8B923
:103E3000B5F1FF3FF3D0FFF769FE801BA84201D820
:103E4000002DECD123685B6913F0800FE7D10023CC
:103E50002363202284F83D2084F83E30226C42F017
:103E60002002226484F83C30012000E0002070BD74
:103E70000120FCE72DE9F04385B004460D4691464C
:103E80001F46DDF830800D9E0368196841F480718B
:103E900019600096434600224FF00111FFF7FBFE28
:103EA00060B9236805F0FE051D6133464246264988
:103EB0002046FFF745FF68B1012008E023681B6832
:103EC00013F4807F02D04FF400732364032005B005
:103ED000BDE8F0830023039323685A6903929B692A
:103EE0000393039B324641462046FFF794FF30B9C7
:103EF000012F0FD123685FFA89F61E61E7E7236C73
:103F0000042B01D00120E2E72268136843F4007318
:103F10001360F7E723684FEA19221A6132464146D7
:103F20002046FFF778FF20B923685FFA89F61E6103
:103F3000CDE7236C042B01D00120C8E72268136869
:103F400043F400731360F7E7020001002DE9F04726
:103F500084B004460D46164699460C9FDDF8348021
:103F60000268136843F4806313600368196841F4BE
:103F700080711960CDF800803B4600224FF001119E
:103F8000FFF789FE70B95FFA85FA236805F0FE0530
:103F90001D6143463A4641492046FFF7D1FE68B1CC
:103FA000012008E023681B6813F4807F02D04FF4DF
:103FB00000732364032004B0BDE8F087002303935B
:103FC00023685A6903929B690393039B42463946CF
:103FD0002046FFF720FF80B9B9F1010F18D12368FF
:103FE000F6B21E61424639462046FFF714FF68B319
:103FF000236C042B24D00120DDE7236C042B01D09B
:104000000120D8E72268136843F400731360F7E7D0
:104010002368320A1A61424639462046FFF7FBFE02
:1040200018B92368F6B21E61DCE7236C042B01D0BB
:104030000120C0E72268136843F400731360F7E7B8
:104040002268136843F400731360D4E7226813688E
:1040500043F480731360CDF800803B4600224FF09C
:1040600001112046FFF717FE68B922684AF00103E4
:10407000136143463A4609492046FFF761FE00288E
:1040800099D0012097E723681B6813F4807F02D042
:104090004FF40073236403208DE700BF020001008A
:1040A00070B504460D46164623685B6913F0040F8D
:1040B00021D12046FFF7D6FDF8B9B5F1FF3FF3D087
:1040C000FFF724FD801BA84201D8002DECD1236806
:1040D0005B6913F0040FE7D100232363202284F8E7
:1040E0003D2084F83E30226C42F02002226484F8A5
:1040F0003C30012000E0002070BD0120FCE770B5DD
:1041000004460D46164614E06FF010025A61002373
:104110002363202284F83D2084F83E30226C226400
:1041200084F83C30012025E023685B6913F0400FE0
:1041300010D02368586910F0400F1AD1586910F058
:10414000100FE1D1FFF7E2FC801BA842ECD8002D54
:10415000EFD1E9E700232363202284F83D2084F88F
:104160003E30226C42F02002226484F83C30012070
:1041700000E0002070BD0000002800F0CC8070B589
:10418000044690F83D30002B77D0242384F83D304E
:104190002268136823F0010313602268136843F454
:1041A000004313602268136823F400431360FFF791
:1041B000E3F962685A4B9A4264D85A4B98428CBFD2
:1041C00000230123002B40F0A8805749A1FB0031B8
:1041D0008B0C25686A6822F03F0242EA91426A60CD
:1041E00021680A6A22F03F0266684D4DAE424FD800
:1041F000013313430B622168CA6922F44F4222F053
:10420000FF026568464B9D424CD8431E6D00B3FBD0
:10421000F5F3013340F6FC70034278D0C3F30B038F
:104220001A43CA6121680B6823F0C003E269206A5F
:10423000024313430B6021688B6823F4034323F08C
:10424000FF032269E068024313438B602168CB6857
:1042500023F0FF036269A06902431343CB60226825
:10426000136843F00103136000202064202384F8C6
:104270003D30206384F83E0070BD80F83C30FFF78D
:1042800087FC82E7294B98428CBF0023012399E7E2
:104290004FF4967505FB03F3254DA5FB03539B09CE
:1042A0000133A6E7A668BEB9431E05EB450CB3FB78
:1042B000FCF30133C3F30B03B3FA83F35B0943BB92
:1042C000C6B9431E05EB4505B3FBF5F30133C3F354
:1042D0000B0343F40043A3E7431E05EB850C0CEBF3
:1042E0008C0CB3FBFCF30133C3F30B03B3FA83F37E
:1042F0005B09E4E7431E05EB850505EB8505B3FB8C
:10430000F5F30133C3F30B0343F4404388E704237D
:1043100086E7012384E7012070470120ACE700BF56
:10432000A08601007F841E0083DE1B43FF083D0042
:10433000D34D6210A8B110B50446242380F83D3057
:104340000268136823F001031360FFF759FC002093
:10435000206484F83D00206384F83E0084F83C002B
:1043600010BD0120704700002DE9F04383B00446E2
:104370000F46904699460C9EFFF7C8FB94F83D20E7
:10438000202A03D0022003B0BDE8F0830546009048
:10439000192301224A492046FFF77DFC002840F0FE
:1043A000898094F83C30012B00F08680012384F84A
:1043B0003C3023681A6812F0010F03D11A6842F0EA
:1043C00001021A602268136823F40063136021233A
:1043D00084F83D30402384F83E30002323640A9B58
:1043E0006362BDF82C306385638D2385354BE362B2
:1043F000019500964B46424639462046FFF73AFD66
:1044000000285BD1238D002B35D02A46314620462B
:10441000FFF701FD20BB626A236812781A61626AA5
:10442000531C6362218D013989B22185638D9BB252
:10443000013B9BB263852368586910F0040FE1D0FB
:104440000029DFD052781A61636A01336362238DD9
:10445000013B2385638D9BB2013B9BB26385D1E712
:10446000236C042B01D001208DE72268136843F4EC
:1044700000731360F7E72A4631462046FFF710FE27
:1044800050B1236C042B01D001207CE72268136813
:1044900043F400731360F7E72268136843F4007372
:1044A0001360202384F83D30002384F83E3084F8E4
:1044B0003C3068E7022066E7022064E7012062E7FB
:1044C000020010000000FFFF2DE9F04387B0044612
:1044D0000F4690469946109EFFF718FB94F83D2032
:1044E000202A04D00227384607B0BDE8F0830546ED
:1044F00000901923012289492046FFF7CCFB0028B0
:1045000040F04E8194F83C30012B00F04B810123A8
:1045100084F83C3023681A6812F0010F03D11A683E
:1045200042F001021A602268136823F400631360EA
:10453000222384F83D30402384F83E300023236456
:104540000E9B6362BDF83C306385638D2385744B9D
:10455000E362019500964B46424639462046FFF7F6
:10456000F5FC0746002840F01F81238D5BB90293BC
:1045700023685A6902929A690292029A1A6842F46E
:1045800000721A6075E0012B0AD0022B1AD00023AA
:10459000059323685A6905929B690593059B68E01A
:1045A0002268136823F48063136000230393236855
:1045B0005A6903929A690392039A1A6842F4007244
:1045C0001A6056E02268136823F48063136022683F
:1045D000136843F4006313600023049323685A694B
:1045E00004929B690493049B43E02A46314620468B
:1045F000FFF785FD002840F0D98023681A69636AB7
:104600001A70636A01336362238D013B2385638DD6
:104610009BB2013B9BB263852BE0009533460022A1
:1046200040492046FFF737FB002840F0C180226850
:10463000136843F40073136023681A69636A1A707D
:10464000626A531C6362238D013B2385638D9BB299
:10465000013B9BB2638523681B695370636A013316
:104660006362238D013B2385638D9BB2013B9BB22B
:104670006385238D002B00F08A80032B54D8012BF7
:10468000B3D0022BC9D000953346002225492046DD
:10469000FFF701FB002840F08D802268136823F4A7
:1046A0008063136023681A69636A1A70636A01334E
:1046B0006362238D013B2385638D9BB2013B9BB2DB
:1046C000638500953346002216492046FFF7E3FA3A
:1046D000002871D12268136843F4007313602368C3
:1046E0001A69636A1A70626A531C6362238D013B04
:1046F0002385638D9BB2013B9BB2638523681B6955
:104700005370636A01336362238D013B2385638D9C
:104710009BB2013B9BB26385ABE700BF0200100078
:104720000000FFFF040001002A4631462046FFF743
:10473000E6FC002842D123681A69636A1A70636A2A
:1047400001336362228D013A92B22285638D9BB25E
:10475000013B9BB263852368596911F0040F88D02F
:10476000032A0FD023681A69636A1A70636A0133D7
:104770006362238D013B2385638D9BB2013B9BB21A
:10478000638576E71A6822F480621A60EAE72023DC
:1047900084F83D30002384F83E3084F83C30A2E6B3
:1047A0000227A0E602279EE601279CE601279AE65B
:1047B000012798E6012796E6012794E6012792E66D
:1047C00050B338B5044603684CF6CC421A6003680F
:1047D00045F255521A60036842685A60036882685D
:1047E0009A60FFF793F905462368DA6812F0030F21
:1047F0000DD0FFF78BF9401B41F601039842F3D926
:104800002368DB6813F0030FEED0032003E04AF6C1
:10481000AA221A60002038BD0120704703684AF6BA
:10482000AA221A600020704700B583B002E05A4BFC
:1048300001221A704FF0FF3300220DF10701574893
:10484000006802F0ECF90028F4D19DF80730303B05
:10485000252BEFD801A252F823F000BFF54800083D
:104860002F4800083548000835480008354800083A
:104870003548000835480008354800083548000824
:104880003548000835480008354800083548000814
:104890003548000835480008354800083548000804
:1048A0000549000835480008354800083D4900081A
:1048B00035480008354800083548000835480008E4
:1048C00035480008354800083548000853490008B5
:1048D00013490008354800083548000835480008E5
:1048E000354800086B49000883490008354800082E
:1048F000294900080023284A1370294A1370294ABD
:10490000137097E7284B00221A70234B01221A706C
:1049100090E70123244A13701F4A13700023204A92
:104920001370204A137085E71F4B1B78002B81D032
:1049300050231B4A13701B4A13707BE71A4B1B78DA
:10494000002B3FF477AFB023154A1370154A13704C
:1049500070E7154B1B78002B3FF46CAF104BC42253
:104960001A70104B3C221A7064E70F4B1B78002B17
:104970003FF460AF0A4B3C221A700A4BC4221A70F3
:1049800058E7094B1B78002B3FF454AF0023044A2F
:104990001370044A13704DE7E4020020D002002097
:1049A000E2020020E1020020E302002030B587B0DF
:1049B000002423E01C4B1B78012B04D07CB16846FB
:1049C000FDF7EEF915E0194B187840B2FCF724F822
:1049D000174B187840B2FCF759F8002409E0FDF7AE
:1049E000A1F90124EBE7134A936C01339364FCF7BC
:1049F000CBF8002001F03CFB0E4B186596230022FB
:104A000069460D48006802F00AF90028EBD10B480E
:104A1000FFF704FF0A4B1B7803F0FF05002BC9D1F9
:104A2000FCF7B2F82C46E4E7E3020020E2020020A3
:104A3000E1020020AC010020E802002088020020F2
:104A4000E40200202DE9F0478AB000210AE001EBE2
:104A500041021A44A648C82420F812400133022B10
:104A6000F5DD0131022901DC0023F8E701F08DFFBB
:104A7000FDF7FCFA9F4B93F83C209F4B1A70C82718
:104A8000B846CBE09D4B1B78FF2B00F0DE80013356
:104A90009A4A1370D9E05A1E954931F8120021F84C
:104AA00013001346002BF6DCBDF82020904B1A8033
:104AB000D3E00223F6E7ADF80400ADF80680ADF8C8
:104AC00008708DF80A4000278DF80B708B4B1B780F
:104AD0008DF80C308A4B1B6804938DF81470FFF727
:104AE00015F806903B463A4601A98648006802F050
:104AF00054F8002800F0B9807E4A536C01335364A7
:104B0000B3E0814A0021D15402220BE0501E784FBD
:104B100003EB430101EB000C37F81CC0114427F8EC
:104B200011C00246002AF1DC0AAA02EB430232F865
:104B3000080C03EB43026E4921F812000133022BEB
:104B40001DDC03F128026A4412F80C2C002AD8D18B
:104B50006D4AD25CFF2AF1D00132D2B26A49CA54FE
:104B6000022AEBD9002207E003EB4301114460481D
:104B7000C82720F811700132022AF5DDDEE7634F05
:104B800003213846FDF72AFB80460321B81DFDF7B7
:104B900025FB0746574B9D84A3F826801885564B66
:104BA00093F800A0BAF1000F70D1524B93F83C304B
:104BB00003F0FF093BB1564B1B68F31AB3F5FA7FBC
:104BC00080F0AE80D1464B4B83F83D90ADF8045059
:104BD000ADF80680ADF808708DF80A4001238DF815
:104BE0000B30464B1B788DF80C30454B1B680493FB
:104BF0008DF81490FEF78AFF069000231A4601A94B
:104C00004048006801F0C9FF18B13A4A536C0133BB
:104C10005364002001F02CFA364BD864FEF776FF7F
:104C200006463C4A1368C31A3249CB62106008AA90
:104C300019210020FDF730FA04468DF81C000028E9
:104C40003FF420AF2D4B00221A702C4B1A78294BC1
:104C500083F82A20002C7FF42CAF03212448FDF791
:104C600000FB05461D287FF626AF0DF12202062126
:104C70000120FDF711FA8DF81D0009AA0621022076
:104C8000FDF70AFA8DF81E00012358E71C48FCF7CF
:104C9000C5F8D0B1204B00221A70194A1168154B83
:104CA00019635168596392689A634FF001091B4B6D
:104CB0001B68F31AB3F5FA7F85D3184B1E60FCF717
:104CC000EDF80C4B83F83E007DE7134A137801336F
:104CD000DBB21370042B07D94FF00009064B83F8A1
:104CE00000900B4B1E60E2E74FF00009DFE700BFCA
:104CF000BC020020AC010020B8020020B00200205D
:104D0000A4020020E8020020A0020020C20200202D
:104D100098020020B40200209C020020940200208F
:104D20000C4B1E600C48FCF779F880B14FF001097C
:104D30000A4B83F800900A4B00221A70064A116849
:104D4000084B19635168596392689A633BE7D146EF
:104D500039E700BF98020020A4020020B80200201A
:104D60009C020020AC01002010B582B0184A01213D
:104D7000102001F0C7FE174B1860002218210220F6
:104D800001F0C0FE144B186000240194134803681E
:104D90001A6801925B680193019B0122104902F09D
:104DA000D8FD104A2146104801F094FD0F4B1860C1
:104DB0000F4A21460F4801F08DFD0F4B18600F4A36
:104DC00021460F4801F086FD0E4B186002B010BD61
:104DD000707C0008D0020020E8020020844E0020F1
:104DE000E0020020D07C0008AD490008DC02002071
:104DF000AC7C0008454A0008D8020020887C0008E6
:104E000029480008D4020020012800D07047024A37
:104E1000136C01331364F9E7AC0100200268094BFD
:104E20009A4200D0704710B5074C00231A4621461D
:104E30000648006801F0B1FE01222146044802F054
:104E400088FD10BD00100140E0020020D0020020CB
:104E5000844E00200268164B9A4200D0704700B57D
:104E600085B0144A536D01335365002200921248F5
:104E700003681968009159680091009901921968B6
:104E8000019159680191019902921968029159683A
:104E9000029102990392196803915B680393039B43
:104EA00042640122054902F054FD05B000BD00BF77
:104EB00000100140AC010020844E0020E0020020E0
:104EC00000F1080343604FF0FF328260C36003616A
:104ED00000230360704700230361704743684B6001
:104EE0009A688A60516099600861036801330360C1
:104EF000704730B40D68B5F1FF3F11D000F10803E1
:104F00001C465B681A68AA42FAD963684B609960CC
:104F10008C606160086103680133036030BC7047D6
:104F20000469F2E70369416882688A6041685160F8
:104F30005A68824206D0002202611A68013A1A6059
:104F40001868704782685A60F5E710B5044602F0A9
:104F500049F8A26BE36B9A4204D0002402F064F893
:104F6000204610BD0124F9E710B5044602F03AF8D6
:104F7000A36B23B9012402F057F8204610BD00248A
:104F8000F9E770B504461546866B026C5AB903689A
:104F90001BB100200136A66370BD806801F08AF85D
:104FA0000023A360F6E76DB9406802F09BFD6368DB
:104FB000226C13446360A268934219D32368636030
:104FC0002846E7E7C06802F08DFDE368226C514295
:104FD0009B1AE3602268934202D2A3680B44E36009
:104FE000022D01D00020D5E726B1013E0020D1E7F7
:104FF0002846CFE70020CDE70346026C6AB110B522
:105000000846D9681144D9609C68A14201D3196847
:10501000D960D96802F066FD10BD704738B5054605
:1050200001F0E0FF95F8454064B201E0013C64B254
:10503000002C0ADD6B6A43B105F1240000F07CFF0F
:105040000028F3D001F00EF8F0E7FF2385F8453093
:1050500001F0EAFF01F0C6FF95F8444064B201E0B8
:10506000013C64B2002C0ADD2B6943B105F110004C
:1050700000F062FF0028F3D000F0F4FFF0E7FF2318
:1050800085F8443001F0D0FF38BD38B5E0B10D46A9
:10509000044601F0A7FF2368E26B216C01FB02309C
:1050A000A0600020A0636360013A02FB0133E3606B
:1050B000FF2384F8443084F84530FDB9236963B98F
:1050C00001F0B2FF012038BD4FF0500383F3118887
:1050D000BFF36F8FBFF34F8FFEE704F1100000F0B6
:1050E0002BFF0028ECD04FF0E0234FF08052C3F8A4
:1050F000042DBFF34F8FBFF36F8FE1E704F1100072
:10510000FFF7DEFE04F12400FFF7DAFED8E738B53A
:105110001D46049C0B4649B92460E06323640121C9
:105120002046FFF7B2FF84F84C5038BD2260F4E708
:1051300040B94FF0500383F31188BFF36F8FBFF373
:105140004F8FFEE710B584B01C46844653B192B130
:1051500089B94FF0500383F31188BFF36F8FBFF30A
:105160004F8FFEE74FF0500383F31188BFF36F8F2B
:10517000BFF34F8FFEE76AB150230393039B502B7D
:1051800013D04FF0500383F31188BFF36F8FBFF339
:105190004F8FFEE70029EFD04FF0500383F31188C3
:1051A000BFF36F8FBFF34F8FFEE7039B012384F89C
:1051B000463000949DF818306046FFF7A8FF20465F
:1051C00004B010BD40B94FF0500383F31188BFF312
:1051D0006F8FBFF34F8FFEE7F0B583B00D461446D7
:1051E000064601FB00F0503001F0D6FD074650B1F5
:1051F000002380F846300090234600F150022946F3
:105200003046FFF784FF384603B0F0BDF0B585B0F7
:10521000019288B10F461D460446B1B1022D20D13E
:10522000E36B012B1DD04FF0500383F31188BFF3C4
:105230006F8FBFF34F8FFEE74FF0500383F311885A
:10524000BFF36F8FBFF34F8FFEE7036C002BE5D0EA
:105250004FF0500383F31188BFF36F8FBFF34F8F6D
:10526000FEE700F017FF064658B9019B002B48D017
:105270004FF0500383F31188BFF36F8FBFF34F8F4D
:10528000FEE700263DE02A4639462046FFF779FE34
:10529000636A7BB948B14FF0E0234FF08052C3F806
:1052A000042DBFF34F8FBFF36F8F01F0BDFE0120C0
:1052B00005B0F0BD04F1240000F03EFE0028F4D05B
:1052C0004FF0E0234FF08052C3F8042DBFF34F8F0F
:1052D000BFF36F8FE9E701F0A7FE0020E8E702A81F
:1052E00000F070FE012619E0002384F8443021E02C
:1052F000002384F8453023E02046FFF78FFE00F0BE
:1053000019FD01F06FFEA26BE36B9A42BBD3022D35
:10531000B9D0019B002BDED0002EE0D001F084FE3E
:1053200000F06EFC01F05EFE94F8442052B2B2F13F
:10533000FF3FD9D094F8452052B2B2F1FF3FD7D009
:1053400001F072FE01A902A800F048FED8B920467B
:10535000FFF7FBFD0028CFD0019904F1100000F009
:10536000B7FD2046FFF75AFE00F0E4FC0028C8D144
:105370004FF0E0234FF08052C3F8042DBFF34F8F5E
:10538000BFF36F8FBDE72046FFF748FE00F0D2FC69
:1053900000208DE72DE9F84390B10F4616461C46D4
:1053A0000546B1B1022C20D1EB6B012B1DD04FF083
:1053B000500383F31188BFF36F8FBFF34F8FFEE766
:1053C0004FF0500383F31188BFF36F8FBFF34F8FFC
:1053D000FEE7036C002BE5D04FF0500383F31188F8
:1053E000BFF36F8FBFF34F8FFEE701F021FFEFF3A5
:1053F00011884FF0500383F31188BFF36F8FBFF311
:105400004F8FAA6BEB6B9A4206D3022C04D000207C
:1054100088F31188BDE8F88395F845904FFA89F92B
:10542000AB6B224639462846FFF7ABFDB9F1FF3F8B
:1054300006D009F101035BB285F845300120E7E7AA
:105440006B6A0BB90120E3E705F1240000F074FD5D
:1054500018B126B101203060DAE70120D8E7012039
:10546000D6E7F0B585B0019290B10F460446C1B1C0
:1054700000F010FE064600BB019B002B5ED04FF0F3
:10548000500383F31188BFF36F8FBFF34F8FFEE795
:105490004FF0500383F31188BFF36F8FBFF34F8F2B
:1054A000FEE7036C002BE3D04FF0500383F3118829
:1054B000BFF36F8FBFF34F8FFEE700263EE0394604
:1054C0002046FFF799FD013DA563236923B901F04B
:1054D000ABFD012005B0F0BD04F1100000F02CFD83
:1054E0000028F4D04FF0E0234FF08052C3F8042D91
:1054F000BFF34F8FBFF36F8FE9E701F095FD0020F9
:10550000E8E702A800F05EFD012621E0002384F810
:10551000443029E0002384F845302BE02046FFF793
:105520007DFD00F007FC09E02046FFF777FD00F065
:1055300001FC2046FFF718FD00283FD101F052FD85
:10554000A56B002DBBD1019B002BD6D0002ED8D04F
:1055500001F06AFD00F054FB01F044FD94F8443082
:105560005BB2B3F1FF3FD1D094F845305BB2B3F1F9
:10557000FF3FCFD001F058FD01A902A800F02EFD99
:105580000028D1D12046FFF7EFFC0028C6D00199B2
:1055900004F1240000F09CFC2046FFF73FFD00F0E2
:1055A000C9FB0028CAD14FF0E0234FF08052C3F866
:1055B000042DBFF34F8FBFF36F8FBFE7002089E744
:1055C0002DE9F843B0B10D4690460446D9B101F03B
:1055D0002FFEEFF311874FF0500383F31188BFF3D1
:1055E0006F8FBFF34F8FA66BCEB9002087F3118862
:1055F000BDE8F8834FF0500383F31188BFF36F8F3A
:10560000BFF34F8FFEE7036C002BE0D04FF0500349
:1056100083F31188BFF36F8FBFF34F8FFEE794F8CA
:1056200044904FFA89F929462046FFF7E5FC731E9E
:10563000A363B9F1FF3F06D009F101035BB284F81F
:1056400044300120D2E723690BB90120CEE704F1F1
:10565000100000F071FC30B1B8F1000F05D001204E
:10566000C8F80000C2E70120C0E70120BEE7000043
:105670000023072B0CD8074A52F833200AB1013314
:10568000F7E7044A42F8331002EBC3025060704758
:10569000704700BFEC02002070B504460D46164668
:1056A00001F0A0FC94F844305BB2B3F1FF3F0DD0A1
:1056B00094F845305BB2B3F1FF3F0BD001F0B4FC7E
:1056C000A36B5BB12046FFF7A9FC70BD002384F8F3
:1056D0004430EDE7002384F84530EFE732462946B1
:1056E00004F1240000F00CFCECE7002301E00130A1
:1056F00001330278A52AFAD0C3F38F007047000067
:10570000084B1B681B6823B9074B4FF0FF321A6028
:105710007047044B1B68DB68DB685A68024B1A60F1
:10572000704700BF9C030020340300202DE9F047A0
:1057300080460D4617469946089EDDF824A00A9C2F
:105740009200A521206B02F040F9236B07F1804203
:10575000013A03EB820727F00707002D61D04FF0D5
:10576000000CBCF10F0F09D815F80C3004EB0C023B
:1057700082F8343013B10CF1010CF2E7002384F805
:105780004330372E00D93726E662E66400252565CA
:10579000201DFFF7A0FB04F11800FFF79CFB24611C
:1057A000C6F13806A6616462C4F8785184F87C5169
:1057B0004FF49072294604F1580002F006F91B4B91
:1057C000E36503F168022266D03363660122002399
:1057D000C4E93C2343F20E33A4F8F8304AF6CD3343
:1057E000A4F8FA3041F23423A4F8FC304EF26D6391
:1057F000A4F8FE304DF6EC63A4F800310523A4F8BC
:1058000002310B23A4F804314A464146384601F0E0
:10581000C1FB2060BAF1000F01D0CAF80040BDE81A
:10582000F087002384F83430ABE700BFCC4E002073
:1058300038B5002407E004EB840293000E481844B6
:10584000FFF73EFB0134372CF5D90C4D2846FFF706
:1058500037FB0B4C2046FFF733FB0A48FFF730FBC2
:105860000948FFF72DFB0948FFF72AFB084B1D608D
:10587000084B1C6038BD00BFC8030020B4030020E3
:10588000A0030020840300207003002058030020A0
:105890009C0300209803002010B5044601F0A2FBF1
:1058A000224A136801331360214B1B685BB1214B03
:1058B0001B686BB91E4B1B68DA6AE36A9A4207D809
:1058C0001B4B1C6004E01A4B1C601368012B29D091
:1058D000194A1368013313606364E06A174B1B684D
:1058E000984201D9154B186000EB8000211D144B24
:1058F00003EB8000FFF7F2FA01F096FB0D4B1B68FB
:105900007BB10B4B1B68DA6AE36A9A4209D24FF00B
:10591000E0234FF08052C3F8042DBFF34F8FBFF345
:105920006F8F10BDFFF784FFD2E700BF5403002044
:105930002808002048030020380300204C030020E2
:10594000C803002010B50446583002F047F894F818
:105950007D3163B1012B11D0022B0ED04FF05003DB
:1059600083F31188BFF36F8FBFF34F8FFEE7206B78
:1059700001F094FA204601F091FA10BD204601F0A2
:105980008DFAFAE70F4B1B68D3B110B501F02AFB73
:105990000D4BDB68DC68201DFFF7C4FA0B4A136867
:1059A000013B1360074A1368013B136001F03CFBA5
:1059B0002046FFF7C7FF034B1B68002BE6D110BD45
:1059C000704700BF6C0300207003002054030020C8
:1059D00008B5FFF7D7FF074B1B68012BF9D94FF02C
:1059E000E0234FF08052C3F8042DBFF34F8FBFF375
:1059F0006F8FEEE7C803002070B504460D46174BC5
:105A00001E68174B18680430FFF78CFAB4F1FF3F9B
:105A10000DD03444124B1B685C60A64210D9114B68
:105A200018680F4B19680431FFF763FA70BD002D39
:105A3000EFD00B4B196804310B48FFF74FFAF5E72D
:105A40000A4B1868064B19680431FFF752FA084BE5
:105A50001B68A342EAD9064B1C60E7E7500300200D
:105A60002808002098030020580300209C030020F1
:105A70003403002030B587B00B9C8CB10C9DC5B1B0
:105A80004FF4C0750495049DB5F5C07F1AD04FF052
:105A9000500383F31188BFF36F8FBFF34F8FFEE77F
:105AA0004FF0500383F31188BFF36F8FBFF34F8F15
:105AB000FEE74FF0500383F31188BFF36F8FBFF3FE
:105AC0004F8FFEE7049D0C9D2C63022485F87D41D9
:105AD00000240394029505AC01940A9C0094FFF7FE
