:020000040800F2
:1000000000000220ADA20008554900085D49000823
:10001000654900086D4900087549000800000000A6
:10002000000000000000000000000000F19800083F
:100030007D49000800000000919900087F490008F0
:10004000FDA20008FDA20008FDA20008FDA2000814
:10005000FDA20008FDA2000895490008FDA20008C5
:10006000FDA20008FDA20008FDA20008FDA20008F4
:10007000FDA20008FDA20008FDA20008FDA20008E4
:10008000FDA20008FDA20008FDA20008000000007B
:10009000000000000000000000000000FDA20008B9
:1000A000FDA20008FDA20008FDA20008FDA20008B4
:1000B000FDA20008A1490008FDA20008FDA2000859
:1000C000FDA20008FDA20008FDA20008FDA2000894
:1000D000FDA20008B1490008FDA2000800000000D0
:1000E000FDA20008FDA20008FDA20008000000001B
:1000F000000000000000000000000000FDA2000859
:1001000000000000FDA20008FDA20008FDA20008FA
:1001100000000000000000000000000000000000DF
:10012000FDA20008FDA20008FDA20008FDA2000833
:10013000FDA2000800000000000000000000000018
:10014000000000000000000000000000FDA2000808
:10015000FDA20008FDA20008FDA20008FDA2000803
:10016000FDA20008FDA20008000000000000000041
:10017000000000000000000000000000000000007F
:1001800000000000FDA200080000000000000000C8
:08019000FDA20008FDA2000819
:1001A0000348044B834202D0034B03B11847704706
:1001B0009000002090000020000000000548064B41
:1001C0001B1AD90F01EBA301491002D0034B03B155
:1001D00018477047900000209000002000000000A9
:1001E00010B5064C237843B9FFF7DAFF044B13B17F
:1001F0000448AFF300800123237010BD900000205D
:100200000000000000A3000808B5044B1BB104491E
:100210000448AFF30080BDE80840CFE700000000CD
:100220009400002000A3000870B50F4B0F4DAB42A7
:10023000A3EB050607D0B610002455F8043B0134A3
:100240009847A642F9D80AF05BF8094D094B5E1BA6
:10025000AB424FEAA60606D0002455F8043B013411
:100260009847A642F9D870BD74A8000874A8000881
:1002700074A8000878A80008830730B547D0541E3A
:10028000002A3ED0CAB2034601E0013C39D303F84C
:10029000012B9D07F9D1032C2CD9CDB205EB0525F7
:1002A0000F2C05EB054535D9A4F1100222F00F0CF7
:1002B00003F1100EE6444FEA121C1A46C2E900553B
:1002C000C2E9025510327245F8D10CF1010214F066
:1002D0000C0F03EB021204F00F0C13D0ACF104036B
:1002E00023F003030433134442F8045B9342FBD12D
:1002F0000CF003042CB1C9B21C4403F8011BA34247
:10030000FBD130BD64461346002CF4D1F9E7034617
:100310001446C0E71A46A446E0E700BF002950D0C3
:1003200038B551F8043C0C1F002BB8BFE418054643
:1003300000F056F9274A13682BB1A3420CD9216863
:10034000601883422CD0636028461460BDE83840B2
:1003500000F048B9A3420FD81A465B68002BF9D1C8
:1003600011685018844217D02CD36360546028461B
:10037000BDE8384000F036B911685018A04214D0DA
:1003800020D8216860188342EFD118685B68084460
:10039000C4E900035460EAE723680B441360E6E70E
:1003A00018685B6808442060CDE720680144501855
:1003B00083421160DBD1D3E900040144C2E9001497
:1003C000D5E770470C232B602846BDE8384000F085
:1003D00009B900BFEC010020844641EA000313F094
:1003E00003036DD1403A41D351F8043B40F8043B3C
:1003F00051F8043B40F8043B51F8043B40F8043BFF
:1004000051F8043B40F8043B51F8043B40F8043BEE
:1004100051F8043B40F8043B51F8043B40F8043BDE
:1004200051F8043B40F8043B51F8043B40F8043BCE
:1004300051F8043B40F8043B51F8043B40F8043BBE
:1004400051F8043B40F8043B51F8043B40F8043BAE
:1004500051F8043B40F8043B51F8043B40F8043B9E
:1004600051F8043B40F8043B403ABDD2303211D33E
:1004700051F8043B40F8043B51F8043B40F8043B7E
:1004800051F8043B40F8043B51F8043B40F8043B6E
:10049000103AEDD20C3205D351F8043B40F8043B3E
:1004A000043AF9D2043208D0D2071CBF11F8013B3C
:1004B00000F8013B01D30B8803806046704700BF02
:1004C000082A13D38B078DD010F003038AD0C3F111
:1004D0000403D21ADB071CBF11F8013B00F8013BF3
:1004E00080D331F8023B20F8023B7BE7043AD9D3B2
:1004F000013A11F8013B00F8013BF9D20B78037087
:100500004B7843708B78837060467047334B1B6821
:10051000834261D0C26970B50546002A53D0D168C4
:1005200091B100268C5944B1214624682846FFF732
:10053000F5FE002CF8D1EB69D9680436802EF1D194
:100540002846FFF7EBFEEA69116819B12846FFF764
:10055000E5FEEA699468002C3AD0214624682846D2
:10056000FFF7DCFE002CF8D1696911B12846FFF7CE
:10057000D5FEEA691AB111462846FFF7CFFE296B6E
:1005800011B12846FFF7CAFE696B11B12846FFF783
:10059000C5FEA96B11B12846FFF7C0FEA96C11B1C9
:1005A0002846FFF7BBFE696C11B12846FFF7B6FE7F
:1005B000E96A11B12846FFF7B1FE2B6A3BB1284624
:1005C000BDE87040184741690029CFD1D7E770BD19
:1005D00069690029CAD1CEE7704700BF000000203A
:1005E000704700BF704700BF10EE103A184923F063
:1005F00000428A421AD9B2F1FF4F02D330EE400ACC
:10060000704700B583B0684600F050F900F0030071
:100610000128DDED010A9DED000A10D0022809D065
:1006200090B900F03FF803B05DF804FBDFED090A74
:1006300000F038B800F036F8B1EE400AF3E700F009
:10064000EDF8B1EE400AEEE7012000F0E7F8EAE746
:10065000D80F493F0000000010EE103AC3F3C75214
:100660007F3A162A194615DC002A0CDB0C4810418B
:10067000184205D04FF4800313410B4423EA0003D2
:1006800000EE103A7047013203F00043F8D143F016
:100690007E53F5E7802AF3D130EE000A704700BFA1
:1006A000FFFF7F0010EE103A23F00043B3F1485FE4
:1006B0002CD2FDEEC07A17EE903A002B60D060EE9F
:1006C000007A9FED317A9FED315ADFED315A9FED7F
:1006D000316ADFED316AA7EE875A9FED307AE7EE97
:1006E000855AA7EEA56AA7EE867AE7EE876A67EED7
:1006F000A66A60EEC00AB6EE007AE7EEA60AB7EE8A
:10070000000AD7EE870A30EE600A704760EE007A82
:100710009FED1D7A9FED1D5ADFED1D5A9FED1D6A5D
:10072000DFED1D6A1E4AA7EE875A93429FED1B7AA2
:10073000E5EE275AA5EEA76AA6EE277AE7EE276A26
:1007400066EEA76AD5D9174A934214D803F17F43BE
:1007500007EE103AB7EE006A36EE476A60EEC00A5E
:10076000F6EE005A97EEA57AE7EEA60A37EE607A23
:1007700036EE470A7047B6EE076AB5EE027AEDE745
:10078000B7EE000A704700BF4ED747ADF6740F3181
:100790007CF293B4010DD037ABAA2A3D610BB6BAF7
:1007A0009999993E0000483F10EE103A194923F0FC
:1007B00000428A421BD9B2F1FF4F02D330EE400A09
:1007C000704700B583B0684600F070F800F0030091
:1007D0000128DDED010A9DED000A13D002280BD09F
:1007E00098B9012000F01AF803B05DF804FBDFEDC2
:1007F0000A0A002000F012B8012000F00FF8B1EE54
:10080000400AF1E7FFF74EFFEEE7FFF74BFFB1EECF
:10081000400AE9E7D80F493F0000000010EE103A07
:1008200023F00043B3F1485F04D2FDEEC07A17EE27
:10083000903A5BB360EE007A9FED157ADFED155AC2
:100840009FED156ADFED156AE7EE875A9FED147A82
:10085000A5EEA76A20EE275AE6EE276AA6EEA77A4B
:1008600030B9DFED106AE7EE876AA6EE850A7047B9
:1008700027EE457AF6EE006AA0EEA67ADFED0A6A68
:10088000D7EE270AE5EE260A30EE600A704700BF71
:10089000D3C92E2F342FD7B21BEF3836010D50B9E4
:1008A0008988083CABAA2ABEABAA2A3E70B510EED6
:1008B000103A884A23F00044944286B0054671D924
:1008C000854A94421E4624D823F00042002BDFEDD7
:1008D000837A834922F00F02B0EE407A40F3E08041
:1008E0008A4270EE677A09BF9FED7E7ADFED7E6AFD
:1008F000DFED7E6A77EEC77A37EEE67A77EEC77A73
:1009000080ED007A77EEE67AC0ED017A012006B03C
:1009100070BD774A944252D9B4F1FF4F48D2E215E4
:10092000863AA4EBC25307EE903ABDEEE77ADFEDCC
:10093000716AB8EEC77A77EEC77A8DED037A67EE03
:10094000A67ABDEEE77AB8EEC77A77EEC77A8DED74
:10095000047A67EEA67AF5EE407AF1EE10FACDED64
:10096000057A40F09880B5EE407AF1EE10FA0CBFAF
:1009700001230223604901910221009103A8294625
:1009800000F0CCF8002EC2DA95ED007AD5ED017AB0
:10099000B1EE477AF1EE677A85ED007AC5ED017A1E
:1009A0004042B4E7002285ED000A42600020AEE735
:1009B00070EE407AC0ED017AC0ED007AF6E700F003
:1009C000A5F89FED4E7A9FED456AF6EE007AE0EECF
:1009D000077A9FED457AFDEEE77A17EE900AF8EE7A
:1009E000E76A1F28A6EEC60A66EE877AB1EE666A47
:1009F00020DC434A411E26F0004352F8212023F018
:100A0000FF03934216D030EE677A30EE470A002E8D
:100A100030EE670A85ED007A85ED010ABFF677AF03
:100A2000B1EE477AB1EE400A85ED007A85ED010A14
:100A300040426CE730EE677AE21517EE103AC3F3E6
:100A4000C753C3EBD453082BDFDD9FED267A9FED10
:100A5000275AF0EE405AE6EE075A70EE657AE6EE57
:100A6000077AD6EE857A35EEE77A17EE103AC3F3B9
:100A7000C753D21A192A10DD9FED227A9FED225A10
:100A8000B0EE650AA6EE070A75EEC07AE6EE077AC2
:100A9000D6EE857AB7E703236CE7B0EE650AB4E7D4
:100AA0008A4270EE277A09BF9FED0E7ADFED0E6A5B
:100AB000DFED0E6A77EE877A37EEA67A77EEC77AA1
:100AC00080ED007A77EEA67AC0ED017A4FF0FF3024
:100AD0001DE700BFD80F493FE3CB1640800FC93F49
:100AE000D00FC93F004435374344353708A3852E1E
:100AF000800F49430000804398A3000884F9223FF7
:100B000018A3000800A3852E32318D2410EE103A70
:100B100023F0004300EE103A704700BF2DE9F04F7C
:100B20002DED048BDBB01C46944603930A46CD4B57
:100B300068991CF1040F53F82160824604F1FF38D4
:100B4000C0F24982BCF1030348BF0CF10403DB107F
:100B5000029301334FEAC30EACEB0E030593029BE5
:100B600016EB0800A3EB080316D401309FEDBE7A04
:100B7000699C18441EA9002BA4BF54F8235007EE0B
:100B8000905A03F10103ACBFF8EEE77AF0EE477A32
:100B90008342E1EC017AEED1002EC0F2B182039BD8
:100BA0001EA901EB830446AD4FEA83094046F718BE
:100BB0000AEB8301B8F1000FDFEDAB7A09DBA34646
:100BC0005346F3EC016A3BED017A8B42E6EE877AFD
:100BD000F7D10130B842E5EC017A04F10404E9D11F
:100BE0000DF1280B0BEB8603CDE9062E043B9FEDA0
:100BF000A09ADFED9E8A059804930AEB090446AF9C
:100C00000BEB86090096CDF820C05AAB03EB8603A8
:100C1000002E13ED140A4FEA860515DD7B195A469E
:100C200060EE097AB0EE407AFDEEE77A73ED016A84
:100C3000F8EEE77ABB42A7EEE87A37EEA60ABDEEF9
:100C4000C77AA2EC017AEBD1019000F085FAF4EEBC
:100C5000007AB0EE408A20EE270A00F0EFFAF2EEBA
:100C6000007AA0EE678A01980028FDEEC89AF8EE97
:100C7000E97A38EE678A6CDD06F1FF3EC0F10803C1
:100C80005BF82E2042FA03FC0CFA03F3D21AC0F1EF
:100C9000070119EE903A4BF82E200A416344002ACE
:100CA00009EE903A00F3F080B5EE408AF1EE10FACA
:100CB00040F09D80009B9E420ADD5D44002355F874
:100CC000041D4D4543EA0103F9D1002B40F0F280A9
:100CD000009B013B5BF82330002B40F0E780049B36
:100CE000012153F8042D0131002AFAD0731C31443C
:100CF0009C46029D039A05EB030E0EF1804E699D02
:100D000032440EF1FF3E07EB83061EAB05EB8E0E61
:100D100003EB8205DEED017AF8EEE77AB8F1000F19
:100D20000EF1040EE5EC017ADFED4F7A09DB2A467D
:100D30005346F3EC016A32ED017AA342E6EE877A7C
:100D4000F7D10CF1010C6145E6EC017AE2DA0E46CE
:100D50005BE740F08F80731E5BF82320D211002ADE
:100D6000A2DD19EE903A002E03F1010309EE903A4C
:100D700040F3D48159464FF0000E51F8043B002B4C
:100D80006AD0C3F5807341F8043C04E00B68C3F1FA
:100D9000FF0341F8043B0EF1010E7645F6DC01231A
:100DA0009E4600280ADD012878D0022806D1711E4F
:100DB0005BF8213003F03F0C4BF821C0022A7FF48E
:100DC00073AFB7EE000A734630EE488A002B3FF44B
:100DD0006BAF0992019000F0BFF938EE408A01989C
:100DE000099AB5EE408AF1EE10FA3FF463AF9246ED
:100DF000DDE9062EDDF820C00196AEEB0C00B0EE6A
:100E0000480A009E009200F0A7F9DFED186AB4EEE0
:100E1000E60AF1EE10FADDE90023F0EE407AC0F2C6
:100E200050819FED137A059920EE077A0831BDEEC7
:100E3000C77A0591B8EEC77A5C1CE7EE667ABDEE1C
:100E4000C77AFDEEE77A17EE901A4BF8231017EEEB
:100E5000103A4BF8243046E00EF1010EB6458CDB1B
:100E60009E469EE7B0A600080000000000008043F8
:100E70000000803BF6EE007AB4EEE78AF1EE10FA5D
:100E800080F2988000220FE70133002E09EE903A9D
:100E90003FF770AF002301289E4686D1711E5BF894
:100EA000213003F07F0C4BF821C087E7731C9C4670
:100EB00019461EE733469246DDE905125C1EA1F194
:100EC00008005BF82410009E059061B903F180438F
:100ED000013B0BEB8303014653F8040D013C083939
:100EE0000028F9D0059105980092B7EE000A00F0AD
:100EF00033F9002C009AB0EE407AC0F20581601CF4
:100F000046AD5FED256A81000BEB800305EB8000A9
:100F100073ED017AF8EEE77A5B4567EE877A27EEA4
:100F2000267A60ED017AF3D10DF1C8080B1F46A8AF
:100F3000C718C646A44600259146002E73DB844A96
:100F4000DFED847A3846002301E0AB4208DCF2ECA6
:100F5000016AB0EC017A01339E42E6EE877AF4DA58
:100F60000CF1FF3CBCF1FF3FEEEC017A05F101050D
:100F7000A7F10407E1D1689B022B4A4656DC002BFF
:100F80002EDC0ED1DFED737A414431ED017A41451B
:100F900077EE877AF9D15346002B40F0AE80C2ED50
:100FA000007A19EE903A03F007005BB0BDEC048BB9
:100FB000BDE8F08F19EE903A002E03F1010309EE1F
:100FC000903AC8BF02223FF7D5AEF7EE007A37EE6F
:100FD000C88A022268E600234FF0080E0293BBE5A0
:100FE0009FED5C7A414471ED017A414537EE277AF5
:100FF000F9D1DDED327A534677EEC77A002B75D101
:1010000082ED007A64B133A90123B1EC017A013396
:101010009C4277EE877AF8DA53460BB1F1EE677AA5
:10102000C2ED017ABDE7DFED4B7A99E7689B032BB0
:10103000B7D1002C7ED008EB840595ED007AA00096
:101040002B46294671ED017AF0EE476A37EE277A92
:10105000414577EEC77A81ED007A77EEA67AC1ED49
:10106000017AEFD1012C65D095ED007A08F10401E9
:1010700073ED017AF0EE476A37EE277A994277EE00
:10108000C77A83ED007A77EEA67AC3ED017AEFD1C5
:10109000031DDFED307A434408F1080833ED017A8F
:1010A000984577EE877AF9D15346DDED326A9DEDAA
:1010B000337A73B9C2ED006A82ED017AC2ED027A29
:1010C0006FE7FDEEC07A1C4617EE901A4BF823101E
:1010D00009E7F1EE666AB1EE477AF1EE677AC2EDA2
:1010E000006A82ED017AC2ED027A5AE7B1EE477AE0
:1010F00082ED007A002C86D190E7F1EE677A4EE718
:10110000039B4FEA83096BE5689B022B0EDC002BE7
:1011100013DC7FF446AFDFED0F7A3CE7022A7FF461
:10112000C3ADF7EE007A37EEC88ABDE5689B032BA6
:101130007FF437AFDFED077AB6E75346DDED327A5D
:1011400013B9002313606BE74FF00043136065E7AA
:10115000BCA600080000000010EE103A33F0004179
:101160001A4627D0B1F1FF4F21D213F0FF4F22D101
:10117000DFED2B7A2B4A60EE277A904217EE903AF9
:1011800033DB4CF2503CC3F3C75160451A46A1F122
:10119000190116DDDFED247ADFED246A002BB0EEB5
:1011A000677AB8BFF0EE667A27EE870A704730EEAE
:1011B000000A704770474CF2503C60454FEAD151ED
:1011C000E8DC0144FE29E5DC002915DC11F1160FED
:1011D00019DB193122F0FF4242EAC15207EE902A90
:1011E0009FED130A27EE800A7047DFED127A07EEB3
:1011F000103A27EE270A704722F0FF4242EAC15315
:1012000000EE103A7047DFED0B7ADFED0B6A002B32
:10121000B0EE677AB8BFF0EE667A27EE870A7047BD
:101220000000004CB03CFFFFCAF24971CAF249F11C
:10123000000000336042A20D6042A28D10EE102A21
:10124000C2F3C7537F3B162B22F0004129DC002B51
:10125000104618DB1A4919410A4221D0DFED197AEC
:1012600070EE277AF5EEC07AF1EE10FA18DD002A5A
:1012700004DA4FF4000242FA03F3184420EA0103AF
:1012800000EE103A7047DFED0F7A70EE277AF5EE38
:10129000C07AF1EE10FA03DD002A08DB9FED0A0A9E
:1012A0007047B1F1FF4FFBD330EE000A7047DFED1E
:1012B000077A0029BFEE000A08BFB0EE670A704740
:1012C000FFFF7F00CAF249710000000000000080AB
:1012D00053B94AB9002908BF00281CBF4FF0FF319D
:1012E0004FF0FF3000F06AB9ADF1080C6DE904CEA3
:1012F00000F006F8DDF804E0DDE9022304B07047F1
:101300002DE9F047089D0E4604460F46002B4AD1B2
:1013100094468C45B2FA82F260D942B1C2F1200300
:10132000974020FA03F30CFA02FC1F4394404FEA63
:101330001C4E1FFA8CF6B7FBFEF1230C0EFB117747
:1013400043EA074301FB06F098420AD91CEB03036A
:1013500001F1FF3780F01581984240F21281023985
:1013600063441B1AA4B2B3FBFEF00EFB103344EA35
:10137000034400FB06F6A6420AD91CEB040400F164
:10138000FF3380F00081A64240F2FD8064440238C1
:1013900040EA0140A41B00211DB1D4400023C5E94F
:1013A0000043BDE8F0878B4205D90DB1C5E90001C6
:1013B00000210846F5E7B3FA83F1002946D1B3428C
:1013C00002D3824200F2F580841A66EB0302012008
:1013D0001746002DE5D0C5E90047E2E7002A40F0B6
:1013E0009380A1EB0C034FEA1C471FFA8CFE0121EE
:1013F000B3FBF7F607FB1630230C43EA00430EFB62
:1014000006F0984208D91CEB030306F1FF3802D21C
:10141000984200F2D08046461B1AA4B2B3FBF7F004
:1014200007FB103344EA03440EFB00FEA64508D92F
:101430001CEB040400F1FF3302D2A64500F2B68093
:101440001846A4EB0E0440EA0640A5E7C1F12007C8
:101450008B4022FA07FC4CEA030C06FA01FE20FA44
:1014600007F426FA07F344EA0E0400FA01F84FEAFB
:101470001C404FEA1449B3FBF0FE1FFA8CF600FB48
:101480001E3349EA03430EFB06F9994502FA01F2BD
:101490000BD91CEB03030EF1FF3A80F085809945D0
:1014A00040F28280AEF1020E6344A3EB0909A4B2BC
:1014B000B9FBF0F300FB139944EA094403FB06F679
:1014C000A64208D91CEB040403F1FF3068D2A642FF
:1014D00066D9023B644443EA0E40A41BA0FB02E62B
:1014E000B4427346B14652D34FD05DB1B8EB03025C
:1014F00064EB090404FA07F722FA01F31F43CC4016
:10150000C5E9007400214CE7C2F1200120FA01F383
:101510000CFA02FC26FA01F1964033434FEA1C47CD
:101520001FFA8CFEB1FBF7F007FB1016190C41EA0D
:10153000064100FB0EF68E4204FA02F408D91CEBB9
:10154000010100F1FF382DD28E422BD902386144BF
:10155000891B9BB2B1FBF7F607FB161143EA014367
:1015600006FB0EF1994208D91CEB030306F1FF3884
:1015700014D2994212D9023E63445B1A46EA0041F2
:1015800036E73946EDE6184602E7F045ADD2BEEB48
:10159000020366EB0C060138B146A6E74646ECE7C7
:1015A000034698E74046D3E7D6467EE764440238D0
:1015B00047E708460DE7023E63442DE7704700BF4A
:1015C00008B500F011FB72B6FEE7000000B595B05B
:1015D0003022002108A8FEF74FFE00230393049356
:1015E0000593069307930193204A116C41F08051B3
:1015F0001164126C02F080520192019A02931C4B0A
:101600001A6842F440421A601B6803F44043029394
:10161000029B092308934FF48033099301230D9310
:1016200002230E934FF480020F920C22109260223C
:10163000119212930423139308A803F0F1FF88B9C1
:101640000F23039302230493002305934FF4805246
:1016500006920793032103A804F032FA20B915B0CB
:101660005DF804FBFFF7ACFFFFF7AAFF003802406C
:101670000070004008B504F081FDFFF7A7FF00F0FF
:1016800025F800F08BF800F0D9F800F07BF904F0B1
:10169000BFFD04F031FE08F091FA0A4803F0AEFAFB
:1016A00000F0C6FA02F0FEFB00F09AFB064B83F84E
:1016B0003C0004F021FE07F065FD05F0B5FF07F0E2
:1016C00073FDFEE7F001002014030020F0B589B09F
:1016D00000240394049405940694079400942C4BDE
:1016E0001A6B42F080021A631A6B02F080020092B9
:1016F000009A01941A6B42F001021A631A6B02F00D
:1017000001020192019A02941A6B42F002021A63DA
:101710001B6B03F002030293029B1E4F22462621FD
:10172000384604F016FC1C4D01220221284604F024
:1017300010FC22464FF47041284604F00AFC0126B2
:1017400003964FF4881304930223059303A93846A4
:1017500004F08CFA2623039304960594069403A9B7
:10176000384604F083FA4FF202030393049605947B
:10177000069403A9284604F079FA2246052106209A
:1017800004F0AEFC062004F0BBFC09B0F0BD00BFC5
:1017900000380240000002400004024000B58BB057
:1017A00000230693079308930993049305930093EA
:1017B0000193029303931F481F4A02606322426011
:1017C00083604FF6FF72C2600361836103F06CFBBC
:1017D00008BB4FF48053069306A9164803F02DFD6D
:1017E000E0B9144803F0B8FBD8B90023049305937B
:1017F00004A9104803F0D4FEB0B9002200920123DE
:1018000001930292039269460A4803F0A3FC70B95F
:101810000BB05DF804FBFFF7D3FEDAE7FFF7D0FE6D
:10182000DFE7FFF7CDFEE0E7FFF7CAFEE5E7FFF7EA
:10183000C7FEEDE7800200200004004008B509481B
:10184000094B036063234360002383604FF6FF72FC
:10185000C2600361836103F027FB00B908BDFFF795
:10186000AFFEFBE7F00100200048014010B58AB050
:101870000023059306930793089309930368264A68
:10188000934207D0254A93422CD0254A934236D022
:101890000AB010BD00240194224B1A6C42F00202DF
:1018A0001A641A6C02F002020192019A02941A6BF5
:1018B00042F001021A631B6B03F001030293029BC7
:1018C0004023059302230693099305A9164804F0C3
:1018D000CDF9224605211D2004F002FC1D2004F054
:1018E0000FFCD5E7002303930E4B1A6C42F0040261
:1018F0001A641B6C03F004030393039BC8E70023E3
:101900000493084B5A6C42F480225A645B6C03F4D3
:1019100080230493049BBBE70004004000080040C0
:1019200000480140003802400000024000B587B086
:1019300000230193029303930493059302680E4BD3
:101940009A4202D007B05DF804FB002300930B4BD2
:101950001A6B42F002021A631B6B03F0020300933E
:10196000009BC023019302230293059301A904481D
:1019700004F07CF9E6E700BF0008004000380240B0
:101980000004024000B58FB000230A930B930C9320
:101990000D93089309930193029303930493059382
:1019A000069307932648274A0260632242608360B9
:1019B00040F2E732C26003618023836103F074FA6E
:1019C00058BB4FF480530A930AA91D4803F035FC15
:1019D00030BB1B4803F094FA28BB002308930993FB
:1019E00008A9174803F0DCFD00BB60230193002227
:1019F00002920392059201A9114803F007FBC0B9B6
:101A000004220DEB02010E4803F000FBA0B90C48C4
:101A1000FFF78CFF0FB05DF804FBFFF7D1FDD0E7B7
:101A2000FFF7CEFDD5E7FFF7CBFDD6E7FFF7C8FD03
:101A3000DBE7FFF7C5FDE3E7FFF7C2FDE7E700BF20
:101A40003802002000080040034B1A68002353624C
:101A5000536A8342FCD37047F0010020642800D908
:101A6000642000EB8000400080B27047642800D9F9
:101A7000642040B27047000070B5E0B10446002811
:101A8000CCBF0122002228DDC5B2164E4FF4004122
:101A9000304604F05EFA002CCCBF002201224FF445
:101AA0008041304604F055FA2846FFF7D7FF0E4B29
:101AB0001B68986370BD0B4C00224FF48041204698
:101AC00004F047FA00224FF40041204604F041FAA6
:101AD000054B1B6800229A63ECE7C5B26D42EDB27C
:101AE000D3E700BF000402403802002070B5E0B127
:101AF00004460028CCBF0122002228DDC5B2164EC4
:101B00004FF48051304604F024FA002CCCBF002260
:101B100001224FF40051304604F01BFA2846FFF72B
:101B20009DFF0E4B1B68586370BD0B4C00224FF499
:101B30008051204604F00DFA00224FF40051204657
:101B400004F007FA054B1B6800225A63ECE7C5B2A4
:101B50006D42EDB2D3E700BF00040240380200201E
:101B600010B5FFF783FF444264B22046FFF784FFBD
:101B70002046FFF7BBFF10BD10B504460846FFF72F
:101B800075FFC3B25B4258B2FFF776FF2046FFF7FE
:101B90006DFFFFF7ABFF10BD10B50C46FFF766FFFA
:101BA000FFF76AFF2046FFF761FFC0B2404240B234
:101BB000FFF79CFF10BD10B504460846FFF756FF1F
:101BC000FFF75AFF2046FFF751FFFFF78FFF10BDC9
:101BD00010B50C46FFF74AFFFFF74EFF2046FFF710
:101BE00045FFFFF783FF10BD10B50F4C00224FF4E7
:101BF0008051204604F0ADF900224FF400512046F8
:101C000004F0A7F900224FF48041204604F0A1F926
:101C100000224FF40041204604F09BF9034B1B685F
:101C200000225A639A6310BD00040240380200206B
:101C300010B5064C0021204603F08EFB04212046FF
:101C400003F08AFBFFF7D0FF10BD00BF3802002071
:101C500010B5104C00224FF48051204604F079F961
:101C600000224FF40051204604F073F900224FF493
:101C70008041204604F06DF900224FF400412046D7
:101C800004F067F9044B1B684FF47A725A639A6345
:101C900010BD00BF000402403802002030B587B0FC
:101CA000002401940294039404940594214804F0C0
:101CB0009FFE4FF440730193112302930394049405
:101CC0001D4D01A9284603F0D1FF01224FF40071F8
:101CD000284604F03EF913E0174D00224FF48071BE
:101CE000284604F036F90520FFF7AEFE01224FF436
:101CF0008071284604F02DF90520FFF7A5FE013478
:101D0000082CE9DD0C4C00224FF40071204604F051
:101D100020F90520FFF798FE01224FF400712046BC
:101D200004F017F90520FFF78FFE04F071FA07B0F1
:101D300030BD00BF800300200004024010B584B015
:101D40000A230293019200910123024650210C487C
:101D500004F01AFF044628B90A4B00221A702046E4
:101D600004B010BD074A13780133DBB21370092B9E
:101D7000F5D9FFF793FF034B00221A70EFE700BF7E
:101D800080030020C802002000B587B002468DF80D
:101D900017100A230293012301930DF117010091FB
:101DA0005021034804F03EFE07B05DF804FB00BF7D
:101DB0008003002010B5094C00220221204604F0C7
:101DC000C8F8012004F006FA01220221204604F09E
:101DD000C0F84FF42F7004F0FDF910BD000402406C
:101DE00010B582B000248DF80740FFF7E3FF03E051
:101DF0000A2004F0EFF90134092C0BDC01220DF16B
:101E000007010020FFF79AFF0028F1D19DF8073065
:101E1000A02BEDD19DF80730A02B02D0002002B0FE
:101E200010BD00213D20FFF7AFFF08B10020F6E70D
:101E3000142004F0CFF900210720FFF7A5FF0021AF
:101E40003E20FFF7A1FF08B10020E8E70A2004F0D8
:101E5000C1F900213F20FFF797FF0A2004F0BAF9EB
:101E600000213B20FFF790FF08213D20FFF78CFF6A
:101E700008B10020D3E7142004F0ACF90120CEE72C
:101E800010B582B00446062269461A20FFF756FFB5
:101E900088BB9DF801301B021BB29DF80020134344
:101EA00006EE903A9DF803301B021BB29DF802200B
:101EB000134307EE103A9DF805301B021BB29DF844
:101EC0000420134307EE903AF8EEE66A9FED0B6AA2
:101ED00066EE866AC4ED006AB8EEC77A27EE067A27
:101EE00084ED017AF8EEE77A67EE867AC4ED027A3D
:101EF000012002B010BD0020FBE700BF0000803DC4
:101F000000B583B000238DF8073001220DF10701E1
:101F10003520FFF713FF9DF8070003B05DF804FBC1
:101F2000104BD3ED007A30EE670ADFED0F7AB4EE96
:101F3000E70AF1EE10FA09DDDFED0C7A30EE670A00
:101F40000B4B1B780BB9B1EE400A7047DFED097AF5
:101F5000B4EEE70AF1EE10FAF2D8DFED047A30EED3
:101F6000270AEDE7F8020020000034430000B443E4
:101F70000B030020000034C3B4EEE00AF1EE10FAC7
:101F800005D4B4EEC10AF1EE10FA03DC7047B0EEEE
:101F9000600A7047B0EE410A70470000B4EEE00AF4
:101FA000F1EE10FA09DCF1EE607AF4EEC07AF1EEAF
:101FB00010FA05DC9FED040A704730EE600A7047A6
:101FC00030EE200A704700BF00000000B5EEC00AE6
:101FD000F1EE10FA06DDF3EE0E7AB4EEE70AF1EE5A
:101FE00010FA00D47047B0EE670AFBE710B1502832
:101FF00002D870475020704750207047DFED097AB3
:10200000B4EEE70AF1EE10FA08D9DFED077AB4EE84
:10201000E70AF1EE10FA03DA022070470120704758
:102020000320704700003C420000684230EE200A66
:10203000F3EE007A30EE270A704700228260002318
:10204000C36002618370C370037142618261437037
:102050000123037070470000034B00221A605A608E
:1020600000221A72DA607047D8020020024B187002
:10207000024B1960704700BF100300200C030020C2
:1020800010B5044600231A4A13701A4A1370438885
:102090008288901D83421BDD174B00221A7000239B
:1020A000164A1370164A1370E368164A1360164AEC
:1020B0001360227C154B1A706369154A1360154A28
:1020C0001360FFF7C9FF61690220FFF7CFFF10BD62
:1020D00006339A4203DD084B01221A70DFE700291C
:1020E000DDD0054A137883F001031370D7E700BFF2
:1020F00006030020040300200B0300200A03002035
:1021000008030020F8020020EC020020F402002066
:10211000E8020020FC02002008B500230A4A1370E0
:102120000A4A1370428883889A4207D2084B0122D8
:102130001A7041690520FFF799FF08BD9A42F8D946
:10214000034B00221A70F4E706030020040300206A
:102150000B03002008B50023114A1370114A1370B5
:1021600043888288911D8B4212DD0F4B00221A702A
:1021700000230E4A13700E4A1370C2680D4B1A608A
:10218000027C0D4B1A7041690620FFF76FFF08BDF6
:1021900006339A42ECDD044B01221A70E8E700BFD7
:1021A00006030020040300200B0300200803002086
:1021B00005030020F8020020F402002010B50446B8
:1021C0000023054A1370054A1370FFF70DFD61697E
:1021D0000420FFF74BFF10BD06030020040300207E
:1021E00008B52DED028B1F4B1B7813B31E4B93EDDF
:1021F000008A30EE480ADFED1D7AB4EEE70AF1EE10
:1022000010FA19DDDFED1A7A30EE670ADFED198A70
:1022100080EE280AFEF720FA20EE280A38EE000A9F
:10222000DFED137AB4EEE70AF1EE10FA10DB30EED0
:10223000670ABDEC028B08BDDFED0F7AB4EEE70A4A
:10224000F1EE10FAE2D8DFED0A7A30EE270ADDE788
:10225000B5EEC00AF1EE10FAEBD5DFED057A30EEFF
:10226000270AE6E7C9020020CC0200200000344320
:102270000000B44300003442000034C370B504468B
:102280002E48FFF7DAFE2E4B1B78022B2BD0062BA5
:1022900029D00025EDB2052B30D00026F6B2002D56
:1022A00037D094ED030AFFF79BFF264B83ED000A1E
:1022B000244B1A68244B1A6005B926B11F4B002223
:1022C0001A7001225A700020204B1870204B187091
:1022D000204B1870204B1870E268204B1A6061691F
:1022E000FFF7C4FE70BD1E4A12781AB1227C1AB9DB
:1022F0000025CFE70025CDE70125CBE7237C23B1DF
:10230000184B1B781BB90026C8E70026C6E7012634
:10231000C4E726B10C4B1A680A4B1A60C8E7237C45
:102320003BB194ED030AFFF75BFF064B83ED000A18
:10233000BEE7E268034B1A60BAE700BF5000002016
:1023400010030020F0020020D0020020090300202A
:10235000070300200603002004030020D40200200D
:10236000F4020020C90200202DE9F0412DED048B7C
:102370000446878845883E46AF4228BF2E46B84669
:10238000AF4238BFA84607EE905AF8EE677A07EEDC
:10239000107AB8EE477A77EE877AB3EE000A37EE16
:1023A000800AFFF72BFE03282BD00A231822334480
:1023B0009BB2434534D8424532D8092E30D9237CCC
:1023C000002B00F0BD80D4ED037A644B93ED007ACE
:1023D00077EEC77A9FED627AF4EEC77AF1EE10FAE3
:1023E00012DD9FED607A77EEC77AF0EEE77AB2EE13
:1023F000047AF4EEC77AF1EE10FA00F3A380002617
:10240000A3E010232422D2E79FED577AF4EEC77A97
:10241000F1EE10FAE9D89FED537A77EE877AE4E788
:1024200007EE906AF8EE677A238808EE103AB8EE65
:10243000488A9FED4E7A28EE077AF4EEC77AF1EEDD
:1024400010FA40F28180267C002E43D0D4ED038A1E
:10245000424BD3ED007A78EEE78ADFED417AF4EE75
:10246000E78AF1EE10FA53DDDFED3E7A78EEE78A87
:10247000F0EEE87A9FED3E7AF4EEC77AF1EE10FACC
:1024800001DDF0EE477A9FED3B7A27EE879AB0EEBA
:10249000490AFEF7A9F8DFED357A60EE279AB0EE2B
:1024A000490AFEF781F9DFED347A20EE270A79EE4A
:1024B000809AF5EEC08AF1EE10FA00DD3D4607EE97
:1024C000905AF8EE677A28EE298AF4EEC87AF1EE8F
:1024D00010FA3FD9CEB3D4ED037A204B93ED007AB6
:1024E00077EEC77A9FED1E7AF4EEC77AF1EE10FA16
:1024F0001ADD9FED1C7A77EEC77AF0EEE77AB3EE3D
:10250000097AF4EEC77AF1EE10FA25DC00261CE019
:10251000DFED157AF4EEE78AF1EE10FAA8D8DFEDD8
:10252000117A78EEA78AA3E79FED0F7AF4EEC77AC7
:10253000F1EE10FAE1D89FED0B7A77EE877ADCE7BF
:10254000002602E0012600E001263046BDEC048BA7
:10255000BDE8F0810126F8E70126F6E7F002002049
:10256000000034430000B443000034C3B81E853E6D
:102570000000344234FA8E3C2032773F2DE9F04F90
:102580002DED108B87B00446B54B1B789BB1037CB7
:1025900073B190ED038AB0EE480AFFF721FEB14B0C
:1025A00083ED000AB04B83ED008AAD4B01225A70D7
:1025B000AB4B00221A70237C73B1A94B5B785BB9DB
:1025C00094ED038AB0EE480AFFF70AFEA54B83EDAF
:1025D000000AA54B83ED008A6088FFF707FD08EE2F
:1025E000100AB8EE488AA088FFF700FD07EE900AAF
:1025F000F8EE677A9A4B9B78002B3DD1984B83ED90
:10260000058AC3ED067A01229A70954B93ED059ADF
:10261000D3ED068A39EE68BADFED947AB4EEE79A24
:10262000F1EE10FA4CBF01270027F4EEE78AF1EE35
:1026300010FA4CBF4FF0010A4FF0000AB4EEE79ACF
:10264000F1EE10FA32D5F4EEE78AF1EE10FA37D552
:1026500079EE287A9FED867AF4EEC77AF1EE10FAD9
:1026600031D8F0EE680AB0EE490AFFF7DFFCFFF759
:10267000C5FC834601261BE0794B93ED057A9FED5F
:102680007D6A27EE067ADFED7C6A28EE268A37EE31
:10269000087A83ED057A93ED067A27EE067A67EEDF
:1026A000A67A77EE277AC3ED067AAEE70026B34620
:1026B000A3795BB12388332B4DD84FF0000907E095
:1026C0000026B346F4E70026B346F1E74FF00009D1
:1026D0005FFA89F98EB9DFED657AB4EEE79AF1EE2B
:1026E00010FA0AD5F4EEE78AF1EE10FA05D5B4EE49
:1026F000E89AF1EE10FA31D8B24637B1DFED5F7AE1
:10270000B4EEE79AF1EE10FA2ADCBAF1000F08D025
:10271000DFED5A7AF4EEE78AF1EE10FA01DD4FF0C0
:10272000000A4F4BD3F80C80B8F1000F1AD0636940
:10273000984528D2A3EB080300EE103AB8EE400A01
:102740009FED4F1ADFED4F0ADFED4F7A80EE270A3B
:10275000FFF712FC08E04FF00109B9E73746D4E76C
:102760000027D2E79FED490A86B13D4BDB786BB37A
:10277000B8F1000F2DD03A4BD3ED027A7BEE677A99
:1027800087EE80FA04E09FED410AEDE79FED5AFAEB
:10279000257C6DB3324B5B78002B4ED0B8F1000F27
:1027A0004ED0D4ED037A304B93ED007A77EEC77AB2
:1027B0009FED377AF4EEC77AF1EE10FA0CDD9FED5B
:1027C000357A77EEC77A87EE80DA13E09FED4AFA22
:1027D000DEE79FED49FADBE79FED2F7AF4EEC77A4B
:1027E000F1EE10FAEFD89FED2B7A77EE877AEAE7D1
:1027F0009FED41DA1A4B83ED02BADE70D4F81480F3
:10280000C3F80C8015B1E268174B1A60144B5D7069
:10281000002D77D0D4ED039A124BD3ED007A79EEE8
:10282000E79ADFED1B7AF4EEE79AF1EE10FA0ADD93
:10283000DFED187A79EEE79A66E09FED2FDAD9E7B7
:102840009FED2DDAD6E7DFED147AF4EEE79AF1EE9C
:1028500010FA59D8DFED0F7A79EEA79A54E000BF4D
:1028600050000020F0020020D40200200000A0420E
:1028700000006842B81E853EA4703D3F0000004243
:10288000CDCCCC3D0AD7A33B00007A440AD7A33C69
:10289000000034430000B443000034C30000204271
:1028A000000084426666E63EB81E053E00002842EF
:1028B000000050429A99193F1F85EB3E295C8F3DDD
:1028C000000018420000404200008C420AD7A33E9C
:1028D000AE47E13D34FA8E3C9A99593F6F12833BE3
:1028E0000000304214AE473FA69BC43BEC51383E3B
:1028F0009A9921413333B33E00000000CDCC4C3FC8
:10290000E17A143F5FED049A45B1F0EE000AB0EEB3
:10291000690AFFF743FBB0EE40EA01E01FED0AEA67
:10292000BBF1010F20D0BBF1030F52D0BBF1020F5E
:1029300068D01FED26CAF1EE00BA5FED17FAF0EE8F
:10294000087ACDED057AF2EE007ACDED047ACDED80
:10295000037A1FED23AA5FED1D7ACDED027A5FEDBC
:1029600025CA1FED258A17E01FED34CAF1EE00BA23
:102970005FED25FAF0EE087ACDED057ACDED04BADB
:10298000CDED037A1FED3AAA5FED307ACDED027AF4
:102990005FED3CCA1FED3C8AB9F1000F4DD0002E0F
:1029A00076D05FED317AB4EEE7CAF1EE10FA72D468
:1029B000F2EE00BACDED04BACDED03BA5FED377A91
:1029C000CDED027AF0EE67CA5FED39DA1FED398A94
:1029D00035E01FED4ACAF1EE08BA5FED4BFACDEDD6
:1029E00005BACDED04BAF1EE0C7ACDED037A1FED08
:1029F0004AAA5FED507ACDED027A5FED51CA1FED24
:102A0000518AC9E71FED52CAF1EE00BA5FED53FAE1
:102A1000F0EE087ACDED057AF2EE007ACDED047A8B
:102A2000CDED037A1FED58AA5FED527ACDED027A13
:102A30005FED5ACA1FED5A8AAEE75FED58DA002DF6
:102A40004BD0F0EEE97AB2EE0C7AF4EEC77AF1EE02
:102A500010FA01DDF0EE477A1FED620A27EE800AD8
:102A6000FDF7A2FEF2EE0B7A20EE270A5FED667A02
:102A700020EE270AF0EE007AF4EEE79AF1EE10FA73
:102A80001CDD5FED657A70EE27AACDED017A28E0B6
:102A90005FED6EDAD3E71FED6ECAF2EE00BACDED50
:102AA00004BACDED03BA5FED717ACDED027AF0EEA6
:102AB00067CA5FED73DA1FED738AC0E7F8EE007A3C
:102AC000F4EEE79AF1EE10FA40F1FF805FED78AA9C
:102AD00070EE2A7ACDED017A03E05FED7BAACDEDB1
:102AE00001AA002E00F05D81F0EECBEAF0EE007A54
:102AF000F4EEE7EAF1EE10FA00F2EC805FED837A93
:102B00006BEE277A28EE278A6DEE8FDA38EE2D8A63
:102B1000002D4CD0B9F1000F24D0F1EE007AF4EE84
:102B2000E7EAF1EE10FA1DD8F0EE007AF4EEE7EAEB
:102B3000F1EE10FA40F3DF807EEEE77AB6EE007A2F
:102B400067EE877AB7EE001A5FED950A31EE670AF5
:102B5000FFF712FADDED027A77EEEC7A67EE807A13
:102B60007CEEA7CAF0EE007AF4EEE7EAF1EE10FA96
:102B700015DD7EEEE77AB7EE001A5FEDA10AB1EE41
:102B8000080A87EE800AFFF7F7F95FEDA47A20EED6
:102B9000270AF7EE007A77EEC07A6CEEA7CA5FEDEF
:102BA000A87A6CEEA7CA6CEE8ECA38EE2C8AB9F100
:102BB000000F4AD1002D48D0DDED057AF4EEEE7A13
:102BC000F1EE10FA41DBF0EEE97AB2EE007AF4EEC3
:102BD000C77AF1EE10FA38D8F0EECF7AB3EE027A77
:102BE000F4EEC77AF1EE10FA2FD8F0EECD7AB2EE0D
:102BF000007AF4EEC77AF1EE10FA26D8D4ED037A13
:102C0000C44B93ED007A77EEC77ADFEDC36AF4EE3A
:102C1000E67AF1EE10FA71DDDFEDC06A77EEE67A62
:102C2000DFEDBF6A67EEA67A77EE277AB94BC3ED80
:102C3000007A9FEDBA7AF4EEC77AF1EE10FA69DB0A
:102C400077EEC77AB34BC3ED007A002D6CD0F1EE6E
:102C5000007AF4EEE7EAF1EE10FA65D8B0EECFFABA
:102C6000F3EE027AB4EEE7FAF1EE10FA5CD8F0EE89
:102C7000CD7AB2EE087AF4EEC77AF1EE10FA53D8B4
:102C8000F0EEE97AB3EE097AF4EEC77AF1EE10FAD3
:102C90004ADBA44B1B79FF2B02D00133A14A1371ED
:102CA000A04B1B790B2B40F2B78094ED030AFFF782
:102CB00097FA984B83ED000A9B4B83ED000A4FF087
:102CC0000009984B83F8049033E0DFED98AACDED2E
:102CD00001AA06E7F0EE007A7EEEE77A9FED947A9D
:102CE00077EE877AB5EEC0BAF1EE10FABFF60AAF0A
:102CF000F1EE677A06E7B7EE000A2BE7DFED8D6AA3
:102D0000F4EEE67AF1EE10FA8AD8DFED846A77EE17
:102D1000A67A85E7F5EEC07AF1EE10FA92D59FED2E
:102D20007F7A77EE877A8DE74FF000097D4B83F845
:102D300004906EBBA7B1F2EE067AB4EEE79AF1EE1C
:102D400010FA0DD537EEC97ADFED7B7A67EE277A78
:102D500067EE877AF0EE086A87EEA67A38EE478A41
:102D6000BAF1000F14D0F2EE067AF4EEE78AF1EE33
:102D700010FA0DD537EEE87ADFED6F7A67EE277A35
:102D800067EE877AF0EE086A87EEA67A38EE078A51
:102D9000002F49D1BAF1000F40F0A480DFED72CAD4
:102DA0005BE057B9BAF1000F18D1C5B39FED638A44
:102DB0002EEE088A4FF00309BBE7B3EE008A39EE26
:102DC000488ADFED5F7A28EE278A87B1B5EEC08AA0
:102DD000F1EE10FA10DD9FED648A0DE0B3EE008A8B
:102DE00038EE688ADFED567A28EE278AEDE7B5EEF1
:102DF000C08AF1EE10FA09D45DB1DFED527A6EEEC1
:102E0000277A38EE278A4FF0050992E79FED568A18
:102E1000F2E7DFED557AF4E74FF0000989E74FF06C
:102E200004099FED518A84E7DDED017A77EEC9CA86
:102E3000BAF1000F59D07AEEE8AAF5EEC0CAF1EE69
:102E400010FA55DDF4EEEACAF1EE10FA58DBF0EEB6
:102E5000087A6CEEA77A38EE678A8DB1F1EE000A37
:102E6000B0EE4D0AFFF79AF8B2EE021AFAEE020A35
:102E7000DFED357A20EE270AFFF77EF838EE008A7C
:102E8000B3EE081AFBEE080AB0EE480AFFF774F832
:102E9000244DD5ED040AF1EE047A30EEA71A70EE57
:102EA000E70AFFF769F8B0EE408A85ED040A002EC4
:102EB00077D0A379002B00F0A080238807EE903A0A
:102EC000F8EEE77A9FED217AF4EEC77AF1EE10FA88
:102ED000C0F29680F5EEC0CAF1EE10FA46D99FED29
:102EE0001FAA60E0DFED1ACAA2E7DFED19AAA4E786
:102EF000F5EEC0AAF1EE10FAA4DCDFED1BCAACE7D8
:102F0000F0EE087A6AEEA77A38EE278AF0EE6ACAFF
:102F1000A3E700BFF0020020000034430000B443E8
:102F2000A69BC43B50000020D00200209A9921416A
:102F30003333333F000034C3CDCCAC3FE17A143F90
:102F4000AE47613E4672793E9A99993E00008042B2
:102F500000007AC4000010420000284200008442B1
:102F6000000008420000004200000000B0EECBBAB2
:102F7000237C9BB1F0EEE97A9DED037AB4EECB7A37
:102F8000F1EE10FA3FDB73B19DED047AB4EEE77A0F
:102F9000F1EE10FA07DA1FED0FAA04E05FED0E7AEA
:102FA000EAE71FED12AAF0EEC86AF3EE087A86EEA1
:102FB000A77A5FED187A7AEE677A67EE877A7AEE0B
:102FC000677AA3795BB3238807EE103AB8EE477AA5
:102FD0002A2B1BD93F2B4CD85FED216A37EE667A3E
:102FE000F3EE066A87EE266A5FED236A3AEE667AAA
:102FF00027EE067A37EE267A0AE01FED28AAD2E7F6
:103000001FED2AAACFE71FED2BAACCE71FED2C7AE4
:10301000B4EEE77AF1EE10FA01D5F0EE477A17B97F
:10302000BAF1000F53D0B4EEE89AF1EE10FA01D5E0
:10303000F0EE498AB2EE007AF4EEC78AF1EE10FAA9
:103040001AD9B2EE067AF4EEC78AF1EE10FA3BD541
:10305000B2EE007A78EEC78AB0EE087AC8EE876AD8
:103060001FED407A7AEE478A68EEA68A78EE878A64
:1030700004E0B0EE4A7ACBE75FED468AF4EEE87AF8
:10308000F1EE10FA01DCF0EE678AF5EEC0CAF1EE5F
:1030900010FA1EDDB7EE001A5FED4D0AB6EE000A1B
:1030A0002CEE800AFEF768FFF3EE0E7A7AEE677A6E
:1030B00027EE800A3AEE400AF4EEC08AF1EE10FAEA
:1030C00007DDF0EE408A04E0F0EE4A8AD6E7F0EE43
:1030D000678A237C03B3F0EEE97AB2EE0C7AF4EE61
:1030E000C77AF1EE10FA10DAF4EEE7BAF1EE10FA60
:1030F0007AD577EEEB7A37EE6B7AC7EE876A3AEEDF
:103100004CCA2CEE26CA3AEE4CCAF4EECC8AF1EE4A
:1031100010FA01DDF0EE4C8A354B1B68A8EB030872
:10312000B8F1DB0F06D8F4EEE8FAF1EE10FA01D5AB
:10313000F0EE6F8AB0EE4A1ADFED2E0AB0EE680AA2
:10314000FEF71AFFF0EE408A30EE480ADFED2AAAB9
:103150009FED2AAAB0EE6A1AF0EE4A0A30EE0A0A89
:10316000FEF70AFFB0EE409AB0EE6A1AF0EE4A0A95
:1031700038EE280AFEF700FFF0EE408AB0EE490A6A
:10318000FEF724FFB0EE409AB0EE680AFEF71EFF8D
:10319000F0EE408AB6EE00AA39EE0A9AFDEEC97A40
:1031A000CDED017A9DF90400FEF766FC78EE8A8A7F
:1031B000FDEEE87ACDED027A9DF90800FEF796FC67
:1031C0000F4B83ED018A83F8019083ED04DAC3EDA0
:1031D000039ABDF904201A81BDF908205A8107B06D
:1031E000BDEC108BBDE8F08FB0EE4ACA8DE700BF92
:1031F0000C030020000000420000C8420000000054
:103200001403002010B504460023054A1370054A34
:103210001370FEF71DFD61690120FEF727FF10BD49
:1032200006030020040300202DE9F0412DED028B60
:1032300082B00446037A042B07D9C3792BB14388A3
:103240004F2B02D983884F2B14D89D4B1B78002B12
:1032500033D09C4B1B6813B962699A4B1A6063693F
:10326000984A12689B1A2288232A06D8A2792AB182
:10327000012203E0FEF7A2FF1DE10022D2B2E179B4
:1032800089B1A1886088814228BF014607EE901A63
:10329000F8EEE77AB2EE007AF4EEC77AF1EE10FAC1
:1032A0004CBF01210021772B01D802B9A1B1002325
:1032B000834A1370844A82F822302388332B3ED805
:1032C000A579002D6DD0E579002D6CD02046FFF753
:1032D0004BF80546012334E0237C5BB194ED038A6F
:1032E000B0EE480AFEF77CFF784B83ED000A784B7E
:1032F00083ED008A744C012384F822309FED758A97
:103300009FED751AF0EE480A9FED740AFEF734FE41
:10331000F6EE007A30EE270AFDEEC07ACDED017AA6
:103320009DF904502846FEF7A7FB2846FEF7DEFB72
:1033300084ED018ABDF9043023816381BBE0002361
:103340001D46614A82F82050A6791EB122881B2AA8
:1033500000D855B3002B7DD0E379002B7AD0002D17
:1033600078D1678807EE907AF8EE677AB4F804802F
:1033700007EE108AB8EE477A77EE877AB3EE000A46
:1033800037EE800AFEF73AFE032812D04FF0180CF1
:1033900016220A23974211D3B8F1090F16D800213B
:1033A0000DE02B46CDE70123CBE72046FFF72AFFB0
:1033B00081E04FF0240C22221023EBE70021C9B258
:1033C000904505D3092F11D8002202E00121F6E72C
:1033D0000022D2B267450BD308EB030080B28742CC
:1033E00012D3B8F1090F11D8002002E00122F0E752
:1033F0000020C0B2E0450BD33B449BB298451DD39F
:10340000092F1DD8002304E00020F2E70120F0E797
:103410000023DBB2914215D0314B1B78FF2B02D039
:1034200001332F4A13702E4B1B78012B15D92C4BCF
:1034300000221A702046FEF78DFE3CE00023E8E7EC
:103440000123E6E70028E7D1002BE5D1244B002239
:103450001A7002E0224B00221A702388232B16D800
:10346000AEB11DB11F4B00221A7013E01D4B1B782B
:10347000FF2B0FD00133DBB21A4A1370022B09D98C
:10348000114A82F821302046FFF7BCFE13E0154BAD
:1034900000221A70134B1A780B4B83F82120E37922
:1034A00013B3A3886288934228BF1346082B25D9FB
:1034B0002046FFF763F802B0BDEC028BBDE8F08157
:1034C0006C0000200003002014030020F002002004
:1034D000D4020020000000000000C842000030427A
:1034E0000603002007030020A379002BE3D02388E4
:1034F0001B2BE0D82046FFF785FEDCE72046FEF7D1
:103500000BFED8E708B5837953B943690B4A1268B3
:103510009B1A40F2DC5293420BD8FEF765FB08BDC4
:1035200003881B2B02D8FFF76DFEF8E7FEF7A6FE17
:10353000F5E70021FEF7A4FDF1E700BF0C03002032
:1035400010B504460023094A1370094A137020205D
:10355000FEF706FB074B1B78FF2B02D00133054A11
:10356000137061690320FEF781FD10BD0603002082
:1035700004030020090300204369124A12689B1AC1
:10358000772B00D8704710B50446FEF72DFBE37982
:103590009BB123880B2B08D86388072B05D8A388F9
:1035A000072B02D8084B1B7843B1074B1978003919
:1035B00018BF01212046FEF763FD10BD2046FFF72E
:1035C000BFFFFAE70C0300200903002008B5436998
:1035D000054A12689B1ADB2B03D82020FEF7C0FA9D
:1035E00008BDFFF70FFEFBE70C03002070B52DEDC3
:1035F000048B82B00646F0EE408A5A4BDB68A3B1DA
:103600004269934227D2D31A00EE103AB8EE400A2C
:103610009FED551ADFED550ADFED557A80EE270A4A
:10362000FEF7AAFCB0EE409A01E09FED529A9FEDA2
:10363000528A38EE688AB5EEC08AF1EE10FA0DD4DF
:10364000DFED4E7AB4EEE78AF1EE10FA08D4454B7E
:1036500000221A6015E09FED479AE8E79FED488A3F
:10366000404C94ED000A69EE087A30EE270A84EDAA
:10367000000A9FED441ADFED440AFEF77DFC84ED5D
:10368000000A384B1B7A002B5CD0364BD3ED017A05
:1036900078EEE77A87EE897ADFED3C7A68EE277A72
:1036A000304BD3ED006A9FED3A6A66EE866A77EE9C
:1036B000A67ADFED386A27EE267A37EEC70AF2EEF1
:1036C0000C7AB4EEE78AF1EE10FA3ED8F3EE060A71
:1036D0009FED311AFEF750FCB6EE007A70EE077AD5
:1036E000FCEEE77ACDED017A9DF80450DFED2B7A00
:1036F00060EE277A77EE877AFCEEE77ACDED017AF5
:103700009DF80440142C00D91424254B1B78FBB9D8
:1037100021462846FEF730FA124BC3ED018A0122FA
:103720001A727269DA601E4B1B78B3B9624212B228
:103730001C490A819BB92CB21A4B5C8102B0BDECCA
:10374000048B70BD9FED0E7AA6E7F3EE0C0ABFE77F
:1037500021462846FEF720FADEE72AB2E8E764426F
:1037600024B2E9E7D8020020CDCCCC3D0AD7A33B58
:1037700000007A440AD7A33C0000B0420000344263
:103780000000000000000243000002C352B81E3FC8
:10379000BC74933C295C0F3E000028428FC2F53E6A
:1037A0000B03002014030020F8B52DED028B044616
:1037B000C37963B103880B2B09D84388072B06D83C
:1037C0008388072B03D8914B1B78002B4AD0257C8C
:1037D000002D00F082808E4B1B78002B45D094ED9D
:1037E000030AFEF79DFBB0EE408A8A4B83ED050A83
:1037F0006269894B1B68D31A632B06D9FBEE047AE6
:10380000B4EEE70AF1EE10FA3DD4844B1B68D31AEC
:10381000B3F5C87FC0F0B18094ED037A804BD3ED4F
:10382000007A77EE677ADFED7F6AF4EEE67AF1EE02
:1038300010FA42DDDFED7C6A77EEE67AF0EEE77AA9
:10384000F2EE006AF4EEE67AF1EE10FA03D56F4B71
:103850001B78002B3DD0724B83ED007A6F4B1A60C2
:1038600001253CE0FFF76CFE51E1E3686F4A13600D
:103870006B4A13606269694B1A60654B01221A70CA
:10388000FEF7EAFBABE76A490B7883F001030B70A4
:1038900068490B7801330B70674B00211970E3689E
:1038A00062490B605E490B605C4B1A605A4B1A60B0
:1038B000624B1A60FEF7D0FB29E1DFED616AF4EE9E
:1038C000E67AF1EE10FAB9D8DFED576A77EEA67A0C
:1038D000B4E72046FFF734FE19E19FED5A8A62698A
:1038E0004D4B1B68D31AB3F5C86F17D9474B1B78DC
:1038F000002B44D04E490B7883F001030B70464BEC
:103900001A604E4B1A604C4B00221A70E268474B0B
:103910001A60227C3E4B1A70FEF79EFBE379A3B13E
:1039200062693D4B1B68D31A632B0ED9414B1B7840
:103930005BB93F49087830BB618830BBA68807294E
:1039400003D8063189B2B14221D3237C002B3CD06D
:10395000D4ED037A3C4B93ED007A77EEC77A9FED76
:10396000317AF4EEC77AF1EE10FA22DD9FED2E7A6D
:1039700077EEC77AF0EEE77A29E00125AFE7204637
:10398000FFF7DEFDC3E0A188D7E76688D7E780F0C0
:10399000010027490870013326490B701E4B1A603D
:1039A000E268224B1A60227C194B1A70FEF754FB16
:1039B000CBE79FED237AF4EEC77AF1EE10FAD9D86F
:1039C0009FED197A77EE877AD4E7DFED1E7A114BF7
:1039D000C3ED077A237C43B19FED1C7AF4EEC77ADE
:1039E000F1EE10FA0FDA002200E00022094B9A767D
:1039F000267C6EB39FED157AF4EEC77AF1EE10FADD
:103A000051D5012325E00122F0E700BF0903002082
:103A1000F4020020140300200C030020E802002020
:103A2000EC020020000034430000B443F802002000
:103A30000B0300200A03002008030020FC020020E2
:103A4000000034C300000000D00200200000E64265
:103A50000123DFB255B94EB13A4B1B7833B194ED27
:103A6000030AFEF75DFAB0EE408A012523882B2B6E
:103A70001BD9A279CAB1344A1278FF2A02D0013286
:103A800031490A70304A1278022A13D997B136B1F7
:103A9000DFED2E7AB4EEE78AF1EE10FA0ADB20466B
:103AA000FEF7ECFB33E00023D3E72B2B02D8264AAA
:103AB0000021117076B1234A12785AB1A2794AB125
:103AC00047B1DFED237AB4EEE78AF1EE10FA01DBBD
:103AD000232B1FD856B11B4B1B783BB137B1DFED01
:103AE0001D7AB4EEE78AF1EE10FA17DA63691A4A22
:103AF00012689B1A40F28922934200D997B9ADB956
:103B0000164B1B78C3B914212A20FEF735F8BDECFB
:103B1000028BF8BD2046FEF7B1FBF8E72046FEF722
:103B2000ADFBF4E72046FEF7A9FBF0E7B0EE480A4C
:103B30002046FFF75BFDEAE714212A20FEF72CF868
:103B4000E5E700BFF4020020080300200000344233
:103B50000000B0420000C042FC0200200B03002025
:103B600008B5837913B103881B2B16D9C379BBB170
:103B700083884288934228BF1346092B13D9174BD9
:103B80001B78FF2B02D00133144A1370134B1B78A0
:103B9000022B0BD9FEF772FB16E0FFF733FB13E0A5
:103BA000FEF722F810E00D4B00221A7043690C4A10
:103BB00012689B1AB3F5B47F07D80A4B1B783BB940
:103BC0000C212820FDF7F7FF08BDFFF71BFBFBE7E3
:103BD0000C212820FDF7FCFFF6E700BF04030020BE
:103BE0000C0300200B030020F0B52DED028B83B0F9
:103BF0000446057C45B19B4B1B782BB9C2689A4B98
:103C00001A60984B01221A7026880F2E01D8A379CA
:103C10002BBBE37933B1A28861888A4228BF0A4668
:103C2000082A20D93BB10B2E05D86388072B02D870
:103C3000A388072B1BD967698C4B1B68FF1A40F2BE
:103C400052339F4217D8D5B1864B1B78002B40D0FA
:103C500094ED030AFEF764F9B0EE408A11E02046C5
:103C6000FFF7D0FAF4E02046FEF756FAF0E02046DF
:103C7000FFF7C8FAECE02046FFF7C4FAE8E09FED52
:103C80007C8A5DB1774B1B7843B1632F06D9FBEE7D
:103C9000047AB4EEE78AF1EE10FA1DD46DB1714BDF
:103CA0001B7853B1A37943B1DFED727AB4EEE78AA2
:103CB000F1EE10FA01DB232E12D8A779BFB1332E13
:103CC00012D96D4B1B78FF2B11D001336A4A137048
:103CD0000DE09FED678AD4E72046FFF793FAB7E03F
:103CE0002046FEF7CBFAB3E0634B00221A7085B38F
:103CF0005C4B1B786BB3604B1B78022B29D9DFED33
:103D00005F7AB4EEE78AF1EE10FA22DBDFED5C7A3F
:103D1000B4EEE78AF1EE10FA1BD8D4ED038AB0EEC8
:103D2000680AFEF75DFA38EEC00ADFED567AB4EEA7
:103D3000E70AF1EE10FA29DDDFED537A30EE670A7B
:103D4000B0EEC00AF2EE047AB4EEE70AF1EE10FA31
:103D500028D92B2E2AD94FB34C4B1B78FF2B02D0DE
:103D600001334A4A1370494B1B78022B23D94DB1BA
:103D70003C4B1B7833B1DFED467AB4EEE78AF1EEC7
:103D800010FA18DB2046FEF779FA61E0DFED417AA0
:103D9000B4EEE70AF1EE10FAD2D8DFED3B7A30EE5E
:103DA000270ACDE72046FEF769FA51E02B2E02D80C
:103DB000364B00221A70002D43D02A4B1B78002B63
:103DC0004AD0DFED2C7A77EEC87AF5EEC07AF1EEC4
:103DD00010FA09D49FED307AF4EEC77AF1EE10FABA
:103DE00004D9152132202EE0DFED217ADFED2A6A99
:103DF00087EEA67AF7EE007A77EEC77AF2EE0C6AD3
:103E000067EEA66A9FED257A37EE667AF6EE006ACF
:103E100037EE267ABCEEC77A8DED017A9DF8040064
:103E2000B1EE047A67EE877AB3EE057A77EE677AB9
:103E300077EEA67AFCEEE77ACDED017A9DF80410D4
:103E400001E015213220164B1B7843B9FDF7B3FE74
:103E500003B0BDEC028BF0BD15213220F3E7FDF776
:103E6000B7FEF5E7F4020020F80200200C03002062
:103E7000000000000000B0420503002000000C42DA
:103E800000008242000034430000B44308030020D5
:103E90000000A042000034C3000008420000484275
:103EA0000B03002010B50024134B1C70134B1C6037
:103EB000134B1C70134B1C70134B1C70134B1C705A
:103EC000134B1C70134B1C70134B1C70134B1C704A
:103ED0001348FEF7B2F8FEF7BFF8124B01221A7032
:103EE000114B1C60114B1C60114B1C70114B0022BC
:103EF0001A60114B1C7010BD100300200C03002031
:103F00000B0300200A0300200903002008030020FF
:103F100007030020060300200503002004030020FF
:103F2000500000206C00002000030020FC02002054
:103F3000F4020020D4020020C902002008B51E4B64
:103F40001B784BB9037C3BB1C3681C4A13601C4A05
:103F50001360194B01221A701A4B1B78062B24D8B8
:103F6000DFE803F0041114171A1D2000FFF75CF9B5
:103F7000144B1A78144B1A70144A12781A76144A91
:103F800012785A7608BDFFF7F7FAF1E7FFF70CFC55
:103F9000EEE7FFF71BFBEBE7FFF7B4FAE8E7FFF705
:103FA000DFFDE5E7FFF720FEE2E7FDF71DFE054B2D
:103FB00000221A70DCE700BFC9020020CC020020FA
:103FC000D002002010030020140300200B03002067
:103FD0000903002002682E4B9A4200D07047037FED
:103FE000012BFBD110B52B4B1B782BB1294B1B7828
:103FF000DBB2012B15D010BD274C0021204600F06C
:1040000035FE80B2254B1880224B01221A7023689E
:104010001A6A22F00A021A621A6A42F002021A624C
:10402000E9E700211C4800F021FE80B21C4B1880FB
:104030001B889BB2194A128892B29B1A9BB2194AEA
:104040001380128892B2184BA3FB02135B09392A22
:104050000DD9502B28BF5023144A1380144B012232
:104060001A70144B186810B1114605F01CF9094B71
:1040700000221A70084B1B681A6A22F00A021A62A0
:104080001A6A1A62DA6822F00202DA60B3E700BF45
:104090000004004074030020800200207A03002006
:1040A000780300207603002009CB3D8D72030020A9
:1040B000700300206C03002008B5034B186000213A
:1040C000024801F0C1F908BD6C0300208002002005
:1040D0002DE9F04105460C46254B50221A80254B10
:1040E00000221A704021244801F02CFF01283AD008
:1040F000224F3B68DA6822F00202DA600026204A8A
:1041000016701A6A22F00A021A621A6A1A621D4AA4
:104110001A61012005F000F9DFF85C8001222021FE
:10412000404601F016FF0A20FDF78EFC32462021A2
:10413000404601F00EFF3A68D36843F00203D360B3
:104140002A463146012005F012F905F0E3FB094B40
:104150001D78EDB2064B1E88B6B205F0FDFB268039
:104160002846BDE8F081502323800025F8E700BFF2
:104170007203002070030020000002408002002033
:1041800074030020FDFDFFFF10B588B0102900D991
:104190001021002308E030F813C008AA02EB430204
:1041A00022F820CC0133DBB29942F4D84FF0010E53
:1041B0001AE05A1C08AC04EB420222F8200C013B26
:1041C0005BB2002B06DB08AA02EB430232F8200C9C
:1041D0006045EED8013308AA02EB430323F820CC54
:1041E0000EF1010E5FFA8EFE714508D908AB03EBA4
:1041F0004E0333F820CC0EF1FF335BB2E1E701F060
:10420000FE0320336B4433F8200C08B010BD0000CF
:10421000084B01FB03F303F5FA73074AA2FB0313F0
:104220009B0903FB00F000F5FA70A2FB0020800957
:10423000704700BF002F3A00D34D6210084B03FBBC
:1042400001F101F5FA71074BA3FB01318B09C90993
:104250004FF47A7202FB0010B0FBF3F0704700BF1E
:10426000002F3A00D34D6210421E58B1002302E0E5
:10427000520801339BB2FF2AFAD8180280B2D2B298
:104280001043704700207047C3B2000A03FA00F0E1
:10429000013080B2704710B584B00A2402940193B3
:1042A000009201230A460179006802F06DFCB0FA21
:1042B00080F0400904B010BD08B50123FFF7EBFF03
:1042C00008BD10B582B01446022301AAFFF7E3FF30
:1042D00038B19DF804209DF8053043EA022323807D
:1042E000012002B010BD10B584B00A2402940193DD
:1042F000009201230A460179006802F093FBB0FAAC
:1043000080F0400904B010BD00B583B0130A8DF8E9
:1043100004308DF80520022301AAFFF7E4FF03B063
:104320005DF804FB00B583B08DF8072001230DF183
:104330000702FFF7D8FF03B05DF804FB2DE9F04159
:1043400082B005460F46164601228021FFF7EAFF9C
:1043500000F001040122FF212846FFF7E3FF04409B
:10436000002211462846FFF7DDFF04400622FF2108
:104370002846FFF7D7FF04400DF1070283212846A6
:10438000FFF79AFF04409DF8072042F004028321C2
:104390002846FFF7C7FF04400722FF212846FFF702
:1043A000C1FF0440012281212846FFF7BBFF0440E2
:1043B000012280212846FFF7B5FF04406B2294219B
:1043C0002846FFF7AFFF0440002283212846FFF76D
:1043D000A9FF044003D1204602B0BDE8F08101F0FE
:1043E000F3FE80460DF1070283212846FFF764FFA4
:1043F000002856D001F0E8FEA0EB0800B0F5FA7FE7
:1044000051D89DF80730002BECD00122832128469B
:10441000FFF788FF0440E4B20DF10702922128461D
:10442000FFF74AFF04409DF8073003F07F023A701F
:10443000DB093370002281212846FFF773FF044017
:104440000622FF212846FFF76DFF04400DF1070209
:1044500083212846FFF730FF04409DF8072002F033
:10446000FB0283212846FFF75DFF04EA00060122D4
:10447000FF212846FFF756FF06400122002128466B
:10448000FFF750FF06400022FF212846FFF74AFFB2
:104490000640002280212846FFF744FF06EA000478
:1044A00099E7044697E7002495E730B583B00446C2
:1044B00041F001020021FFF735FF034610B918460D
:1044C00003B030BD01F080FE05460DF10702132157
:1044D0002046FFF7F1FE03460028F0D001F074FEFD
:1044E000431BB3F5FA7F13D89DF8073013F0070F7D
:1044F000EBD001220B212046FFF714FF03460028D2
:10450000DDD0002211462046FFF70CFF0346D6E718
:104510000023D4E7F0B585B005460DF10F02C021A8
:10452000FFF7CAFE044620B19DF80F30EE2B03D0F2
:104530000024204605B0F0BD0DF10F028921284668
:10454000FFF7BAFE00F001049DF80F2042F00102CF
:1045500089212846FFF7E6FE0440002288212846EC
:10456000FFF7E0FE0440012280212846FFF7DAFE33
:1045700004400122FF212846FFF7D4FE0440002218
:1045800011462846FFF7CEFE04406A1D91212846B9
:10459000FFF792FE0440012200212846FFF7C2FEE9
:1045A00004400022FF212846FFF7BCFE0440002201
:1045B00080212846FFF7B6FE04400DF10F0260216E
:1045C0002846FFF779FE04409DF80F2042F01202C2
:1045D00060212846FFF7A6FE0440202244212846F9
:1045E000FFF792FE0440FF2201212846FFF79AFEC2
:1045F00004409ED00DF10D020DF10E012846FFF78B
:104600009DFE08B9044694E7062301AAB021284676
:10461000FFF741FE08B904468BE70122FF21284637
:10462000FFF780FE04EA000600224F212846FFF72C
:1046300079FE06402C224E212846FFF773FE0640E5
:104640000022FF212846FFF76DFE0640B422B62166
:104650002846FFF767FE06409DF80D7007B10C274E
:1046600000239C460EE004AA02EBD30414F80C2CA1
:1046700003F007000121814022EA010204F80C2C1A
:104680000133DBB22F2B15D8BB42ECD39DF80E20A3
:104690006245E8D004AA02EBD30212F80C2C03F016
:1046A00007010A4112F0010FEAD00CF1010C5FFA88
:1046B0008CFCE5E7062301AAB0212846FFF713FE8C
:1046C00016EA000753D000264F2E0FD8294B03EBD4
:1046D0004602527813F816102846FFF723FE0446C8
:1046E00000283FF426AF0136B6B2EDE704220A21D6
:1046F0002846FFF717FE07EA00040DF10F02842198
:104700002846FFF7D9FD04409DF80F2002F0EF0284
:1047100084212846FFF706FE044001220B2128468B
:10472000FFF700FE0440012211462846FFF7FAFD7C
:10473000044201D10024FCE640212846FFF7B5FEE3
:104740000028F7D0022201212846FFF7EBFD08B927
:104750000024EEE600212846FFF7A7FE0028F7D048
:10476000E82201212846FFF7DDFD0446E1E63C464C
:10477000DFE600BFE8A600082DE9F04782B0064654
:104780000D460DF107020121FFF796FD034628B102
:104790009DF80740C4F38017E30903D1184602B01F
:1047A000BDE8F0870DF1060250213046FFF784FD89
:1047B00003460028F2D09DF806100131C9B2490025
:1047C0005FFA81F80DF1060246213046FFF774FDCD
:1047D00003460028E2D09DF8060041460130FFF76D
:1047E00017FD814601AA51213046FFF76AFD0346B5
:1047F0000028D3D0BDF80400FFF746FD82464146AD
:10480000FFF706FD80460DF1060270213046FFF7E6
:1048100053FD03460028C1D09DF806100131C9B2EE
:104820004900C9B214F0100F02D009F6363001E089
:1048300040F6E80014F0080F19D009F2B22900EB95
:10484000490017B1404400F5257000F22620A84227
:1048500014D2281AFFF7F2FC07B15044FFF704FD09
:10486000024671213046FFF74FFD034696E714F0EC
:10487000040FE6D0484400F52570E2E700238DE7F9
:1048800038B505460C464A088A21FFF74BFD08B1AA
:104890002C71012038BD38B5054601228021FFF773
:1048A00041FD00F001040122FF212846FFF73AFDF7
:1048B0000440002211462846FFF734FD04406A797F
:1048C00091212846FFF72EFD0440012200212846B1
:1048D000FFF728FD04400022FF212846FFF722FDB4
:1048E0000440002280212846FFF71CFD04400222DC
:1048F00000212846FFF716FD204038BD30B583B0B3
:1049000004460D460DF107021321FFF7D5FCD0B187
:104910009DF8073013F0070F01D1002015E001AA20
:104920001E212046FFF7CDFC10B94FF0FF300CE000
:1049300001220B212046FFF7F5FC40B1BDF8043001
:104940002B80012001E04FF0FF3003B030BD4FF06D
:10495000FF30FAE708B5FDF747F9FEE708B5FDF7C0
:1049600043F9FEE708B5FDF73FF9FEE708B5FDF7A7
:104970003BF9FEE708B5FDF737F9FEE7704708B5E4
:1049800001F016FC04F00AF8012800D108BD05F07A
:1049900031F8FBE708B5012001F0E2FA08BD00009C
:1049A00008B5024800F07FF908BD00BF8002002072
:1049B00008B5024805F0FCFA08BD00BFDC4F002036
:1049C00000B583B0002200920D4B596C41F4804138
:1049D0005964596C01F48041009100990192196C5D
:1049E00041F0805119641B6C03F080530193019BCB
:1049F0000F216FF0010001F073FB03B05DF804FBC1
:104A00000038024030B4026A036A23F001030362F3
:104A10004568836923F073030C681C4322F002028B
:104A20008B6813430B4A904206D0456084614A6804
:104A30004263036230BC704723F00803CA681A431C
:104A400022F0040325F440754A692A438D69154311
:104A5000EBE700BF0000014030B4036A026A22F4B1
:104A6000807202624468C26922F073020D681543C5
:104A700023F400738A6843EA02230D4A904206D069
:104A80004460C5614A68C263036230BC704723F466
:104A90000063CA6843EA022323F4806324F4405489
:104AA0004A6944EA02148A6944EA0214E8E700BF4A
:104AB0000000014030B4036A026A22F480520262AC
:104AC0004468C26922F4E6420D6842EA052223F4F2
:104AD00000538D6843EA0533074DA84206D0446071
:104AE000C2614A680264036230BC704724F48044A7
:104AF0004D6944EA8514F2E70000014010B4036AEE
:104B0000046A24F001040462846924F0F00C4CEA85
:104B1000021223F00A030B43826103625DF8044B27
:104B2000704730B4056A046A24F010040462846992
:104B300024F4407C4CEA022C2CF4704C1B039BB2F6
:104B400043EA0C0325F0A005090101F0A001294367
:104B50008361016230BC704710B4036A046A24F0B8
:104B600010040462846924F4704C4CEA023223F08D
:104B7000A00343EA0113826103625DF8044B7047AE
:104B800030B4056A046A24F480740462C46924F0B1
:104B9000030C4CEA020C2CF0F00C1B01DBB243EAD4
:104BA0000C0325F42065090201F420612943C36147
:104BB000016230BC704730B4056A046A24F4805442
:104BC0000462C46924F4407C4CEA022C2CF4704C3E
:104BD0001B039BB243EA0C0325F42045090301F4AF
:104BE00020412943C361016230BC7047836823F0D0
:104BF00070030B4343F007038360704790F83D3028
:104C0000DBB2012B2AD1022380F83D300368154A1C
:104C1000934218D0B3F1804F15D0A2F57C42934255
:104C200011D002F5806293420DD002F5806293426A
:104C300009D002F59A32934205D01A6842F0010277
:104C40001A60002070479A6802F00702062A07D00F
:104C50001A6842F001021A60002070470120704774
:104C60000020704700000140704770470C2914D89D
:104C7000DFE801F0071313130A1313130D131313B3
:104C800010000368586B70470368986B704703689F
:104C9000D86B70470368186C7047002070477047E6
:104CA00070477047704770B504460368DE681D6939
:104CB00015F0020F10D016F0020F0DD06FF00202A7
:104CC0001A610123037703689B6913F0030F5ED019
:104CD000FFF780F90023237715F0040F12D016F0A8
:104CE000040F0FD023686FF004021A6102232377A8
:104CF00023689B6913F4407F4FD02046FFF76AF981
:104D00000023237715F0080F12D016F0080F0FD0EC
:104D100023686FF008021A61042323772368DB6994
:104D200013F0030F40D02046FFF754F900232377F8
:104D300015F0100F12D016F0100F0FD023686FF07F
:104D400010021A61082323772368DB6913F4407F7C
:104D500031D02046FFF73EF90023237715F0010FED
:104D600002D016F0010F2DD115F0800F02D016F0F1
:104D7000800F2FD115F0400F02D016F0400F31D127
:104D800015F0200F02D016F0200F33D170BDFFF7C1
:104D900087FF2046FFF785FF9CE72046FFF780FF4F
:104DA0002046FFF77EFFABE72046FFF779FF20465E
:104DB000FFF777FFBAE72046FFF772FF2046FFF7BD
:104DC00070FFC9E723686FF001021A612046FFF700
:104DD00066FFC9E723686FF080021A61204600F081
:104DE0001EFCC7E723686FF040021A612046FFF7F8
:104DF00059FFC5E723686FF020021A61204600F0D2
:104E00000DFCC3E70368274A90420ED0B0F1804FF3
:104E10000BD0A2F57C42904207D002F5806290420E
:104E200003D002F58062904203D123F070034A68F8
:104E300013431C4A90421AD0B0F1804F17D0A2F50C
:104E40007C42904213D002F5806290420FD002F56E
:104E5000806290420BD002F59A32904207D002F560
:104E60008062904203D002F58062904203D123F425
:104E70004073CA68134323F080034A6913438A6866
:104E8000C2620A688262074A904207D0026842F012
:104E90000402026001224261036070470A690263F2
:104EA000F4E700BF0000014040B310B5044690F89D
:104EB0003D30F3B1022384F83D30214651F8040B14
:104EC000FFF7A0FF012384F8463084F83E3084F8D1
:104ED0003F3084F8403084F8413084F8423084F820
:104EE000433084F8443084F8453084F83D30002065
:104EF00010BD80F83C30FCF7B9FCDBE701207047BF
:104F000040B310B5044690F83D30F3B1022384F865
:104F10003D30214651F8040BFFF774FF012384F85C
:104F2000463084F83E3084F83F3084F8403084F8CE
:104F3000413084F8423084F8433084F8443084F8B7
:104F4000453084F83D30002010BD80F83C30FFF73C
:104F50008BFEDBE70120704740B310B5044690F8A4
:104F60003D30F3B1022384F83D30214651F8040B63
:104F7000FFF748FF012384F8463084F83E3084F878
:104F80003F3084F8403084F8413084F8423084F86F
:104F9000433084F8443084F8453084F83D300020B4
:104FA00010BD80F83C30FFF760FEDBE70120704762
:104FB00030B4036A026A22F0100202624468826915
:104FC00022F4E6420D6842EA052223F020038D68B0
:104FD00043EA05130C4DA84206D0446082614A683A
:104FE0008263036230BC704723F08003CD6843EADC
:104FF000051323F0400324F440644D6944EA85041A
:105000008D6944EA8504E8E70000014038B590F86E
:105010003C30012B66D004460D46012380F83C301D
:105020000C2A5AD8DFE802F0075959591B59595927
:105030003059595944000068FFF7E4FC226893692D
:1050400043F0080393612268936923F0040393619A
:105050002268936929690B43936100203EE0006850
:10506000FFF7A6FF2268936943F400639361226807
:10507000936923F48063936122689369296943EA01
:1050800001239361002029E00068FFF7E5FC226816
:10509000D36943F00803D3612268D36923F0040382
:1050A000D3612268D36929690B43D361002015E0DD
:1050B0000068FFF7FFFC2268D36943F40063D36103
:1050C0002268D36923F48063D3612268D369296994
:1050D00043EA0123D361002000E00120002384F88B
:1050E0003C3038BD0220FCE770B49446066A046A7E
:1050F00024F0010404628469144DA84214D0B0F174
:10510000804F11D0124A90420ED002F58062904238
:105110000AD002F58062904206D002F59A3290429F
:1051200002D044F0010203E024F0030242EA0C0240
:1051300022F0F0021B01DBB2134326F00A0201F059
:105140000A0111438361016270BC70470000014095
:105150000004004038B590F83C30012B5ED0044686
:105160000D46012380F83C300C2A52D8DFE802F0CB
:1051700007515151195151512C5151513E00CB6899
:105180004A6809680068FFF7AFFF2268936923F057
:105190000C03936122689369A9680B439361002013
:1051A00038E0CB684A6809680068FFF7BAFC2268F3
:1051B000936923F44063936122689369A96843EA81
:1051C00001239361002025E0CB684A6809680068E4
:1051D000FFF7D6FC2268D36923F00C03D361226861
:1051E000D369A9680B43D361002013E0CB684A68F8
:1051F00009680068FFF7DFFC2268D36923F4406385
:10520000D3612268D369A96843EA0123D3610020EE
:1052100000E00120002384F83C3038BD0220FCE788
:1052200010B4846824F47F4C42EA03220A4342EA21
:105230000C0282605DF8044B704790F83C30012B03
:1052400078D010B50446012380F83C30022380F862
:105250003D300268936823F47F4323F07703936023
:105260000B68602B4CD023D8402B54D011D8202B66
:1052700003D00AD80BB1102B05D119462068FFF7CF
:10528000B5FC002028E0012026E0302BF5D00120DD
:1052900022E0502B0AD1CA6849680068FFF72EFC4B
:1052A00050212068FFF7A2FC002015E0012013E048
:1052B000B3F5805F3AD0B3F5005F14D0702B37D1CF
:1052C000CB684A6889680068FFF7AAFF226893687C
:1052D00043F0770393600020012384F83D300023DE
:1052E00084F83C3010BDCB684A6889680068FFF7D5
:1052F00097FF2268936843F4804393600020EBE7B4
:10530000CA6849680068FFF727FC60212068FFF73A
:105310006DFC0020E0E7CA6849680068FFF7EEFB13
:1053200040212068FFF762FC0020D5E70020D3E78A
:105330000120D1E70220704701F01F014FF0010C5E
:105340000CFA01FC036A23EA0C030362036A8A4035
:10535000134303627047000010B504460846002955
:1053600032D194F83E30DBB2013B18BF0123002B51
:1053700063D1002841D1022384F83E300122014646
:105380002068FFF7D9FF23682E4A934245D023684F
:105390002C4A934246D0B3F1804F43D0A2F57C42D1
:1053A00093423FD002F5806293423BD002F5806287
:1053B000934237D002F59A32934233D01A6842F0C2
:1053C00001021A60002037E0042908D008290DD016
:1053D00094F84130DBB2013B18BF0123C7E794F8D2
:1053E0003F30DBB2013B18BF0123C0E794F84030E7
:1053F000DBB2013B18BF0123B9E7042805D0082818
:1054000007D0022384F84130B8E7022384F83F3004
:10541000B4E7022384F84030B0E75A6C42F400420B
:105420005A64B4E79A6802F00702062A07D01A689D
:1054300042F001021A60002010BD0120FCE70020AC
:10544000FAE700BF0000014010B504460B46F1B971
:1054500090F83E00C0B253BB94F84220D2B201286B
:1054600040F09680012A40F0948083BB022184F8AA
:105470003E1084F842100C2B00F28C80DFE803F021
:10548000718A8A8A418A8A8A6B8A8A8A7700042981
:1054900005D0082907D090F84100C0B2DBE790F8AA
:1054A0003F00C0B2D7E790F84000C0B2D3E7042B6A
:1054B00005D0082B07D094F84520D2B2CFE794F856
:1054C0004320D2B2CBE794F84420D2B2C7E7042BF2
:1054D0000CD0082B0ED0022184F84110042B0DD0E3
:1054E000082B35D0022184F84510C4E7022184F846
:1054F0003F10F3E7022184F84010EFE7022284F81E
:1055000043202168CA6842F00402CA600122194699
:105510002068FFF711FF2368204A93422DD0B3F192
:10552000804F2AD0A2F57C42934226D002F58062B9
:10553000934222D002F5806293421ED002F59A3245
:1055400093421AD01A6842F001021A60002020E04B
:10555000022284F844202168CA6842F00802CA6026
:10556000D4E72168CA6842F00202CA60CEE7216827
:10557000CA6842F01002CA60C8E79A6802F00702DF
:10558000062A09D01A6842F001021A60002000E0E1
:10559000012010BD1046FCE70020FAE700000140A2
:1055A00090F83C20012A35D010B40346012280F83F
:1055B0003C20022280F83D2002685068946820F068
:1055C000700C086840EA0C0050601A681248824269
:1055D00012D0B2F1804F0FD0A0F57C4082420BD0A8
:1055E00000F58060824207D000F58060824203D0DF
:1055F00000F59A30824204D124F0800449682143A6
:105600009160012283F83D20002083F83C005DF882
:10561000044B7047022070470000014070477047FC
:10562000002800F0E08170B582B00446036813F0F2
:10563000010F3BD09F4B9B6803F00C03042B2CD035
:105640009C4B9B6803F00C03082B21D06368B3F5D7
:10565000803F4FD0B3F5A02F52D0964B1A6822F45A
:1056600080321A601A6822F480221A606368002B64
:1056700050D000F0A9FD05468E4B1B6813F4003F87
:1056800014D100F0A1FD401B6428F5D90320B1E13D
:10569000884B5B6813F4800FD8D0864B1B6813F4DB
:1056A000003F03D06368002B00F09F81236813F054
:1056B000020F54D07F4B9B6813F00C0F3ED07D4BF4
:1056C0009B6803F00C03082B33D0E368002B68D0F1
:1056D000794B01221A6000F077FD0546754B1B6877
:1056E00013F0020F54D100F06FFD401B0228F5D9D2
:1056F00003207FE16F4A136843F480331360B5E7FA
:105700006C4B1A6842F480221A601A6842F48032A4
:105710001A60ABE700F058FD0546664B1B6813F4B2
:10572000003FC3D000F050FD401B6428F5D9032092
:1057300060E1604B5B6813F4800FC6D15D4B1B6862
:1057400013F0020F03D0E368012B40F05081594A57
:10575000136823F0F803216943EAC1031360236847
:1057600013F0080F42D063696BB3534B0122C3F8A7
:10577000802E00F029FD05464E4B5B6F13F0020FA3
:1057800034D100F021FD401B0228F5D9032031E17E
:10579000484A136823F0F803216943EAC103136000
:1057A000DDE7454B00221A6000F00EFD0546414B37
:1057B0001B6813F0020FD2D000F006FD401B022838
:1057C000F5D9032016E13C4B0022C3F8802E00F0EF
:1057D000FBFC0546374B5B6F13F0020F06D000F061
:1057E000F3FC401B0228F5D9032003E1236813F0E2
:1057F000040F77D02F4B1B6C13F0805F33D1002345
:1058000001932C4B1A6C42F080521A641B6C03F00B
:1058100080530193019B0125284B1B6813F4807F63
:1058200023D0A368012B34D0052B38D0214B1A6F1D
:1058300022F001021A671A6F22F004021A67A368A5
:10584000002B3DD000F0C0FC06461A4B1B6F13F036
:10585000020F46D100F0B8FC801B41F28833984219
:10586000F3D90320C6E00025D6E7144A136843F4B1
:105870008073136000F0A8FC0646104B1B6813F4FD
:10588000807FCED100F0A0FC801B0228F5D9032038
:10589000B0E0084A136F43F001031367CFE7054BED
:1058A0001A6F42F004021A671A6F42F001021A6777
:1058B000C5E700BF003802400000474200700040CA
:1058C00000F082FC0646524B1B6F13F0020F08D00B
:1058D00000F07AFC801B41F288339842F3D9032010
:1058E00088E0EDB9A369002B00F08380484A9268F4
:1058F00002F00C02082A51D0022B17D0454B00228F
:105900001A6600F061FC0446414B1B6813F0007FEF
:1059100042D000F059FC001B0228F5D9032069E0B1
:105920003B4A136C23F080531364DBE7394B0022AE
:105930001A6600F049FC0546354B1B6813F0007FE2
:1059400006D000F041FC401B0228F5D9032051E0AD
:10595000E369226A1343626A43EA8213A26A520825
:10596000013A43EA0243E26A43EA0263284A536087
:10597000284B01221A6600F027FC0446244B1B68C2
:1059800013F0007F06D100F01FFC001B0228F5D9A0
:1059900003202FE000202DE000202BE0012B2BD056
:1059A0001B4B5B6803F48001E269914226D103F04E
:1059B0003F02216A8A4223D1616A47F6C0721A40C7
:1059C000B2EB811F1ED103F44031A26A5208013AA2
:1059D000B1EB024F18D103F07063E26AB3EB026FD0
:1059E00014D1002006E001207047012002E00120D0
:1059F00000E0002002B070BD0120FBE70120F9E7C4
:105A00000120F7E70120F5E70120F3E70120F1E7A6
:105A1000003802400000474208B5264B9B6803F05F
:105A20000C03042B41D0082B41D1224B5A6802F0C1
:105A30003F025B6813F4800F12D01E4B5968C1F30C
:105A400088111D480023A1FB0001FBF741FC194B05
:105A50005B68C3F3014301335B00B0FBF3F008BDA7
:105A6000144B5868C0F388104FEA401CBCEB000C84
:105A70006EEB0E0E4FEA8E1343EA9C634FEA8C11D5
:105A8000B1EB0C0163EB0E03DB0043EA5173C90079
:105A900011EB000C43F10003990200234FEA8C2024
:105AA00041EA9C51FBF714FCD1E70348D7E70348D0
:105AB000D5E700BF0038024040787D010024F400A3
:105AC000002800F09B8070B50D4604464F4B1B68C4
:105AD00003F007038B4208D2CBB24C4A1370136811
